:020000040000FA
:100000000C945C010C948D010C948D010C948D0169
:100010000C948D010C948D010C948D010C948D0128
:100020000C948D010C941D120C941D120C941D1235
:100030000C948D010C948D010C948D010C948D0108
:100040000C948D010C94EF110C948D010C948D0186
:100050000C948D010C948D010C948D010C941B114A
:100060000C948D010C94E5100C94BB100C948D0134
:100070000C948D010C948D010C948D010C948D01C8
:100080000C94C1110C948D010C948D010C948D0174
:100090000C9485100C945B100C948D010C949912A7
:1000A0000C948D010C948D010C9493110C948D0182
:1000B0000C948D010C948D010C948D010C946511A0
:1000C0000C948D010C948D010C948D010C948D0178
:1000D0000C948D010C948D010C948D010C948D0168
:1000E0000C948D010C9455020C9477020C94060329
:1000F0000C94B6030C9477030C949A030C94C406E6
:100100000C94B1030C945E060C9496030C94E606D2
:100110000C947F030C94E3030C94381B0C94710330
:100120000C9418020C94D3060C9409070C94140434
:100130000C94AC030C94ED060C94E9050C94B902F4
:100140000C94D1050C9486030C94B2030C947B039D
:100150000C9419020C9446060C94BD130C94830362
:100160000C9490030C940A070C94A4030C94F806C6
:100170000C946D080C9454040C9417020C948C038A
:100180000C949E030C94A8030C9446020C94EA056C
:100190000C94690200002100240027002A002D0091
:1001A0003000330001010000040107010A010000D2
:1001B0000A0B02090C0D0E080703040100000000E1
:1001C000000000000000000000000000000000002F
:1001D00000000000000000000000121110000000EC
:1001E000000000000000000000000000000000000F
:1001F00000000000000020002300260029002C0041
:100200002F00320000010000030106010901000077
:100210002200250028002B002E00310034000201AE
:100220000000050108010B01050505050705080883
:100230000808020202020A0A080804040404010170
:100240000101010101010303030303030303040785
:1002500007070C0C0C0C0C0C0C0C0202020206061C
:100260000606060606060B0B0B0B0B0B0B0B01020F
:1002700010202008081020401020408002010201B8
:100280000804020101020408102040808040201070
:1002900008040201800402018040201008040201C9
:1002A0000804020101020408102040800102040831
:1002B00010204080BD13381B11241FBECFEFD1E2A8
:1002C000DEBFCDBF00E00CBF13E0A0E0B2E0EAE784
:1002D000FDE300E00BBF02C007900D92A43AB10706
:1002E000D9F727E0A4EAB3E001C01D92A432B20717
:1002F000E1F711E0CBE5D1E000E006C0219701096C
:10030000802FFE010E94791CCA35D10780E00807C2
:10031000A9F70E9454150C94AB1E0C9400008F9208
:100320009F92AF92BF92FF920F931F93CF93DF9351
:10033000F0901D072FE22F1508F44CC020911F07E5
:1003400008E512E0021B110927FD1395000F111F8C
:10035000000F111F20911E07C8E8D0E0C21BD10971
:1003600027FDD395CC0FDD1FCC0FDD1F4E010D2EC9
:10037000000CAA08BB089801012E000C440B550B79
:10038000281939094A095B09DC010E94201C24EB69
:1003900030E040E050E00E94F61B820E931EA41E47
:1003A000B51E8C169D062CF0E801801691060CF403
:1003B000E4012297CC0FDD1F2FB7F8948F2D90E02A
:1003C000FC01EE0FFF1FE80FF91FE052FA4FD28336
:1003D000C1832FBFDF91CF911F910F91FF90BF90ED
:1003E000AF909F908F90089596E0899FD00111243F
:1003F000A757B94F90967C936E935F9791E0919633
:100400009C939197E091F606F091F7069091F5068E
:10041000992339F0309751F0811108C08091A506D9
:100420001994309719F05C968C91FACF089508953D
:100430000895AF92BF92CF92DF92EF92FF920F9307
:100440001F93CF93DF936C017B018B01040F151F6A
:10045000EB015E01AE18BF08C017D10759F06991D2
:10046000D601ED91FC910190F081E02DC601199526
:10047000892B79F7C501DF91CF911F910F91FF90E3
:10048000EF90DF90CF90BF90AF900895FC01538D17
:10049000448D252F30E0842F90E0821B930B54175E
:1004A00010F0CF96089501970895FC01918D828DEB
:1004B000981761F0A28DAE0FBF2FB11D5D968C9184
:1004C000928D9F5F9F73928F90E008958FEF9FEFC3
:1004D0000895FC01918D828D981731F0828DE80F7F
:1004E000F11D858D90E008958FEF9FEF0895FC0139
:1004F000918D228D892F90E0805C9F4F821B910906
:100500008F73992708958AE994E00E94770221E089
:10051000892B09F420E0822F089587E395E00E945B
:10052000770221E0892B09F420E0822F0895FC0155
:10053000A48DA80FB92FB11DA35ABF4F2C91848D44
:1005400090E001968F739927848FA689B7892C93A1
:10055000A089B1898C91837080648C93938D848DF4
:10056000981306C00288F389E02D80818F7D8083F7
:100570000895EF92FF920F931F93CF93DF93EC01B7
:1005800081E0888F9B8D8C8D98131AC0E889F9893A
:10059000808185FF15C09FB7F894EE89FF8960833D
:1005A000E889F98980818370806480839FBF81E0BE
:1005B00090E0DF91CF911F910F91FF90EF90089500
:1005C000F62E0B8D10E00F5F1F4F0F731127E02EDB
:1005D0008C8D8E110CC00FB607FCFACFE889F98913
:1005E000808185FFF5CFCE010E949702F1CFEB8D80
:1005F000EC0FFD2FF11DE35AFF4FF0829FB7F894E7
:100600000B8FEA89FB8980818062CFCFCF93DF9304
:10061000EC01888D8823B9F0AA89BB89E889F9891A
:100620008C9185FD03C0808186FD0DC00FB607FC4F
:10063000F7CF8C9185FFF2CF808185FFEDCFCE0182
:100640000E949702E9CFDF91CF91089580E090E07A
:10065000892B29F00E948D0281110E94000080E008
:1006600090E0892B29F00E94830281110E940000F2
:1006700080E090E0892B49F080E090E0892B29F020
:100680000E94000081110E94000080E090E0892B10
:1006900049F080E090E0892B29F00E940000811150
:1006A0000C94000008958150823108F05AC0E82F60
:1006B000F0E08827E15AFC4F8F4F0C94791C7F03A0
:1006C0008303710377037B03B10386038C039003D9
:1006D00096039A039E03A403A803B103AC03B203D9
:1006E000B603809180008F77809380000895809179
:1006F00080008F7DF9CF80918000877FF5CF84B512
:100700008F7784BD089584B58F7DFBCF8091B00035
:100710008F778093B00008958091B0008F7DF9CFDE
:10072000809190008F778093900008958091900041
:100730008F7DF9CF80919000877FF5CF8091A000C9
:100740008F778093A00008958091A0008F7DF9CFCE
:100750008091A000877FF5CF809120018F778093D3
:1007600020010895809120018F7DF9CF8091200193
:10077000877FF5CFCF93DF93282F30E0F901E25543
:10078000FE4F8491F901E259FD4FD491F901E85DE2
:10079000FD4FC491CC23A1F081110E945303EC2F93
:1007A000F0E0EE0FFF1FEC50FE4FA591B491EC91DD
:1007B000ED2381E090E009F480E0DF91CF9108958E
:1007C00080E090E0FACF862F0C94BA031F93CF936A
:1007D000DF93282F30E0F901E255FE4F8491F901B3
:1007E000E259FD4FD491F901E85DFD4FC491CC234E
:1007F000A9F0162F81110E945303EC2FF0E0EE0FA9
:10080000FF1FE25FFD4FA591B4918FB7F894EC9173
:10081000111108C0D095DE23DC938FBFDF91CF91FB
:100820001F910895DE2BF8CF862F642F0C94E603DA
:10083000CF93DF9390E0FC01E259FD4F2491885D56
:100840009D4FFC0184918823C9F090E0880F991F87
:10085000FC01EC56FE4FA591B491FC01E25FFD4F07
:10086000C591D49161110DC09FB7F8948C912095DA
:1008700082238C938881282328839FBFDF91CF9187
:100880000895623051F49FB7F8943C91822F80957F
:1008900083238C93E8812E2BEFCF8FB7F894EC91C4
:1008A0002E2B2C938FBFEACF862F642F0C94180425
:1008B0003FB7F89480917D0490917E04A0917F04CD
:1008C000B091800426B5A89B05C02F3F19F0019672
:1008D000A11DB11D3FBFBA2FA92F982F8827BC019A
:1008E000CD01620F711D811D911D42E0660F771FC2
:1008F000881F991F4A95D1F708958F929F92AF92C2
:10090000BF92CF92DF92EF92FF924B015C010E9467
:1009100058046B017C010E9458046C197D098E09F2
:100920009F09683E734081059105A8F321E0821A72
:100930009108A108B10888EEC80E83E0D81EE11C1A
:10094000F11C81149104A104B10429F7FF90EF90E8
:10095000DF90CF90BF90AF909F908F9008952FB76A
:10096000F8946091790470917A0480917B0490915D
:100970007C042FBF08950F931F93CF93DF93C82F4D
:10098000D62F86E0C89FF0011124E757F94F11A236
:10099000878D90A181309105F1F058F0823091055A
:1009A000F1F1039709F440C0DF91CF911F910F91AE
:1009B00008956623C9F361E070E08C2F0E94F40172
:1009C0000E94AF046093E1067093E2068093E30611
:1009D0009093E406E9CF0E94AF040091E1061091E4
:1009E000E2062091E3063091E406AB01BC01401B16
:1009F000510B620B730B8091F3069091F406B0E0FB
:100A0000A0E084179507A607B70748F462E070E0F6
:100A10008C2FDF91CF911F910F910C94F40163E023
:100A200070E0D111C1CFF4CF70E060E0F1CFAF92B0
:100A3000BF92CF92DF92EF92FF920F931F93CF93CB
:100A4000DF936B017A01EC01CC58DB4F28813CE04D
:100A5000389F8001399F100D1124A0907006B12C91
:100A600027FF1FC0FB011182108288818F5F88835E
:100A700088819801280F311D87FD3A95F6012A15C6
:100A80003B051CF488818C30C4F1808191810496EF
:100A900080349C4908F473C0F601808191810496EA
:100AA00070C088819801280F311D87FD3A952A155D
:100AB0003B05DCF68881A801480F511D87FD5A953A
:100AC000FA01EE0FFF1FE40FF51FE052FA4F80818D
:100AD00086FFCBCF8881F801E80FF11D87FDFA95DD
:100AE000CF01EE0FFF1FE80FF91FE052FA4F808190
:100AF00060E08F730E94E603B8CF808191812881E6
:100B0000A801420F511D27FD5A959A01FA01EE0FD7
:100B1000FF1FE20FF31FE052FA4F21813281820F53
:100B2000931FF7019183808388819801280F311DDD
:100B300087FD3A95F901EE0FFF1FE20FF31FE05218
:100B4000FA4F808186FF22C08881080F111D87FD22
:100B50001A95F801EE0FFF1FE00FF11FE052FA4F58
:100B6000808161E08F73DF91CF911F910F91FF9092
:100B7000EF90DF90CF90BF90AF900C94E60380E4AD
:100B80009CE9F701918380838FEF8883DF91CF9178
:100B90001F910F91FF90EF90DF90CF90BF90AF909B
:100BA000089520918304309184042817390771F443
:100BB0009091810480918204981741F0E091810422
:100BC000F0E0EC5CFB4F808190E008958FEF9FEFA9
:100BD00008950895EF92FF920F931F93CF93DF93A1
:100BE000DC015C96ED90FC905D97E114F10479F4E2
:100BF00081E090E013969C938E93129790E080E0B2
:100C0000DF91CF911F910F91FF90EF900895519632
:100C1000ED91FC91529750968C915097982F90950A
:100C20000FB75E962C915E97122F127021FD609582
:100C3000F8942081112319F1282B2083E7012197B3
:100C4000F1F728E0462F50E0308160FF1AC0382BC2
:100C50003083E7012197F1F7BA0175956795215027
:100C600089F7112381F08081892380830FBF5C96EF
:100C70008D919C910197F1F781E090E0C1CF2923FC
:100C8000DCCF3923E5CF9081892BEFCF20918304EE
:100C9000309184042817390771F4809182042091DF
:100CA000810490E0805C9F4F821B910960E470E0BA
:100CB0000E94651C089590E080E0089520918304CF
:100CC0003091840428173907B9F4909181048091F8
:100CD0008204981789F0E0918104F0E0EC5CFB4F0E
:100CE00080812091810430E02F5F3F4F2F733327A5
:100CF0002093810490E008958FEF9FEF0895209155
:100D0000EA03260F3327331F21323105ECF42091FB
:100D10000E04FC0190E080E0243069F082E0089548
:100D2000A091EA032191AC0146535C4FA40FB52F6B
:100D3000B11D2C930196861798F38091EA03680FF2
:100D40006093EA0380E0089581E0089510920E0414
:100D500081E08093100410920F0461E084E10E940E
:100D6000E60361E085E10E94E603E9EBF0E08081C3
:100D70008E7F808380818D7F808388E48093B8001C
:100D800085E48093BC000895E0918C0480918B04ED
:100D9000E81730F4F0E0EC55FC4F808190E00895C6
:100DA0008FEF9FEF089590918C0480918B042FEF2B
:100DB0003FEF981748F4E92FF0E0EC55FC4F208105
:100DC00030E09F5F90938C04C901089580918B045B
:100DD00090918C04891B990B0895CF93DF93CB01DD
:100DE000EA01642F0E947F06CE01DF91CF91089522
:100DF000CF93DF931F92CDB7DEB7698361E0CE0159
:100E000001960E947F0681E090E00F90DF91CF91E4
:100E10000895089590E080E00895CF93DF93EC016A
:100E200060E08E810E94E60361E08E810E94E6030D
:100E300060E08E810E94E6038BE891E00197F1F774
:100E4000DF91CF910895CF92DF92EF92FF920F93AF
:100E50001F93CF93DF936C017C0187E0E80EF11CB8
:100E6000D0E0C0E0062F10E0B8010C2E02C075954E
:100E700067950A94E2F76170F70181917F010E9402
:100E8000E6032196C430D10579F7C601DF91CF91F1
:100E90001F910F91FF90EF90DF90CF900C940D0772
:100EA000CF92DF92EF92FF920F931F93CF93DF9336
:100EB000EC01F62E642F8C810E94E6038D818F3F1A
:100EC00019F060E00E94E6030F2D10E08F8584FF8B
:100ED00025C06E0187E0C80ED11CF12CE12CB801B1
:100EE0000E2C02C0759567950A94E2F76170F601C1
:100EF00081916F010E94E603FFEFEF1AFF0A88E07D
:100F0000E816F10461F7CE01DF91CF911F910F91A7
:100F1000FF90EF90DF90CF900C940D07B80184E024
:100F2000759567958A95E1F7CE010E9423076F2D8D
:100F3000CE01DF91CF911F910F91FF90EF90DF9045
:100F4000CF900C94230740E0682F81E796E00C9443
:100F5000500781E00E94A3078BE39FE10197F1F71F
:100F60000895CF93DF93813029F0909180069860A7
:100F700090938006809384061092850680E4809387
:100F8000860680E18093870680E58093880661E08D
:100F9000809175060E941804809176068F3F19F0A3
:100FA00061E00E94180461E0809177060E941804B5
:100FB000C1E7D6E09E01215736408091800684FD2E
:100FC0000BC084E090E021962817390744F461E0D3
:100FD0008E810E941804EECF88E090E0F4CF8BE37E
:100FE0009DE00197F1F760E0809175060E94E603AD
:100FF00060E0809177060E94E603809176068F3F3D
:1010000019F060E00E94E6038091800684FD34C000
:1010100063E081E796E00E942307CBE4D6E4CE01AB
:101020000197F1F763E081E796E00E94230721979B
:10103000F1F763E081E796E00E94230783E592E001
:101040000197F1F762E081E796E00E942307809123
:10105000800680620E94A30784E0809381068CE072
:101060000E94A3070E94A90782E08093820686E07F
:10107000DF91CF910C94A30780620E94A3078BE4B9
:1010800096E40197F1F78091800680620E94A307A1
:1010900083E592E00197F1F78091800680620E94DB
:1010A000A307D5CFCF93DF93EB01909184068917E7
:1010B00010F08FEF890FE82FF0E0EF58F94F848997
:1010C00080680E94A3074C815D816881798181E7F6
:1010D00096E0DF91CF910C94190241E00E945007F5
:1010E00081E090E00895FB0101900020E9F731973D
:1010F000AF01461B570BDC01ED91FC910280F3819F
:10110000E02D19948F929F92AF92BF920F931F93ED
:10111000CF93DF93CDB7DEB7A1970FB6F894DEBFBC
:101120000FBECDBF19A2423008F44AE08E010F5D18
:101130001F4F842E912CB12CA12CA50194010E944B
:10114000281CE62FB901CA01EA3004F5E05DD80198
:10115000EE938D01232B242B252B79F790E080E053
:10116000109729F0BD0188EF96E00E947308A196C0
:101170000FB6F894DEBF0FBECDBFDF91CF911F91A8
:101180000F91BF90AF909F908F900895E95CDFCF53
:10119000CF92DF92EF92FF92CF93DF936C01990F82
:1011A000EE08FF08F7FE21C06DE288EF96E00E948E
:1011B000EA05EC0166277727CB016C197D098E09BA
:1011C0009F094AE00E948208C80FD91F62E872E0B6
:1011D00088EF96E00E9473088C0F9D1FDF91CF91DE
:1011E000FF90EF90DF90CF9008954AE0C701B601DD
:1011F0000E948208EC01EACF0F931F93CF93DF93F5
:10120000EC010E9473088C0162E872E0CE010E943A
:101210007308800F911FDF91CF911F910F91089557
:101220000F931F93CF93DF93EC01888199810097EF
:1012300059F02A813B812617370730F081E0DF9192
:10124000CF911F910F9108958B016F5F7F4F0E9487
:10125000BA1D009759F0998388831B830A832C81D8
:101260003D81232B59F7FC011082E8CF80E0E7CFC6
:10127000EF92FF920F931F93CF93DF936115710548
:1012800041F480E0DF91CF911F910F91FF90EF909B
:10129000089541155105B1F07B01EC010C811D81D0
:1012A000040F151FB8010E941009882351F32881EB
:1012B00039818C819D81B701820F931F0E94A41EEA
:1012C0001D830C8381E0DECFCF93DF93EC01888117
:1012D0009981009711F00E94311D198218821D8298
:1012E0001C821B821A82DF91CF910895CF93DF93E6
:1012F000EC01FB0101900020E9F73197AF01461B9B
:10130000570B0E943809811103C0CE010E94640965
:10131000CE01DF91CF910895CF93DF93EC01FB01D4
:1013200044815581608171810E943809811103C017
:10133000CE010E946409CE01DF91CF910895EF9212
:10134000FF920F931F93CF93DF93EC017B018A01F0
:10135000BA010E94100981110BC0CE010E946409DC
:10136000CE01DF91CF911F910F91FF90EF900895E3
:101370001D830C83B701888199810E94A41EF0CF40
:10138000FB0101900020E9F73197AF01461B570B95
:101390000C949F090F931F93CF93DF93CDB7DEB7C4
:1013A00062970FB6F894DEBF0FBECDBF8C01CB01A4
:1013B000F8011182108213821282158214824AE08F
:1013C000BE016F5F7F4F0E947B1BBE016F5F7F4F2F
:1013D000C8010E94C00962960FB6F894DEBF0FBE26
:1013E000CDBFDF91CF911F910F9108950F931F9360
:1013F000CF93DF93CDB7DEB7A2970FB6F894DEBFD9
:101400000FBECDBF8C01CB01BA01F8011182108251
:1014100013821282158214822AE0AE014F5F5F4F61
:101420000E94861BBE016F5F7F4FC8010E94C009EA
:10143000A2960FB6F894DEBF0FBECDBFDF91CF915D
:101440001F910F9108950F931F93CF93DF9300D0B7
:1014500000D000D0CDB7DEB78C01862FF801118205
:10146000108213821282158214824AE0BE016F5FDD
:101470007F4F90E00E94CC1BBE016F5F7F4FC80181
:101480000E94C00929960FB6F894DEBF0FBECDBFEB
:10149000DF91CF911F910F910895CF93DF93EC01CE
:1014A000FB018617970749F060817181611571050D
:1014B00041F0448155810E949F09CE01DF91CF9177
:1014C00008950E946409F9CFFC01118210821382F1
:1014D0001282158214820C944D0AFC011182108232
:1014E0001382128215821482FB0101900020E9F719
:1014F0003197AF01461B570B0C949F09AF92BF92D7
:10150000CF92DF92EF92FF920F931F93CF93DF93CF
:101510008C017B015A01CC24C394D12C452B29F496
:10152000D12CC12CAA24A394B12C64E872E0C80188
:101530000E946D0AD7011496CD91DC91CC16DD0680
:10154000E0F4AC16BD0608F4E501D701ED91FC917D
:101550001197EC0FFD1FB08010826D917C916C0D86
:101560007D1DC80161157105A1F00E94C009F70138
:1015700080819181C80FD91FB882C801DF91CF91B6
:101580001F910F91FF90EF90DF90CF90BF90AF90A1
:1015900008950E946409EBCFFC018081918100973E
:1015A00011F00C94311D0895CF93DF9385ED809356
:1015B000BC008091C6039091C703A091C803B0916D
:1015C000C9030796A11DB11D23E0B695A795979570
:1015D00087952A95D1F72091BC0024FD03C0109275
:1015E0000E0436C04091C6035091C7036091C803F2
:1015F0007091C903452B462B472B69F30097A10532
:10160000B10541F025E32A95F1F700000197A10902
:10161000B109E1CF8091C50391E09093C403882381
:10162000B9F0C091B800D091BA008091BC008A7B1B
:101630008093BC0060E084E10E94E60360E085E105
:101640000E94E6030E94A606D093BA00C093B80099
:10165000DF91CF910895CF92DF92EF92FF920F9397
:101660001F93CF93DF93CDB7DEB768970FB6F8948B
:10167000DEBF0FBECDBF0E94A907809199048A32B8
:10168000A1F465E872E088EF96E00E94FC081092F1
:101690008F0410928E041092930410929204109270
:1016A00091041092900410929804809199048133CF
:1016B000A1F463E972E088EF96E00E94FC082091B3
:1016C0009004309191042115310509F08BC181E01E
:1016D00090E09093910480939004809199048433D6
:1016E000A1F46CE972E088EF96E00E94FC0820917A
:1016F0009004309191042115310509F0D4C184E0A2
:1017000090E09093910480939004809199048733A2
:10171000A1F465EA72E088EF96E00E94FC0820914F
:101720009004309191042115310509F01DC287E024
:1017300090E0909391048093900480919904803379
:1017400009F06CC06EEA72E088EF96E00E94FC0837
:101750008091900490919104009709F45FC06C010E
:10176000092E000CEE08FF084AE0489F9001499FAF
:10177000300D11243093910420939004B701A601F9
:10178000CE0101960E94F6090D811E81CE010196BF
:101790000E94CC0A0430110508F440C0B701A6012C
:1017A000CE0143960E94F60970E060E0CE010D96EE
:1017B0000E94CA094F89588DBE016D5E7F4FCE01D0
:1017C00001960E947E0ABE016F5F7F4FCE01079691
:1017D0000E94640ABE01635F7F4FCE0107960E949C
:1017E0008C09BC01CE0143960E944D0ACE0107969A
:1017F0000E94CC0ACE0101960E94CC0ACE010D9621
:101800000E94CC0A8B899C890E94541B709391047E
:1018100060939004CE0143960E94CC0A8091990473
:101820008233A1F467EB72E088EF96E00E94FC0837
:1018300020919004309191042115310509F0F5C1F2
:1018400082E090E0909391048093900480919904B9
:101850008533A1F460EC72E088EF96E00E94FC080A
:1018600020919004309191042115310509F03EC278
:1018700085E090E090939104809390048091990486
:101880008833A1F469EC72E088EF96E00E94FC08CE
:1018900020919004309191042115310509F087C2FF
:1018A00088E090E090939104809390048091990453
:1018B000833289F462ED72E088EF96E00E94FC08C2
:1018C000809190049091910490938F0480938E0462
:1018D00081E080939804809199048333A1F46FEDA3
:1018E00072E088EF96E00E94FC082091900430910D
:1018F00091042115310509F0BBC283E090E090937B
:10190000910480939004809199048633A1F468EE49
:1019100072E088EF96E00E94FC08209190043091DC
:1019200091042115310509F004C386E090E09093FD
:10193000910480939004809199048933A1F461EF1C
:1019400072E088EF96E00E94FC08209190043091AC
:1019500091042115310509F04DC389E090E0909381
:10196000910480939004809199049FEB980F92309A
:1019700050F5813449F46AEF72E087E395E00E9404
:10198000FC088BE280938D0480919904823449F4A1
:1019900063E073E087E395E00E94FC088DE28093AA
:1019A0008D0480919004909191049093930480937E
:1019B000920410929104109290046AE070E080E02A
:1019C00090E00E947D0468960FB6F894DEBF0FBECB
:1019D000CDBFDF91CF911F910F91FF90EF90DF90DE
:1019E000CF9008956901032E000CEE08FF084AE02D
:1019F000429FC001439F900D112401969093910442
:101A000080939004B701A601CE0101960E94F609C9
:101A10000D811E81CE0101960E94CC0A0430110571
:101A200008F45BCEB701A601CE0143960E94F609E9
:101A300061E070E0CE010D960E94CA094F89588D71
:101A4000BE016D5E7F4FCE0101960E947E0ABE01EF
:101A50006F5F7F4FCE0107960E94640ABE01635FED
:101A60007F4FCE0107960E948C09BC01CE014396A0
:101A70000E944D0ACE0107960E94CC0ACE01019623
:101A80000E94CC0ACE010D960E94CC0A8B899C89BB
:101A90000E94541B7093910460939004CE0143966E
:101AA0000E94CC0A1ACE6901032E000CEE08FF0832
:101AB0004AE0429FC001439F900D112404969093E9
:101AC000910480939004B701A601CE0101960E9473
:101AD000F6090D811E81CE0101960E94CC0A0430C8
:101AE000110508F412CEB701A601CE0143960E945B
:101AF000F60964E070E0CE010D960E94CA094F8994
:101B0000588DBE016D5E7F4FCE0101960E947E0A08
:101B1000BE016F5F7F4FCE0107960E94640ABE012F
:101B2000635F7F4FCE0107960E948C09BC01CE01F6
:101B300043960E944D0ACE0107960E94CC0ACE0120
:101B400001960E94CC0ACE010D960E94CC0A8B8988
:101B50009C890E94541B7093910460939004CE0161
:101B600043960E94CC0AD1CD6901032E000CEE08E9
:101B7000FF084AE0429FC001439F900D1124079641
:101B80009093910480939004B701A601CE01019631
:101B90000E94F6090D811E81CE0101960E94CC0A99
:101BA0000430110508F4C9CDB701A601CE01439652
:101BB0000E94F60967E070E0CE010D960E94CA0906
:101BC0004F89588DBE016D5E7F4FCE0101960E94F8
:101BD0007E0ABE016F5F7F4FCE0107960E94640AA6
:101BE000BE01635F7F4FCE0107960E948C09BC0146
:101BF000CE0143960E944D0ACE0107960E94CC0A60
:101C0000CE0101960E94CC0ACE010D960E94CC0A0C
:101C10008B899C890E94541B70939104609390045B
:101C2000CE0143960E94CC0A88CD6901032E000C98
:101C3000EE08FF084AE0429FC001439F900D112427
:101C400002969093910480939004B701A601CE016F
:101C500001960E94F6090D811E81CE0101960E9417
:101C6000CC0A0430110508F4F1CDB701A601CE016C
:101C700043960E94F60962E070E0CE010D960E9444
:101C8000CA094F89588DBE016D5E7F4FCE01019606
:101C90000E947E0ABE016F5F7F4FCE0107960E94B1
:101CA000640ABE01635F7F4FCE0107960E948C09D4
:101CB000BC01CE0143960E944D0ACE0107960E94B8
:101CC000CC0ACE0101960E94CC0ACE010D960E944C
:101CD000CC0A8B899C890E94541B70939104609359
:101CE0009004CE0143960E94CC0AB0CD6901032E28
:101CF000000CEE08FF084AE0429FC001439F900D90
:101D0000112405969093910480939004B701A60145
:101D1000CE0101960E94F6090D811E81CE01019629
:101D20000E94CC0A0430110508F4A8CDB701A60121
:101D3000CE0143960E94F60965E070E0CE010D9653
:101D40000E94CA094F89588DBE016D5E7F4FCE013A
:101D500001960E947E0ABE016F5F7F4FCE010796FB
:101D60000E94640ABE01635F7F4FCE0107960E9406
:101D70008C09BC01CE0143960E944D0ACE01079604
:101D80000E94CC0ACE0101960E94CC0ACE010D968B
:101D90000E94CC0A8B899C890E94541B70939104E9
:101DA00060939004CE0143960E94CC0A67CD6901EE
:101DB000032E000CEE08FF084AE0429FC001439F3B
:101DC000900D112408969093910480939004B7018C
:101DD000A601CE0101960E94F6090D811E81CE0159
:101DE00001960E94CC0A0430110508F45FCDB701BA
:101DF000A601CE0143960E94F60968E070E0CE018C
:101E00000D960E94CA094F89588DBE016D5E7F4FA5
:101E1000CE0101960E947E0ABE016F5F7F4FCE0108
:101E200007960E94640ABE01635F7F4FCE0107964A
:101E30000E948C09BC01CE0143960E944D0ACE013E
:101E400007960E94CC0ACE0101960E94CC0ACE01D0
:101E50000D960E94CC0A8B899C890E94541B70931A
:101E6000910460939004CE0143960E94CC0A1ECD4B
:101E70006901032E000CEE08FF084AE0429FC001F2
:101E8000439F900D112403969093910480939004A6
:101E9000B701A601CE0101960E94F6090D811E81AF
:101EA000CE0101960E94CC0A0430110508F42BCD16
:101EB000B701A601CE0143960E94F60963E070E0E7
:101EC000CE010D960E94CA094F89588DBE016D5EE4
:101ED0007F4FCE0101960E947E0ABE016F5F7F4F49
:101EE000CE0107960E94640ABE01635F7F4FCE0158
:101EF00007960E948C09BC01CE0143960E944D0AB0
:101F0000CE0107960E94CC0ACE0101960E94CC0A0F
:101F1000CE010D960E94CC0A8B899C890E94541B8D
:101F20007093910460939004CE0143960E94CC0A72
:101F3000EACC6901032E000CEE08FF084AE0429F3C
:101F4000C001439F900D11240696909391048093B5
:101F50009004B701A601CE0101960E94F6090D81F9
:101F60001E81CE0101960E94CC0A0430110508F4AE
:101F7000E2CCB701A601CE0143960E94F60966E0C5
:101F800070E0CE010D960E94CA094F89588DBE019E
:101F90006D5E7F4FCE0101960E947E0ABE016F5F8B
:101FA0007F4FCE0107960E94640ABE01635F7F4F98
:101FB000CE0107960E948C09BC01CE0143960E9477
:101FC0004D0ACE0107960E94CC0ACE0101960E94CE
:101FD000CC0ACE010D960E94CC0A8B899C890E9466
:101FE000541B7093910460939004CE0143960E9419
:101FF000CC0AA1CC6901032E000CEE08FF084AE0D0
:10200000429FC001439F900D112409969093910423
:1020100080939004B701A601CE0101960E94F609B3
:102020000D811E81CE0101960E94CC0A043011055B
:1020300008F499CCB701A601CE0143960E94F60997
:1020400069E070E0CE010D960E94CA094F89588D53
:10205000BE016D5E7F4FCE0101960E947E0ABE01D9
:102060006F5F7F4FCE0107960E94640ABE01635FD7
:102070007F4FCE0107960E948C09BC01CE0143968A
:102080000E944D0ACE0107960E94CC0ACE0101960D
:102090000E94CC0ACE010D960E94CC0A8B899C89A5
:1020A0000E94541B7093910460939004CE01439658
:1020B0000E94CC0A58CC1F920F920FB60F92112497
:1020C0000BB60F922F933F934F935F936F937F9332
:1020D0008F939F93AF93BF93EF93FF938AE994E01D
:1020E0000E949702FF91EF91BF91AF919F918F91C5
:1020F0007F916F915F914F913F912F910F900BBE08
:102100000F900FBE0F901F9018951F920F920FB651
:102110000F9211240BB60F922F938F939F93EF93EF
:10212000FF93E091AA04F091AB048081E091B004A8
:10213000F091B10482FD1DC090818091B3048F5F46
:102140008F732091B404821741F0E091B304F0E062
:10215000E656FB4F958F8093B304FF91EF919F91CB
:102160008F912F910F900BBE0F900FBE0F901F906D
:1021700018958081F2CF1F920F920FB60F92112403
:102180000BB60F922F933F934F935F936F937F9371
:102190008F939F93AF93BF93EF93FF9387E395E064
:1021A0000E949702FF91EF91BF91AF919F918F9104
:1021B0007F916F915F914F913F912F910F900BBE47
:1021C0000F900FBE0F901F9018951F920F920FB691
:1021D0000F9211240BB60F922F938F939F93EF932F
:1021E000FF93E0914705F09148058081E0914D050E
:1021F000F0914E0582FD1DC09081809150058F5F4A
:102200008F7320915105821741F0E0915005F0E065
:10221000E95CFA4F958F80935005FF91EF919F9164
:102220008F912F910F900BBE0F900FBE0F901F90AC
:1022300018958081F2CF1F920F920FB60F92112442
:102240002F933F938F939F93AF93BF938091790484
:1022500090917A04A0917B04B0917C043091780431
:1022600023E0230F2D3758F50196A11DB11D2093B2
:1022700078048093790490937A04A0937B04B093BC
:102280007C0480917D0490917E04A0917F04B091A4
:1022900080040196A11DB11D80937D0490937E045E
:1022A000A0937F04B0938004BF91AF919F918F91D1
:1022B0003F912F910F900FBE0F901F90189526E819
:1022C000230F0296A11DB11DD2CF1F920F920FB600
:1022D0000F9211240BB60F922F933F934F935F935E
:1022E0006F937F938F939F93AF93BF93EF93FF93DE
:1022F00048E251E064E271E090E080E00E9417055E
:10230000FF91EF91BF91AF919F918F917F916F91CD
:102310005F914F913F912F910F900BBE0F900FBE89
:102320000F901F9018951F920F920FB60F921124C5
:102330000BB60F922F933F934F935F936F937F93BF
:102340008F939F93AF93BF93EF93FF9348EA50E02F
:1023500064EA70E083E090E00E941705FF91EF913E
:10236000BF91AF919F918F917F916F915F914F91AD
:102370003F912F910F900BBE0F900FBE0F901F90AB
:1023800018951F920F920FB60F9211240BB60F9251
:102390002F933F934F935F936F937F938F939F936D
:1023A000AF93BF93EF93FF9348E950E064E970E087
:1023B00082E090E00E941705FF91EF91BF91AF91ED
:1023C0009F918F917F916F915F914F913F912F914D
:1023D0000F900BBE0F900FBE0F901F9018951F927D
:1023E0000F920FB60F9211240BB60F922F933F93BB
:1023F0004F935F936F937F938F939F93AF93BF930D
:10240000EF93FF9348E850E064E870E081E090E0EB
:102410000E941705FF91EF91BF91AF919F918F910E
:102420007F916F915F914F913F912F910F900BBED4
:102430000F900FBE0F901F9018951F920F920FB61E
:102440000F9211240BB60F922F933F934F935F93EC
:102450006F937F938F939F93AF93BF93EF93FF936C
:10246000E0918304F0918404309749F0A685B78504
:102470008585968D91FF16C09C918923B1F4FF91BB
:10248000EF91BF91AF919F918F917F916F915F91EC
:102490004F913F912F910F900BBE0F900FBE0F9059
:1024A0001F9018959C91892351F7A389B4899C9119
:1024B0008589809589238C93868997890197F1F77F
:1024C000608D718DA685B785558538E020E0CB01FC
:1024D0000197F1F7822F90E095958795282F4C91E1
:1024E000452309F02068315091F7868D81FD2095B4
:1024F0008091820490E001968F7399273091810436
:10250000381799F0A0918204B0E0AC5CBB4F2C93DB
:1025100080938204828D938D0197F1F7A389B4890A
:102520008C919589892B8C93AACF868D8160868F1B
:10253000F1CF1F920F920FB60F9211240BB60F928C
:102540002F933F934F935F936F937F938F939F93BB
:10255000AF93BF93EF93FF938091B900887F80364C
:1025600009F44DC008F040C0883209F4A9C028F52C
:10257000803109F49DC0C8F4882309F4FBC0883079
:1025800009F496C0FF91EF91BF91AF919F918F9108
:102590007F916F915F914F913F912F910F900BBE63
:1025A0000F900FBE0F901F901895883109F488C0C6
:1025B000803241F780930D0414C0803409F49DC02B
:1025C00040F48033B9F38833E9F680930D0485EC49
:1025D000B0C0803509F485C0883509F496C08834C8
:1025E00089F60E94D40ACECF883909F48CC038F518
:1025F000883729F050F4883611F0803719F683E0D7
:1026000080930E0410920C0457C0883809F47BC0E4
:10261000803919F0803809F0B5CF80910C048032F0
:1026200008F071C0E0910C0481E08E0F80930C04DF
:102630008091BB00F0E0E451FC4F80833DC0803BC3
:1026400039F0E0F4803A09F479C0883A09F09ACF79
:1026500084E080930E041092EB031092EA03E09161
:102660008704F091880419958091EA0381110FC0C5
:1026700081E08093EA031092CA0309C0803C09F408
:10268000A6CF883C09F4A3CF883B09F07BCFE0912B
:10269000EB0381E08E0F8093EB03F0E0E653FC4FF9
:1026A00080818093BB009091EB038091EA0329C065
:1026B000809133048093BB0085EC8093BC0062CF93
:1026C0009091320480913104981758F5E0913204CA
:1026D00081E08E0F80933204F0E0EF5EFB4F80814B
:1026E000E9CFE091320481E08E0F80933204809133
:1026F000BB00F0E0EF5EFB4F80839091320480914D
:1027000031049817C8F285E8D8CFE091320481E00F
:102710008E0F809332048091BB00F0E0EF5EFB4FA0
:1027200080838091100481115CCF81E080930F043D
:1027300084EA8093BC0010920E0424CF85EC809331
:10274000BC0010920E0480910C04803230F4E091B1
:102750000C04F0E0E451FC4F108260910C0470E036
:10276000E0918504F09186048CEE93E01995109227
:102770000C0408CF10920D0434CF10929D041092D7
:102780009C0488EE93E0A0E0B0E080939E049093D8
:102790009F04A093A004B093A10424E332E03093FB
:1027A0009B0420939A044DEC50E05093A70440936F
:1027B000A6044CEC50E05093A9044093A80448ECC4
:1027C00050E05093AB044093AA0449EC50E050937E
:1027D000AD044093AC044AEC50E05093AF044093F6
:1027E000AE044EEC50E05093B1044093B00410920C
:1027F000B3041092B4041092B5041092B60410926F
:102800003A051092390580933B0590933C05A093BF
:102810003D05B0933E05309338052093370525ECF0
:1028200030E0309344052093430524EC30E03093AE
:1028300046052093450520EC30E030934805209371
:10284000470521EC30E030934A052093490522ECFE
:1028500030E030934C0520934B0526EC30E030936C
:102860004E0520934D05109250051092510510927F
:102870005205109253051092D7051092D6058093F9
:10288000D8059093D905A093DA05B093DB0586E4CB
:1028900092E09093D5058093D405809170068033A3
:1028A00008F0FEC091E0980F9093700680931D078A
:1028B00090E0FC01EE0FFF1FE80FF91FE052FA4F06
:1028C00088EB9BE09283818386E0ECE7F2E0A7E16E
:1028D000B7E001900D928A95E1F71092FB061092F5
:1028E000FA0688EE93E0A0E0B0E08093FC069093B7
:1028F000FD06A093FE06B093FF068EE692E090934D
:10290000F9068093F80610920F0710920E071092A6
:1029100011071092100710921307109212071092CD
:10292000150710921407609116076E7F6D7F6093F4
:1029300016076695617081E0682783E10E94E603CF
:1029400061E083E10E941804E1E8F2E0E491E093A1
:102950000807EBE3F2E0E491F0E0EE0FFF1FE25F27
:10296000FD4F8591949190930A078093090760E049
:1029700082E10E9418048091160781FD04C061E085
:1029800082E10E94E60382E180930407E0E8F2E03E
:10299000E491E0930507EAE3F2E0E491F0E0EE0F62
:1029A000FF1FEC50FE4F8591949190930707809301
:1029B000060710928B0610928F0610928E061092C8
:1029C000900684E692E090938A0680938906E5EA71
:1029D000F6E081EE96E0108214821382158236961C
:1029E0008E179F07C1F784E092E09093EC068093E6
:1029F000EB0680E092E09093EE068093ED0684E093
:102A00008093EF068093F00688E092E09093EA06C8
:102A10008093E9068AE090E09093F2068093F106B5
:102A200084EF91E09093F4068093F3061092F706FA
:102A30001092F6061092E5061092E6061092E7064E
:102A40001092E8061092F506109274061092730622
:102A500088E592E0909372068093710683E28093FA
:102A600075068FEF8093760682E28093770681E287
:102A70008093780680E2809379068FE180937A06CE
:102A80008EE180937B0610927C0610927D06109258
:102A90007E0610927F061092800681E00C94B107AA
:102AA0008FEF80931D0710CFCF93DF93CDB7DEB7A5
:102AB00068970FB6F894DEBF0FBECDBF789484B58B
:102AC000826084BD84B5816084BD85B5826085BD2A
:102AD00085B5816085BD80916E00816080936E00B8
:102AE00010928100809181008260809381008091AA
:102AF000810081608093810080918000816080935B
:102B000080008091B10084608093B1008091B0001A
:102B100081608093B00080919100826080939100E9
:102B200080919100816080939100809190008160FC
:102B3000809390008091A10082608093A100809199
:102B4000A10081608093A1008091A00081608093AA
:102B5000A000809121018260809321018091210158
:102B60008160809321018091200181608093200108
:102B700080917A00846080937A0080917A008260EC
:102B800080937A0080917A00816080937A008091AE
:102B90007A00806880937A001092C10080911D07AE
:102BA000803308F052C061E08EE00E9418048091EA
:102BB0001D07282F30E0F901EE0FFF1FE20FF31F72
:102BC000E052FA4F9081907C9E60908310921E0795
:102BD00010921F072CE0622F0E94591C829FB001A7
:102BE000112430E020E0AB01420F531FFA01EE0F39
:102BF000FF1FE40FF51FE052FA4F908196FD17C0BA
:102C00002F5F3F4F2C30310571F7813009F0A1C1A2
:102C10001092800082E080938100109285001092D3
:102C20008400B19A80916F00826080936F00E09180
:102C30001D078E2F90E0FC01EE0FFF1FE80FF91F1C
:102C4000E052FA4F80818064808390E080E00E94AF
:102C50008F01109213071092120710921107109211
:102C6000100710920F0710920E078DE991E09093D4
:102C70001507809314078091040796EF980F9430FE
:102C800048F02EEC280F243028F022EC280F2830B2
:102C900008F061C02DEB30E030930F0720930E0752
:102CA0002BE931E030931107209310072CE231E03B
:102CB0003093130720931207943050F02EEC280F16
:102CC000243030F022EC280FF0E0E0E0283010F45F
:102CD000E8E6F0E02081943028F032EC380F38300C
:102CE00008F463C131E0232B943048F09EEC980F38
:102CF000943028F08E53F0E0E0E0883010F4E8E6FD
:102D0000F0E020832091040736EF320F343008F4CE
:102D10004EC18EEC820F843008F449C182EC820FE0
:102D2000883008F047C18DE690E090930C078093BF
:102D30000B07343008F041C12650330B81E001C04D
:102D4000880F2A95EAF780930D07809114079091D8
:102D500015070197F1F78091120790911307892BBE
:102D600049F1E0918304F091840426E0E83FF20702
:102D700009F1309739F0A389B4899C9185898095B0
:102D800089238C93809116078E7F8093160710926B
:102D900082041092810488EF96E0909384048093DB
:102DA0008304E0910B07F0910C07808190910D074F
:102DB000892B8083E091AA04F091AB0482E08083A8
:102DC000E091A604F091A7041082E091A804F0918C
:102DD000A9048FEC80831092B204E091AE04F091CC
:102DE000AF0486E08083E091AC04F091AD04808173
:102DF00080618083E091AC04F091AD0480818860B3
:102E00008083E091AC04F091AD0480818068808380
:102E1000E091AC04F091AD0480818F7D80831092AD
:102E20008C0410928B0410928A04109289040E94E0
:102E3000A60687E192E0909388048093870488E156
:102E400092E090938604809385046FE073E088EFAE
:102E500096E00E94FC0861E08DE20E94180461E0A7
:102E60008EE20E94180461E08FE20E94180460E084
:102E700084E20E94180460E085E20E94180460E089
:102E800086E20E94180460E08DE20E94E60360E0A2
:102E90008EE20E94E60360E08FE20E94E60384E097
:102EA0000E94B10764E173E0CE0101960E946D0AB1
:102EB000BE016F5F7F4F81E090E00E945208CE011B
:102EC00001960E94CC0A62E273E088EF96E00E94CD
:102ED000FC086AE070E080E090E00E947D040E94BF
:102EE000A907812C912C5401839444244A94542C96
:102EF00031E03093F5060E94AF040091E506109191
:102F0000E6062091E7063091E806AB01BC01401BC4
:102F1000510B620B730B8091F1069091F206B0E0B9
:102F2000A0E084179507A607B70708F049C310E08B
:102F30008091EF06181708F055C0E091EB06F0916C
:102F4000EC06E10FF11D62E080810E9418041F5F12
:102F5000EFCF823061F41092900080939100109234
:102F600095001092940088BB8093710060CE8330EE
:102F700069F41092A00082E08093A1001092A50055
:102F80001092A40089BB8093720051CE81114FCE64
:102F90001092200182E0809321011092250110926D
:102FA00024018ABB8093730042CE34E09CCE8BE632
:102FB00090E0BBCE90E080E0B8CE88E0223309F408
:102FC000C2CE84E0233309F4BECE82E0243309F478
:102FD000BACE82EC820F883018F42E53330BAECE6B
:102FE00081E0B1CE312C8091F006381608F064C033
:102FF000032D10E0E091ED06F091EE06E00FF11FD9
:1030000061E080810E941804E091ED06F091EE06E7
:10301000E00FF11F60E080810E94E603D501C4014A
:10302000032C04C0880F991FAA1FBB1F0A94D2F754
:103030003C017C01E094F094212C8091EF0628164D
:1030400020F5C22CD12CE091EB06F091EC06EC0DB2
:10305000FD1D80810E94BA03F6013496892B61F42C
:10306000EE0FFF1FE757F94F80819181862997293D
:10307000918380832394E1CFEE0FFF1FE757F94F31
:10308000808191818E219F21F3CFE091ED06F09117
:10309000EE06E00FF11F61E080810E94E60380915F
:1030A000ED069091EE06080F191F60E0F80180818F
:1030B0000E941804339497CF09E816E07801F701CD
:1030C000878D90A1892B21F4148E568E458E11A2E6
:1030D000F6E0EF0EF11C25ECE21626E0F20679F799
:1030E000712C8091EF06781608F053C0612CC72C24
:1030F000D12CCC0CDD1CC6018F56994F6C01209150
:10310000F006621608F043C0F60160817181062C5A
:1031100002C0769567950A94E2F7729E9001112499
:10312000260D311DE9E8F6E080E0458D568D241727
:10313000350709F49BC28F5F36968A30B1F760FF7E
:1031400024C0E9E8F6E090E080E0448D411118C029
:10315000E091E906F091EA06E20FF31F408156E0A4
:10316000589FF001599FF00D1124E757F94F448FF4
:10317000368F258F10A2178E61E00E94BB0405C018
:10318000019636968A30910501F76394B8CF73940F
:10319000A8CFD12CF80181A18111D82E0A5F1F4F31
:1031A000E016F106B9F70E94AF046093E50670934C
:1031B000E6068093E7069093E806DD2009F400C256
:1031C0008091AA06882309F4FBC18091A8069091FA
:1031D000A906019709F0F4C18091A506809399048E
:1031E0008111F3C180919804882309F4A6C08091CD
:1031F0008D048B3209F0A1C06BE273E088EF96E09A
:103200000E94FC0880911707909118070E94C80837
:1032100067E373E088EF96E00E94FC08809119074D
:1032200090911A070E94C8086FE373E088EF96E058
:103230000E94FC0880911B0790911C070E94C808FF
:103240002091170730911807809192049091930470
:103250002817390709F063C02091190730911A0720
:1032600080918E0490918F042817390709F057C078
:1032700080919704893008F052C06CE473E088EFC5
:1032800096E00E94FC086091970470E090E080E076
:103290004AE00E94820862E872E088EF96E00E94AD
:1032A00073086BE573E088EF96E00E94FC0884EBFE
:1032B00090E00E948F016AE673E0CE0101960E94C1
:1032C0006D0ABE016F5F7F4F90E080E00E94520860
:1032D000CE0101960E94CC0A0E94AF046B0166E702
:1032E00073E088EF96E00E94FC08C6010E94C808BF
:1032F00080911B0790911C07009709F069C1D0923B
:103300001C07C0921B0764E670E080E090E00E941A
:103310007D040E94A90790E080E00E948F01109236
:1033200091041092900410928F0410928E041092C7
:10333000930410929204109298041092970484E9D6
:10334000E82E84E0F82E03E010E0F70110829801E7
:103350002C5D3D4F6901C801855E9D4F3C01C60152
:1033600087529240801791070CF463C19FEFE91ACE
:10337000F90A0D5F1F4F0C30110539F76091950464
:10338000CE0101960E94230A60919404CE01079613
:103390000E94230A65E873E0CE010D960E946D0A33
:1033A000BE01695F7F4FCE010D960E948C0967E8D0
:1033B00073E00E94760969E873E00E947609BE0115
:1033C0006F5F7F4F0E948C09BC01CE0143960E9423
:1033D000640ACE010D960E94CC0ACE0107960E9487
:1033E000CC0ACE0101960E94CC0ABE016D5E7F4FD1
:1033F000CE0101960E94640ABE016F5F7F4F90E08C
:1034000080E00E945208CE0101960E94CC0A609191
:103410009704CE0101960E94230A60919604CE0182
:1034200007960E94230A6DE873E0CE010D960E9474
:103430006D0ABE01695F7F4FCE010D960E948C0917
:1034400067E873E00E94760961E873E00E947609FC
:10345000BE016F5F7F4F0E948C09BC01CE01439675
:103460000E944D0ACE010D960E94CC0ACE0107960D
:103470000E94CC0ACE0101960E94CC0ABE016D5E6C
:103480007F4FCE0101960E94640ABE016F5F7F4F9D
:1034900081E090E00E945208CE0101960E94CC0A81
:1034A0006091920470919304CE0101960E94CA0922
:1034B00061E973E0CE0107960E946D0ABE016F5F5D
:1034C0007F4FCE0107960E948C09BC01CE01439626
:1034D0000E944D0ACE0107960E94CC0ACE010196A9
:1034E0000E94CC0ABE016D5E7F4FCE0101960E9404
:1034F000640ABE016F5F7F4F82E090E00E94520835
:10350000CE0101960E94CC0A6091900470919104C2
:10351000CE0101960E94CA0960918E0470918F04B9
:10352000CE0107960E94CA0968E973E0CE010D96A4
:103530000E946D0ABE01695F7F4FCE010D960E9409
:103540008C0967E873E00E9476096FE973E00E94D6
:103550007609BE016F5F7F4F0E948C09BC01CE01CE
:1035600043960E944D0ACE010D960E94CC0ACE01D0
:1035700007960E94CC0ACE0101960E94CC0ABE0199
:103580006D5E7F4FCE0101960E94640ABE016F5F9F
:103590007F4F83E090E00E945208CE0101960E9486
:1035A000CC0A6AE070E080E090E00E947D040E9416
:1035B000A907CE0143960E94CC0A0E94260398CC0C
:1035C0001092F506109299040DCE0E942B0B0ACE94
:1035D00010921C0710921B07B601681B790BCE01D5
:1035E00007960E94CA096EE773E0CE0101960E9419
:1035F0006D0ABE01695F7F4FCE0101960E948C0962
:10360000BC01CE010D960E94640ABE01635F7F4F2C
:1036100081E090E00E945208CE010D960E94CC0AF3
:10362000CE0101960E94CC0ACE0107960E94CC0AD8
:103630006ACEF60181916F010E94BA03F3012191D4
:103640003F01019771F461E0822F0E94E603F701C8
:1036500080818F5F8083809197048F5F8093970430
:103660007ECE60E0822F0E94E60379CE617085CD28
:103670008EE692E09093F9068093F8068091830499
:1036800090918404885F964071F4E0910B07F0916B
:103690000C07908180910D0780958923808310927B
:1036A00084041092830408951F93FC0199278827AE
:1036B000BC01E89411911032E9F3193010F01E307A
:1036C000C8F31B3251F01D3249F4689406C00E94C1
:1036D000951B610F711D811D911D119110531A30A1
:1036E000B0F33EF490958095709561957F4F8F4F24
:1036F0009F4F1F910895BB274A3031F4992322F43C
:10370000BDE2909581959F4F0C94CD1BBB272A302D
:1037100051F4992342F4BDE290958095709561959E
:103720007F4F8F4F9F4F0C94AB1B592F482F372F34
:10373000262F660F771F881F991F660F771F881F18
:10374000991F620F731F841F951F660F771F881FB5
:10375000991F0895BB27FA01A62F621771058105ED
:103760009105330B30FB66F0AA27660F771F881F81
:10377000991FAA1FA21710F0A21B63953850A9F732
:10378000A05DAA3308F0A95DA19336F7B111B193FA
:103790001082CA010C94E61BBB27FB015527AA2700
:1037A000880F991FAA1FA41710F0A41B83955051CE
:1037B000B9F7A05DAA3308F0A95DA193009779F746
:1037C000B111B1931192CB010C94E61BDC01FC0109
:1037D000672F71917723E1F7329704C07C916D9345
:1037E00070836291AE17BF07C8F30895052E97FB4B
:1037F0001EF400940E940D1C57FD07D00E94281C47
:1038000007FC03D04EF40C940D1C50954095309558
:1038100021953F4F4F4F5F4F08959095809570953C
:1038200061957F4F8F4F9F4F08950E944A1CA59F1F
:10383000900DB49F900DA49F800D911D11240895AB
:10384000B7FF0C94151C0E94151C821B930B089546
:10385000A1E21A2EAA1BBB1BFD010DC0AA1FBB1F94
:10386000EE1FFF1FA217B307E407F50720F0A21B06
:10387000B30BE40BF50B661F771F881F991F1A9473
:1038800069F760957095809590959B01AC01BD019D
:10389000CF010895A29FB001B39FC001A39F700DF7
:1038A000811D1124911DB29F700D811D1124911D48
:1038B0000895991B79E004C0991F961708F0961B8C
:1038C000881F7A95C9F78095089597FB072E16F4FF
:1038D000009407D077FD09D00E94811C07FC05D019
:1038E0003EF4909581959F4F0895709561957F4F17
:1038F0000895EE0FFF1F881F8BBF0790F691E02DF4
:103900001994AA1BBB1B51E107C0AA1FBB1FA61716
:10391000B70710F0A61BB70B881F991F5A95A9F778
:1039200080959095BC01CD0108950F931F93CF937F
:10393000DF938230910510F482E090E0E09122075D
:10394000F091230730E020E0B0E0A0E0309799F458
:103950002115310509F44AC0281B390B24303105E3
:10396000D8F58A819B816115710589F1FB019383EB
:103970008283FE0111C04081518102811381481769
:103980005907E0F04817590799F4109761F012961B
:103990000C93129713961C933296CF01DF91CF911F
:1039A0001F910F9108950093220710932307F4CFDE
:1039B0002115310551F04217530738F0A901DB01F9
:1039C0009A01BD01DF01F801C1CFEF01F9CF90935A
:1039D000230780932207CDCFFE01E20FF31F8193CF
:1039E00091932250310939832883D7CF2091200722
:1039F00030912107232B41F420911A0230911B02B0
:103A0000309321072093200720911802309119024A
:103A10002115310541F42DB73EB740911C0250915C
:103A20001D02241B350BE0912007F0912107E217BE
:103A3000F307A0F42E1B3F0B2817390778F0AC01D1
:103A40004E5F5F4F2417350748F04E0F5F1F5093AE
:103A5000210740932007819391939FCFF0E0E0E00E
:103A60009CCFCF93DF930097E9F0FC01329713824C
:103A70001282A0912207B0912307ED0130E020E0EF
:103A80001097A1F420813181820F931F209120078C
:103A9000309121072817390709F061C0F0932107F9
:103AA000E0932007DF91CF910895EA01CE17DF0759
:103AB000E8F54A815B819E0141155105B1F7E901A5
:103AC000FB83EA8349915991C40FD51FEC17FD0779
:103AD00061F4808191810296840F951FE901998399
:103AE0008883828193819B838A83F0E0E0E0129651
:103AF0008D919C9113970097B9F52D913C91119759
:103B0000CD010296820F931F20912007309121074B
:103B10002817390739F6309751F51092230710927C
:103B20002207B0932107A0932007BCCFD383C28381
:103B300040815181840F951FC817D90761F44E5FEA
:103B40005F4F88819981480F591F518340838A8133
:103B50009B81938382832115310509F0B0CFF093C7
:103B60002307E09322079ECFFD01DC01C0CF138223
:103B70001282D7CF4F925F926F927F928F929F92D5
:103B8000AF92BF92CF92DF92EF92FF920F931F936B
:103B9000CF93DF938C01009799F4CB01DF91CF9104
:103BA0001F910F91FF90EF90DF90CF90BF90AF905B
:103BB0009F908F907F906F905F904F900C94951C8A
:103BC000FC01E60FF71F9C0122503109E217F307B1
:103BD00008F4AEC0D901CD91DC911197C617D70773
:103BE00020F1C530D10578F0CE01049786179707EC
:103BF00050F0C61BD70B2297C193D1936D937C9342
:103C0000CF010E94311DC801DF91CF911F910F910B
:103C1000FF90EF90DF90CF90BF90AF909F908F90EC
:103C20007F906F905F904F9008955B01AC1ABD0A32
:103C30004C018C0E9D1EA0912207B0912307512CA0
:103C4000412CF12CE12C109731F5809120079091B7
:103C500021078815990509F05CC04616570608F03B
:103C600058C08091180290911902009741F48DB7C5
:103C70009EB740911C0250911D02841B950BE817C2
:103C8000F90708F055C0F0932107E0932007F901E8
:103C900071836083B8CF8D919C91119712966C902F
:103CA000129713967C901397A815B90559F56C01D6
:103CB00042E0C40ED11CCA14DB0420F1AC014A1945
:103CC0005B09DA011296159780F062827382518344
:103CD0004083D9016D937C93E114F10471F0D70115
:103CE0001396FC93EE9312978ECF22968C0F9D1F06
:103CF000F90191838083F301EFCFF0932307E093E1
:103D0000220781CF4816590608F42C017D01D30102
:103D10009ACFCB010E94951C7C01009749F0AE011F
:103D2000B8010E949B1EC8010E94311D87016BCF04
:103D300010E000E068CFFB01DC0102C001900D92B1
:103D400041505040D8F70895FB01DC0101900D92DD
:103D50000020E1F7089511E0CBE5D1E000E006C0D6
:103D6000802FFE010E94791C2196011DCC35D107C0
:103D700080E00807A9F7F894FFCF1A1B1C1D16173F
:103D800018193738394434353643313233422A3002
:103D900023410000240780002D2E2F30323334358C
:103DA000362425262728292A2B2C00000000B902BA
:103DB000190246020603770255026902000000005C
:103DC000F806ED060A07E905E606D306C406000074
:103DD00000006D0819020A070907000000005404DA
:103DE0001404E30300000000EA0519020A07E905CC
:103DF00046065E06D1050100010000000D0A0042E2
:103E00007574746F6E2043616E63656C00427574E7
:103E1000746F6E203100427574746F6E20340042EE
:103E20007574746F6E203700427574746F6E203035
:103E300000427574746F6E203200427574746F6E38
:103E4000203500427574746F6E20380042757474AA
:103E50006F6E20457175616C00427574746F6E20D1
:103E60003300427574746F6E203600427574746F3F
:103E70006E2039004164646974696F6E0053756225
:103E80007472616374696F6E007465737400736D2E
:103E9000617274207061726B696E67007374617215
:103EA0007420757000757365726E616D652069733D
:103EB000007061737320697300656E746572546974
:103EC0006D652069730073756D436170616369741A
:103ED0007920697300736572766F206973206D6F46
:103EE00076656400646F6F72206F70656E65640044
:103EF00074696D6520697300636F73743A200041C3
:103F00003A2000623A2000633A2000757365723AE5
:0E3F10002000706173733A2000696E3A200041
:020000040003F7
:10E000000D9489F10D94B2F10D94B2F10D94B2F129
:10E010000D94B2F10D94B2F10D94B2F10D94B2F1F0
:10E020000D94B2F10D94B2F10D94B2F10D94B2F1E0
:10E030000D94B2F10D94B2F10D94B2F10D94B2F1D0
:10E040000D94B2F10D94B2F10D94B2F10D94B2F1C0
:10E050000D94B2F10D94B2F10D94B2F10D94B2F1B0
:10E060000D94B2F10D94B2F10D94B2F10D94B2F1A0
:10E070000D94B2F10D94B2F10D94B2F10D94B2F190
:10E080000D94B2F10D94B2F10D94B2F10D94B2F180
:10E090000D94B2F10D94B2F10D94B2F10D94B2F170
:10E0A0000D94B2F10D94B2F10D94B2F10D94B2F160
:10E0B0000D94B2F10D94B2F10D94B2F10D94B2F150
:10E0C0000D94B2F10D94B2F10D94B2F10D94B2F140
:10E0D0000D94B2F10D94B2F10D94B2F10D94B2F130
:10E0E0000D94B2F141546D656761323536300041AF
:10E0F000726475696E6F206578706C6F72657220DE
:10E1000073746B3530305632206279204D4C530099
:10E11000426F6F746C6F616465723E004875683F52
:10E1200000436F6D70696C6564206F6E203D200048
:10E130004350552054797065202020203D20005FF9
:10E140005F4156525F415243485F5F3D2000415658
:10E1500052204C696243205665723D20004743437C
:10E160002056657273696F6E203D20004350552024
:10E1700049442020202020203D20004C6F7720663D
:10E18000757365202020203D20004869676820665F
:10E190007573652020203D200045787420667573D6
:10E1A00065202020203D20004C6F636B2066757336
:10E1B000652020203D20004D617220203720323024
:10E1C000313300312E362E3800342E332E350056A2
:10E1D00023202020414444522020206F7020636F70
:10E1E00064652020202020696E73747275637469E1
:10E1F0006F6E2061646472202020496E74657272B3
:10E20000757074006E6F20766563746F7200726A49
:10E210006D702020006A6D70200057686174207056
:10E220006F72743A00506F7274206E6F7420737541
:10E2300070706F72746564004D7573742062652030
:10E2400061206C6574746572002000577269747483
:10E25000696E672045450052656164696E672045B7
:10E26000450045452065727220636E743D00504F35
:10E27000525400303D5A65726F2061646472003FF1
:10E280003D43505520737461747300403D454550C3
:10E29000524F4D207465737400423D426C696E6B41
:10E2A000204C454400453D44756D70204545505215
:10E2B0004F4D00463D44756D7020464C415348001B
:10E2C000483D48656C70004C3D4C69737420492F83
:10E2D0004F20506F72747300513D51756974005234
:10E2E0003D44756D702052414D00563D73686F7707
:10E2F00020696E7465727275707420566563746FF0
:10E30000727300593D506F727420626C696E6B00BD
:10E310002A0011241FBECFEFD1E2DEBFCDBF01E046
:10E320000CBF12E0A0E0B2E0EEE1FDEF03E00BBFB6
:10E3300002C007900D92A030B107D9F712E0A0E01B
:10E34000B2E001C01D92AE30B107E1F70F9460F367
:10E350000D948DFE01E20EBF0FEF0DBF11241FBE05
:10E360000D9460F30D9400F020E030E040ED57E0B4
:10E3700005C0FA013197F1F72F5F3F4F2817390792
:10E38000C0F308959C01260F311DC901A0E0B0E043
:10E390002F5F3F4FABBFFC018791882361F08093D3
:10E3A000C6008091C00086FFFCCF8091C0008064D1
:10E3B0008093C000EACF08958DE08093C6008091DD
:10E3C000C00086FFFCCF8091C00080648093C000B5
:10E3D0008AE08093C6008091C00086FFFCCF8091C8
:10E3E000C00080648093C00008950F94C2F10F9420
:10E3F000DCF10895FC019081992359F09093C600B7
:10E400008091C00086FFFCCF8091C0008064809323
:10E41000C0003196992379F70895282F982F929567
:10E420009F70892F805D8A3308F0895F8093C600D2
:10E430008091C00086FFFCCF8091C00080648093F3
:10E44000C000822F8F70982F905D9A3308F0995FEB
:10E450009093C6008091C00086FFFCCF8091C000E1
:10E4600080648093C00008959C01FB01853691056E
:10E470001CF46330710594F0C90164E670E00F94F8
:10E480002EFE605D7F4F6093C6008091C00086FFC6
:10E49000FCCF8091C00080648093C0002B30310598
:10E4A00014F43297B4F0C90164E670E00F942EFEC4
:10E4B0006AE070E00F942EFE605D7F4F6093C600AF
:10E4C0008091C00086FFFCCF8091C0008064809363
:10E4D000C000C9016AE070E00F942EFEC0968093E0
:10E4E000C6008091C00086FFFCCF8091C000806490
:10E4F0008093C00008951F93182F8EE692EE60E07F
:10E500000F94C2F11093C6008091C00086FFFCCF2B
:10E510008091C00080648093C0000F94DCF11F9153
:10E5200008952F923F924F925F926F927F928F92B7
:10E530009F92AF92BF92CF92DF92EF92FF920F9392
:10E540001F93DF93CF93CDB7DEB762970FB6F894E2
:10E55000DEBF0FBECDBF382E622ECA01DB015C01CB
:10E560006D01772420E2222E2E010894411C511CBB
:10E570008BC081E0A81680E0B80681E0C80680E084
:10E58000D80628F0C601AA27BB270F940DF2BB2797
:10E59000AD2D9C2D8B2D0F940DF28A2D0F940DF225
:10E5A0002092C6008091C00086FFFCCF8091C00001
:10E5B00080648093C0009DE29093C6008091C0006B
:10E5C00086FFFCCF8091C00080648093C0002092C1
:10E5D000C6008091C00086FFFCCF8091C00080649F
:10E5E0008093C00019828601750188249924A1E0D6
:10E5F0003A1651F03A1620F0B2E03B1661F409C029
:10E600000BBFF701779007C0C7010F9477FE782EF4
:10E6100002C0F7017080872D0F940DF22092C60082
:10E620008091C00086FFFCCF8091C0008064809301
:10E63000C000872D8052F401EF70F0708F3520F408
:10E64000E40DF51D708204C0E40DF51D8EE280839B
:10E650000894E11CF11C011D111D0894811C911CE2
:10E6600090E18916910409F0C2CF80E190E0A0E02A
:10E67000B0E0A80EB91ECA1EDB1E198AC2010F9493
:10E68000FAF10F94DCF16A94662009F072CF629679
:10E690000FB6F894DEBF0FBECDBFCF91DF911F91B3
:10E6A0000F91FF90EF90DF90CF90BF90AF909F9031
:10E6B0008F907F906F905F904F903F902F90089534
:10E6C0002F923F924F925F926F927F928F929F9282
:10E6D000AF92BF92CF92DF92EF92FF920F931F9370
:10E6E000DF93CF93CDB7DEB7CD53D1400FB6F894BB
:10E6F000DEBF0FBECDBF01E20EBF0FEF0DBF94B75F
:10E70000F894A89514BE80916000886180936000A1
:10E7100010926000789493FF05C0E0910002F091A0
:10E7200001021995279A2F9A8091C00082608093E8
:10E73000C00080E18093C40088E18093C1000000A4
:10E74000EE24FF24870144E0A42EB12CCC24DD2448
:10E7500024C0C5010197F1F70894E11CF11C011DCB
:10E76000111D21E2E2162EE4F20620E0020720E06D
:10E77000120718F031E0C32ED12CC801B70127ECE5
:10E780003BE140E050E00F9441FE611571058105C9
:10E79000910519F485B1805885B98091C00087FD35
:10E7A00003C0C114D104A9F2A6014F5F5F4FC25E3E
:10E7B000DE4F59834883CE51D140C25EDE4F8881FF
:10E7C0009981CE51D140019711F00D9410FEC05D9A
:10E7D000DE4F19821882C053D14060E0C15DDE4F28
:10E7E0001882CF52D14088249924C35DDE4F19820C
:10E7F0001882CD52D140C05EDE4F188219821A8233
:10E800001B82C052D140CE5CDE4F188219821A8220
:10E810001B82C253D140EE24FF2487010BBFF701B6
:10E8200007911691C45CDE4F19830883CC53D14005
:10E830000D940BFEC25EDE4F28813981CE51D1404E
:10E840002130310509F52091C600C25EDE4F1982E4
:10E850001882CE51D14022C02F5F3F4F4F4F5F4FA4
:10E86000213082E138078AE7480780E0580780F0C6
:10E87000C45CDE4FE881F981CC53D140EF5FFF4F9C
:10E8800019F0EE27FF27099420E030E040E050E047
:10E890008091C00087FFE0CF2091C600C35DDE4FAE
:10E8A00048815981CD52D1404F5F5F4FC35DDE4FEC
:10E8B00059834883CD52D140213209F063C64A3092
:10E8C000510508F05FC60894811C911C53E0851621
:10E8D000910409F059C600E010E018C081E280936D
:10E8E000C6008091C00086FFFCCF8091C00080648C
:10E8F0008093C0002F5F3F4F2931310579F70F9486
:10E90000DCF10F5F1F4F0530110519F020E030E0FA
:10E91000E5CF10920A0210920B0210920C02109294
:10E920000D02109206021092070210920802109235
:10E930000902109202021092030210920402109235
:10E9400005028FEE90EE60E00F94F5F180E191EE1C
:10E9500060E00F94C2F18091C00087FFFCCF9091DE
:10E96000C600903608F09F759032B8F09093C600BC
:10E970008091C00086FFFCCF8091C00080648093AE
:10E98000C000A0E2A093C6008091C00086FFFCCF2B
:10E990008091C00080648093C000983409F4D7C18E
:10E9A0009934B8F4923409F459C1933458F490333B
:10E9B00019F1903308F4E3C59F33A1F1903409F0C5
:10E9C000DEC5BDC0953409F470C1963409F0D7C5D1
:10E9D00098C1923509F42BC2933538F49C3409F46C
:10E9E000F5C1913509F0CBC518C2963509F445C279
:10E9F000993509F0C4C567C483E792EE62E00F94CD
:10EA0000F5F110920602109207021092080210927D
:10EA1000090210920A0210920B0210920C0210923C
:10EA20000D0213C18FE792EE62E00F94F5F18FEEC5
:10EA300090EE60E00F94F5F181E291EE60E00F94CA
:10EA4000C2F187EB91EE60E00F94F5F180E391EE77
:10EA500060E00F94C2F184EE90EE60E00F94F5F167
:10EA60008FE391EE60E00F94C2F186E090E061E008
:10EA700070E00F9434F20F94DCF18DE591EE60E0DC
:10EA80000F94C2F189EC91EE60E00F94F5F18EE401
:10EA900091EE60E00F94C2F183EC91EE60E00F9490
:10EAA000F5F18CE691EE60E00F94C2F18EE10F94E7
:10EAB0000DF288E90F940DF281E00F940DF20F949E
:10EAC000DCF18BE791EE60E00F94C2F119E0E0E039
:10EAD000F0E010935700E4918E2F0F940DF20F94F5
:10EAE000DCF18AE891EE60E00F94C2F1E3E0F0E03F
:10EAF00010935700E4918E2F0F940DF20F94DCF1D8
:10EB000089E991EE60E00F94C2F1E2E0F0E0109349
:10EB10005700E4918E2F0F940DF20F94DCF188EAE8
:10EB200091EE60E00F94C2F1E1E0F0E01093570045
:10EB30001491812F0F940DF20F94DCF107CF8BE825
:10EB400092EE62E00F94F5F18BE492EE60E00F94A8
:10EB5000F5F10F94DCF100E010E019C0C8016F2D51
:10EB60000F947FFEFF2031F489E492EE60E00F9471
:10EB7000C2F10BC0F092C6008091C00086FFFCCFAE
:10EB80008091C00080648093C0000F5F1F4FC80158
:10EB900081519F41A0E0B0E0ABBFFC01F790BAE229
:10EBA000FB1621F0E2E000301E07C1F60F94DCF105
:10EBB0000F94DCF187E592EE60E00F94F5F10F948D
:10EBC000DCF1CC24DD2400E010E01EC0C8010F946D
:10EBD00077FEF82E882331F489E492EE60E00F94FA
:10EBE000C2F10BC08093C6008091C00086FFFCCFAD
:10EBF0008091C00080648093C000FE1419F00894D6
:10EC0000C11CD11C0F5F1F4FC80181519F41A0E063
:10EC1000B0E0ABBFFC01E790FAE2EF1621F022E092
:10EC20000030120799F60F94DCF10F94DCF182E6C4
:10EC300092EE60E00F94C2F1C60161E070E00F94C3
:10EC400034F20F94DCF10F94DCF110920202109276
:10EC50000302109204021092050278CE89E992EE26
:10EC600062E00F94F5F1279A2F9A16C02F9880E052
:10EC700090E0E0EDF7E03197F1F7019684369105E9
:10EC8000C1F72F9A80E090E0E0EDF7E03197F1F7DF
:10EC9000019684369105C1F78091C00087FFE6CFC9
:10ECA0008091C00087FFFCCF64C485EA92EE62E0E9
:10ECB0000F94F5F140910202509103026091040219
:10ECC0007091050281E020E10F9491F2809102029F
:10ECD00090910302A0910402B091050280509F4FD1
:10ECE000AF4FBF4F8093020290930302A0930402A0
:10ECF000B093050280509041A040B04008F426CE69
:10ED0000A4CF83EB92EE62E00F94F5F140910602FE
:10ED100050910702609108027091090280E020E1A1
:10ED20000F9491F28091060290910702A09108023F
:10ED3000B091090280509F4FAF4FBF4F80930602A2
:10ED400090930702A0930802B0930902FFCD80ECD4
:10ED500092EE62E00F94F5F183E792EE60E00F949B
:10ED6000F5F18FE792EE60E00F94F5F18BE892EE0B
:10ED700060E00F94F5F189E992EE60E00F94F5F10F
:10ED800085EA92EE60E00F94F5F183EB92EE60E09D
:10ED90000F94F5F180EC92EE60E00F94F5F187ECC2
:10EDA00092EE60E00F94F5F188ED92EE60E00F9442
:10EDB000F5F18FED92EE60E00F94F5F18AEE92EEB0
:10EDC00060E00F94F5F183E093EEBDCD87EC92EE19
:10EDD00062E00F94F5F181E40F947BF282E40F94EA
:10EDE0007BF283E40F947BF284E40F947BF285E45E
:10EDF0000F947BF286E40F947BF287E40F947BF20E
:10EE000088E40F947BF28AE40F947BF28BE40F94F6
:10EE10007BF28CE40F947BF299CD88ED92EE62E068
:10EE20000F94F5F1772473948824992409C48FED05
:10EE300092EE62E00F94F5F140910A0250910B02BC
:10EE400060910C0270910D0282E020E10F9491F22A
:10EE500080910A0290910B02A0910C02B0910D02D8
:10EE600080509F4FAF4FBF4F80930A0290930B0289
:10EE7000A0930C02B0930D0269CD8AEE92EE62E08F
:10EE80000F94F5F184EE90EE60E00F94F5F18FECC5
:10EE900091EE60E00F94F5F1662477244301CC5D98
:10EEA000DE4F19821882C452D140D401C301B695F5
:10EEB000A79597958795CA5DDE4F88839983AA8326
:10EEC000BB83C652D140CC5DDE4FA881B981C4520C
:10EED000D1401196CC5DDE4FB983A883C452D14096
:10EEE000CD0162E070E00F9434F2B0E2B093C6005E
:10EEF0008091C00086FFFCCF8091C0008064809329
:10EF0000C000EDE2E093C6008091C00086FFFCCF18
:10EF10008091C00080648093C000F0E2F093C6004E
:10EF20008091C00086FFFCCF8091C00080648093F8
:10EF3000C000CA5DDE4FE880F9800A811B81C6529D
:10EF4000D140BB27A12F902F8F2D0F940DF2CA5DBA
:10EF5000DE4F8881C652D1400F940DF2B0E2FB2EF5
:10EF6000F092C6008091C00086FFFCCF8091C00067
:10EF700080648093C0000DE30093C6008091C000C0
:10EF800086FFFCCF8091C00080648093C00010E2B7
:10EF90001093C6008091C00086FFFCCF8091C00016
:10EFA00080648093C0008BBEF3012791C65DDE4F65
:10EFB0002883CA52D140A22EBB24CC24DD2408943D
:10EFC000611C711C811C911C8BBEF3018791282E42
:10EFD0003324442455240894611C711C811C911C09
:10EFE0008BBEF3013791C55DDE4F3883CB52D140E4
:10EFF0000894611C711C811C911C8BBEF30147910C
:10F00000C45DDE4F4883CC52D140ADEFEA2EAFEF66
:10F01000FA2EAFEF0A2FAFEF1A2F6E0C7F1C801E57
:10F02000911E142D032DF22CEE24EA0CFB1C0C1D5A
:10F030001D1D0F940DF220E22093C6008091C000A8
:10F0400086FFFCCF8091C00080648093C000C65DC5
:10F05000DE4F8881CA52D1400F940DF230E23093D6
:10F06000C6008091C00086FFFCCF8091C000806404
:10F070008093C000C45DDE4F8881CC52D1400F9494
:10F080000DF240E24093C6008091C00086FFFCCFA5
:10F090008091C00080648093C000C55DDE4F888190
:10F0A000CB52D1400F940DF250E25093C6008091A4
:10F0B000C00086FFFCCF8091C00080648093C000B8
:10F0C0008FEFE8168FEFF80680E0080780E018075A
:10F0D00031F484E092EE60E00F94C2F1DFC0D80119
:10F0E000C7018070907CA070B0708050904CA040A0
:10F0F000B040D1F52FEF3FE340E050E0E222F322B1
:10F1000004231523CA5DDE4FA880B980CA80DB8046
:10F11000C652D140AE0CBF1CC01ED11EAA0CBB1CD7
:10F12000CC1CDD1C8EE092EE60E00F94C2F1BB2798
:10F13000A12F902F8F2D0F940DF28E2D0F940DF285
:10F1400030E23093C6008091C00086FFFCCF8091F2
:10F15000C00080648093C0004EE34093C60080915D
:10F16000C00086FFFCCF87C08EE09EEFA0E0B0E03D
:10F17000E822F9220A231B239CE0E91694E9F90608
:10F1800090E0090790E0190709F088C0C45DDE4FE0
:10F19000A881CC52D140EA2EFF2400E010E0102FCD
:10F1A0000F2DFE2CEE24C55DDE4FB881CB52D14031
:10F1B000EB0EF11C011D111DD601C501817090706F
:10F1C000A070B070DC0199278827E80EF91E0A1F8D
:10F1D0001B1F20EF30E040E050E0A222B322C42207
:10F1E000D52241E1AA0CBB1CCC1CDD1C4A95D1F7F1
:10F1F000EA0CFB1C0C1D1D1D81E090E0A0E0B0E0BE
:10F20000282239224A225B2235E1220C331C441C7D
:10F21000551C3A95D1F7E20CF31C041D151D57013E
:10F220006801AA0CBB1CCC1CDD1C85E192EE60E0E1
:10F230000F94C2F1C801AA27BB270F940DF2BB2778
:10F24000A12F902F8F2D0F940DF28E2D0F940DF274
:10F2500090E29093C6008091C00086FFFCCF809121
:10F26000C00080648093C000AEE3A093C60080918C
:10F27000C00086FFFCCF8091C00080648093C000F6
:10F28000C601AA27BB270F940DF2BB27AD2D9C2DDD
:10F290008B2D0F940DF28A2D0F940DF20F94DCF14B
:10F2A000CC5DDE4FE881F981C452D140F99709F471
:10F2B0004DCBF4E0EF2EF12C012D112D6E0C7F1CA7
:10F2C000801E911EF2CD83E093EE62E00F94F5F183
:10F2D0008AE192EE60E00F94C2F18091C00087FF56
:10F2E000FCCF1091C6001F751093C6008091C0001E
:10F2F00086FFFCCF8091C00080648093C0000F9493
:10F30000DCF1812F81548A3108F036C1163409F4BA
:10F3100095C0173490F4133409F44EC0143430F40B
:10F320001134F1F0123409F01DC130C0143409F465
:10F3300059C0153409F016C16BC01A3409F4C4C0A1
:10F340001B3438F4173409F48FC0183409F00AC19B
:10F35000A1C01B3409F4D2C01C3409F003C1E8C0B9
:10F360008FEF81B90DC082B1809582B980E090E0C5
:10F37000E0EDF7E03197F1F70196883C9105C1F790
:10F380008091C00087FFEFCF12B8EFC08FEF84B934
:10F390000DC085B1809585B980E090E0E0EDF7E0A3
:10F3A0003197F1F70196883C9105C1F78091C00033
:10F3B00087FFEFCF15B8D9C08FEF87B90DC088B1DF
:10F3C000809588B980E090E0E0EDF7E03197F1F7C3
:10F3D0000196883C9105C1F78091C00087FFEFCF6F
:10F3E00018B8C3C08FEF8AB90DC08BB180958BB9A7
:10F3F00080E090E0E0EDF7E03197F1F70196883C8E
:10F400009105C1F78091C00087FFEFCF1BB8ADC059
:10F410008FEF8DB90DC08EB180958EB980E090E0F0
:10F42000E0EDF7E03197F1F70196883C9105C1F7DF
:10F430008091C00087FFEFCF1EB897C08FEF80BBD1
:10F440000DC081B3809581BB80E090E0E0EDF7E0F6
:10F450003197F1F70196883C9105C1F78091C00082
:10F4600087FFEFCF11BA81C08FEF83BB0DC084B38C
:10F47000809584BB80E090E0E0EDF7E03197F1F714
:10F480000196883C9105C1F78091C00087FFEFCFBE
:10F4900014BA6BC08FEF809301010FC080910201FD
:10F4A00080958093020180E090E0E0EDF7E03197F5
:10F4B000F1F70196883C9105C1F78091C00087FF64
:10F4C000EDCF1092020151C08FEF809304010FC065
:10F4D0008091050180958093050180E090E0E0ED4A
:10F4E000F7E03197F1F70196883C9105C1F78091DB
:10F4F000C00087FFEDCF1092050137C08FEF8093DA
:10F5000007010FC08091080180958093080180E079
:10F5100090E0E0EDF7E03197F1F70196883C910536
:10F52000C1F78091C00087FFEDCF109208011DC088
:10F530008FEF80930A010FC080910B01809580931B
:10F540000B0180E090E0E0EDF7E03197F1F70196F4
:10F55000883C9105C1F78091C00087FFEDCF1092E4
:10F560000B0103C085E292EEEEC98091C00087FFD7
:10F57000FCCF8091C600EAC988E392EEE4C98CE131
:10F5800091EEE1C988249924933011F1943028F444
:10F59000913089F09230B8F408C0953061F195301F
:10F5A000F0F0963009F048C043C02B3109F042C951
:10F5B00091E06BE13FC96227C15DDE4F2883CF52E6
:10F5C000D14092E037C9B22FA0E0622793E032C960
:10F5D000822F90E0A82BB92B622794E02BC92E3004
:10F5E00009F039C3622795E0C05DDE4F19821882A9
:10F5F000C053D1401FC9E1E0F0E0EC0FFD1FC05D3A
:10F60000DE4F08811981C053D140E00FF11F2083E4
:10F610000F5F1F4FC05DDE4F19830883C053D14079
:10F6200062270A171B0709F005C9D80196E002C92D
:10F63000261709F010C303C0973009F0FBC87724E0
:10F640009981933109F412C19431C8F4963009F4C8
:10F65000D8C0973050F4923009F406C1933009F4C1
:10F660006DC0913009F059C253C0913109F477C08F
:10F67000923108F0BBC0903109F04FC2F5C098310B
:10F6800009F487C0993150F4953109F4EFC09531F0
:10F6900008F4C6C1963109F040C2C2C19A3109F4DA
:10F6A0006CC09A3108F491C09B3109F45BC09D3164
:10F6B00009F033C29D81903359F48F81882311F46E
:10F6C0009EE11CC0813011F091E018C098E916C08D
:10F6D000892F807591F0903539F4E0E0F0E089E011
:10F6E0008093570094910AC0983539F4E3E0F0E034
:10F6F00089E080935700949101C090E01A821B82A8
:10F700008D818C831D829E831F8227E030E009C299
:10F710001A8288E08B8381E48C8386E58D8382E581
:10F720008E8389E48F8383E5888780E589878FE5E9
:10F730008A8782E38B872BE030E0F3C18A818139AD
:10F7400041F0823941F0803911F48FE005C080E04A
:10F7500003C082E001C08AE01A828B8344C0772410
:10F76000739482C08D81882311F48EE12CC0813086
:10F7700011F081E028C088E926C01A82E1E0F0E0BB
:10F7800089E08093570084918B831C8224E030E0D1
:10F79000C8C18B81803589F48C81883039F4E2E0EE
:10F7A000F0E089E08093570084910DC0E0E0F0E044
:10F7B00089E080935700849106C0E3E0F0E089E09F
:10F7C0008093570084911A82DFCF8D81836C99E0FA
:10F7D000E1E0F0E0082E90935700E89507B600FCB2
:10F7E000FDCF1A821B8223E030E09BC180EC8A832C
:10F7F000CE5CDE4F188219821A821B82C253D1401E
:10F800008EC18A8190E0A0E0B0E0582F44273327D2
:10F8100022278B8190E0A0E0B0E0DC0199278827C7
:10F82000282B392B4A2B5B2B8D8190E0A0E0B0E098
:10F83000282B392B4A2B5B2B8C8190E0A0E0B0E089
:10F84000BA2FA92F982F8827282B392B4A2B5B2BCF
:10F85000220F331F441F551FC05EDE4F288339839C
:10F860004A835B83C052D1401A8259C13A81C95C34
:10F87000DE4F3883C753D140CA5CDE4F1882C6536F
:10F88000D1408B81C82EDD24CA5CDE4F488159816E
:10F89000C653D140C42AD52A933109F082C0CE5C28
:10F8A000DE4F88819981AA81BB81C253D1408050AB
:10F8B000904CA340B04030F583E0CE5CDE4FE88052
:10F8C000F9800A811B81C253D140F70100935B008C
:10F8D00080935700E89507B600FCFDCFCE5CDE4F65
:10F8E000088119812A813B81C253D14000501F4FAA
:10F8F0002F4F3F4FCE5CDE4F088319832A833B8313
:10F90000C253D140C05EDE4F488159816A817B81FC
:10F91000C052D140DE011B9631E08C9111962C91A2
:10F9200011971296C75CDE4F2883C953D140C85C3B
:10F93000DE4F1882C853D14090E0C85CDE4FE881AA
:10F94000F981C853D1408E2B9F2B0C01FA01609393
:10F950005B0030935700E89511244E5F5F4F6F4F67
:10F960007F4F0EEFE02E0FEFF02ECE0CDF1CC114F8
:10F97000D10499F685E0C05EDE4F088119812A81A5
:10F980003B81C052D140F80120935B008093570027
:10F99000E89507B600FCFDCF81E180935700E8951C
:10F9A00035C0C05EDE4F88819981AA81BB81C0527B
:10F9B000D140B695A795979587957C018601ABE0D8
:10F9C000AA2EB12CAC0EBD1E0BC0D5016D915D01F0
:10F9D000C7010F947FFE0894E11CF11C01501040F8
:10F9E0000115110591F7A60160E070E0440F551F65
:10F9F000661F771FC05EDE4FE880F9800A811B8199
:10FA0000C052D1404E0D5F1D601F711F1A82C05E33
:10FA1000DE4F488359836A837B83C052D1407FC0C5
:10FA2000FA80C55CDE4FF882CB53D140C65CDE4F16
:10FA30001882CA53D1408B81C82EDD24C65CDE4FAC
:10FA400008811981CA53D140C02AD12A1A828981DA
:10FA5000BE016D5F7F4F843121F59601C05EDE4FA0
:10FA6000E880F9800A811B81C052D1400BBFF701A9
:10FA700087919691DB018C9311969C936E5F7F4FDB
:10FA8000D801C7010296A11DB11DC05EDE4F88835B
:10FA90009983AA83BB83C052D14022503040F1F6F3
:10FAA00036C0C05EDE4F288139814A815B81C052F9
:10FAB000D1400894C108D108760100E010E0089414
:10FAC000C11CD11C0894E11CF11C011D111DE20E8A
:10FAD000F31E041F151F21BDBB27A52F942F832FB5
:10FAE00082BD2F5F3F4F4F4F5F4FF89A80B5DB01CC
:10FAF0008D93BD012E153F054007510761F7C05E8C
:10FB0000DE4F288339834A835B83C052D1409601FC
:10FB10002D5F3F4FFB01108204C080EC8A8322E0FE
:10FB200030E08BE18093C6008091C00086FFFCCF5F
:10FB30008091C00080648093C000C15DDE4FF88179
:10FB4000CF52D140F093C6008091C00086FFFCCF19
:10FB50008091C00080648093C000432F3093C60022
:10FB60008091C00086FFFCCF8091C00080648093AC
:10FB7000C000922F2093C6008091C00086FFFCCF6A
:10FB80008091C00080648093C0008EE08093C600A6
:10FB90008091C00086FFFCCF8091C000806480937C
:10FBA000C00065E1C15DDE4FE880CF52D1406E25D7
