:020000040000FA
:100000000C945C010C948D010C948D010C948D0169
:100010000C948D010C948D010C948D010C948D0128
:100020000C948D010C94AE110C94AE110C94AE1185
:100030000C948D010C948D010C948D010C948D0108
:100040000C948D010C9480110C948D010C948D01F5
:100050000C948D010C948D010C948D010C94AC10BA
:100060000C948D010C948D010C948D010C948D01D8
:100070000C948D010C948D010C948D010C948D01C8
:100080000C9452110C948D010C948D010C948D01E3
:100090000C9476100C944C100C948D010C942A1234
:1000A0000C948D010C948D010C9424110C948D01F1
:1000B0000C948D010C948D010C948D010C94F61010
:1000C0000C948D010C948D010C948D010C948D0178
:1000D0000C948D010C948D010C948D010C948D0168
:1000E0000C948D010C9469020C944E040C94E70658
:1000F0000C9404070C9455020C9480030C94B003E8
:100100000C9417020C94A6030C94E0060C94AF0216
:100110000C94F2060C9494030C9477020C94400611
:100120000C946B030C9467080C94E4050C94DD03A9
:100130000C9486030C947D030C9419020C94AC036C
:100140000C944E130C948A030C94FC020C94AB0395
:100150000C9490030C9458060C9475030C940E04A4
:100160000C94851A0C9498030C9418020C94E305D3
:100170000C94BE060C94CB050C9446020C947903A7
:100180000C94CD060C9471030C9403070C94A203F9
:100190000C949E0300002100240027002A002D005B
:1001A0003000330001010000040107010A010000D2
:1001B0000A0B02090C0D0E080703040100000000E1
:1001C000000000000000000000000000000000002F
:1001D00000000000000000000000121110000000EC
:1001E000000000000000000000000000000000000F
:1001F00000000000000020002300260029002C0041
:100200002F00320000010000030106010901000077
:100210002200250028002B002E00310034000201AE
:100220000000050108010B01050505050705080883
:100230000808020202020A0A080804040404010170
:100240000101010101010303030303030303040785
:1002500007070C0C0C0C0C0C0C0C0202020206061C
:100260000606060606060B0B0B0B0B0B0B0B01020F
:1002700010202008081020401020408002010201B8
:100280000804020101020408102040808040201070
:1002900008040201800402018040201008040201C9
:1002A0000804020101020408102040800102040831
:1002B000102040804E13851A11241FBECFEFD1E2CB
:1002C000DEBFCDBF00E00CBF13E0A0E0B2E0E4E190
:1002D000FCE300E00BBF02C007900D92AC38B10701
:1002E000D9F726E0ACE8B3E001C01D92AF36B20703
:1002F000E1F711E0CBE5D1E000E006C0219701096C
:10030000802FFE010E94C61BCA35D10780E0080776
:10031000A9F70E94A9140C94F81D0C9400008F9268
:100320009F92AF92BF92FF920F931F93CF93DF9351
:10033000F09068062FE22F1508F44CC020916A0651
:1003400008E512E0021B110927FD1395000F111F8C
:10035000000F111F20916906C8E8D0E0C21BD10927
:1003600027FDD395CC0FDD1FCC0FDD1F4E010D2EC9
:10037000000CAA08BB089801012E000C440B550B79
:10038000281939094A095B09DC010E946D1B24EB1D
:1003900030E040E050E00E94431B820E931EA41EFA
:1003A000B51E8C169D062CF0E801801691060CF403
:1003B000E4012297CC0FDD1F2FB7F8948F2D90E02A
:1003C000FC01EE0FFF1FE80FF91FE55DFA4FD28326
:1003D000C1832FBFDF91CF911F910F91FF90BF90ED
:1003E000AF909F908F90089596E0899FD00111243F
:1003F000AC52BA4F90967C936E935F9791E0919632
:100400009C939197E0914106F091420690914006AD
:10041000992339F0309751F0811108C08091F0058F
:100420001994309719F05C968C91FACF089508953D
:100430000895AF92BF92CF92DF92EF92FF920F9307
:100440001F93CF93DF936C017B018B01040F151F6A
:10045000EB015E01AE18BF08C017D10759F06991D2
:10046000D601ED91FC910190F081E02DC601199526
:10047000892B79F7C501DF91CF911F910F91FF90E3
:10048000EF90DF90CF90BF90AF900895FC01538D17
:10049000448D252F30E0842F90E0821B930B54175E
:1004A00010F0CF96089501970895FC01918D828DEB
:1004B000981761F0A28DAE0FBF2FB11D5D968C9184
:1004C000928D9F5F9F73928F90E008958FEF9FEFC3
:1004D0000895FC01918D828D981731F0828DE80F7F
:1004E000F11D858D90E008958FEF9FEF0895FC0139
:1004F000918D228D892F90E0805C9F4F821B910906
:100500008F739927089582E894E00E94770221E092
:10051000892B09F420E0822F0895FC01A48DA80FF7
:10052000B92FB11DA35ABF4F2C91848D90E0019635
:100530008F739927848FA689B7892C93A089B18955
:100540008C91837080648C93938D848D981306C0F6
:100550000288F389E02D80818F7D80830895EF925A
:10056000FF920F931F93CF93DF93EC0181E0888F6D
:100570009B8D8C8D98131AC0E889F989808185FF3D
:1005800015C09FB7F894EE89FF896083E889F989DF
:1005900080818370806480839FBF81E090E0DF91E1
:1005A000CF911F910F91FF90EF900895F62E0B8D34
:1005B00010E00F5F1F4F0F731127E02E8C8D8E11EF
:1005C0000CC00FB607FCFACFE889F989808185FF56
:1005D000F5CFCE010E948D02F1CFEB8DEC0FFD2FF8
:1005E000F11DE35AFF4FF0829FB7F8940B8FEA8911
:1005F000FB8980818062CFCFCF93DF93EC01888D20
:100600008823B9F0AA89BB89E889F9898C9185FD8D
:1006100003C0808186FD0DC00FB607FCF7CF8C911B
:1006200085FFF2CF808185FFEDCFCE010E948D0244
:10063000E9CFDF91CF91089580E090E0892B49F0D8
:1006400080E090E0892B29F00E94000081110E9437
:10065000000080E090E0892B29F00E948302811144
:100660000E94000080E090E0892B49F080E090E05B
:10067000892B29F00E94000081110E94000080E077
:1006800090E0892B49F080E090E0892B29F00E94CE
:10069000000081110C94000008958150823108F00F
:1006A0005AC0E82FF0E08827E75AFC4F8F4F0C9490
:1006B000C61B79037D036B0371037503AB038003D2
:1006C00086038A039003940398039E03A203AB035B
:1006D000A603AC03B003809180008F7780938000E5
:1006E0000895809180008F7DF9CF80918000877F71
:1006F000F5CF84B58F7784BD089584B58F7DFBCF0A
:100700008091B0008F778093B00008958091B00001
:100710008F7DF9CF809190008F778093900008951E
:10072000809190008F7DF9CF80919000877FF5CFE9
:100730008091A0008F778093A00008958091A00001
:100740008F7DF9CF8091A000877FF5CF8091200128
:100750008F77809320010895809120018F7DF9CFBC
:1007600080912001877FF5CFCF93DF93282F30E052
:10077000F901E255FE4F8491F901E259FD4FD49100
:10078000F901E85DFD4FC491CC23A1F081110E94D5
:100790004D03EC2FF0E0EE0FFF1FEC50FE4FA59144
:1007A000B491EC91ED2381E090E009F480E0DF91D9
:1007B000CF91089580E090E0FACF862F0C94B40397
:1007C0001F93CF93DF93282F30E0F901E255FE4FBE
:1007D0008491F901E259FD4FD491F901E85DFD4F93
:1007E000C491CC23A9F0162F81110E944D03EC2F48
:1007F000F0E0EE0FFF1FE25FFD4FA591B4918FB7C0
:10080000F894EC91111108C0D095DE23DC938FBFD2
:10081000DF91CF911F910895DE2BF8CF862F642FA3
:100820000C94E003CF93DF9390E0FC01E259FD4F7D
:100830002491885D9D4FFC0184918823C9F090E04C
:10084000880F991FFC01EC56FE4FA591B491FC0155
:10085000E25FFD4FC591D49161110DC09FB7F8942F
:100860008C91209582238C938881282328839FBF95
:10087000DF91CF910895623051F49FB7F8943C9185
:10088000822F809583238C93E8812E2BEFCF8FB717
:10089000F894EC912E2B2C938FBFEACF862F642FE8
:1008A0000C9412043FB7F89480916504909166040B
:1008B000A0916704B091680426B5A89B05C02F3F9E
:1008C00019F00196A11DB11D3FBFBA2FA92F982F76
:1008D0008827BC01CD01620F711D811D911D42E071
:1008E000660F771F881F991F4A95D1F708958F9239
:1008F0009F92AF92BF92CF92DF92EF92FF924B0105
:100900005C010E9452046B017C010E9452046C192C
:100910007D098E099F09683E734081059105A8F302
:1009200021E0821A9108A108B10888EEC80E83E080
:10093000D81EE11CF11C81149104A104B10429F713
:10094000FF90EF90DF90CF90BF90AF909F908F90EF
:1009500008952FB7F89460916104709162048091BA
:100960006304909164042FBF08950F931F93CF9356
:10097000DF93C82FD62F86E0C89FF0011124EC52D8
:10098000FA4F11A2878D90A181309105F1F058F0B6
:1009900082309105F1F1039709F440C0DF91CF91C6
:1009A0001F910F9108956623C9F361E070E08C2FC9
:1009B0000E94F4010E94A90460932C0670932D06F6
:1009C00080932E0690932F06E9CF0E94A9040091F0
:1009D0002C0610912D0620912E0630912F06AB018A
:1009E000BC01401B510B620B730B80913E06909132
:1009F0003F06B0E0A0E084179507A607B70748F4C4
:100A000062E070E08C2FDF91CF911F910F910C94D9
:100A1000F40163E070E0D111C1CFF4CF70E060E089
:100A2000F1CFAF92BF92CF92DF92EF92FF920F93EE
:100A30001F93CF93DF936B017A01EC01C45ADB4F14
:100A400028813CE0389F8001399F100D1124A0902F
:100A5000BB05B12C27FF1FC0FB01118210828881CA
:100A60008F5F888388819801280F311D87FD3A9513
:100A7000F6012A153B051CF488818C30C4F1808175
:100A80009181049680349C4908F473C0F6018081FA
:100A90009181049670C088819801280F311D87FDCF
:100AA0003A952A153B05DCF68881A801480F511DAF
:100AB00087FD5A95FA01EE0FFF1FE40FF51FE55D64
:100AC000FA4F808186FFCBCF8881F801E80FF11DB6
:100AD00087FDFA95CF01EE0FFF1FE80FF91FE55DC7
:100AE000FA4F808160E08F730E94E003B8CF80816D
:100AF00091812881A801420F511D27FD5A959A0125
:100B0000FA01EE0FFF1FE20FF31FE55DFA4F21819F
:100B10003281820F931FF70191838083888198012E
:100B2000280F311D87FD3A95F901EE0FFF1FE20FE7
:100B3000F31FE55DFA4F808186FF22C08881080F90
:100B4000111D87FD1A95F801EE0FFF1FE00FF11F31
:100B5000E55DFA4F808161E08F73DF91CF911F9146
:100B60000F91FF90EF90DF90CF90BF90AF900C94DB
:100B7000E00380E49CE9F701918380838FEF888311
:100B8000DF91CF911F910F91FF90EF90DF90CF9069
:100B9000BF90AF90089520916B0430916C0428179A
:100BA000390771F49091690480916A04981741F0B3
:100BB000E0916904F0E0E45EFB4F808190E00895ED
:100BC0008FEF9FEF08950895EF92FF920F931F9379
:100BD000CF93DF93DC015C96ED90FC905D97E11480
:100BE000F10479F481E090E013969C938E93129730
:100BF00090E080E0DF91CF911F910F91FF90EF90F7
:100C000008955196ED91FC91529750968C91509782
:100C1000982F90950FB75E962C915E97122F1270B9
:100C200021FD6095F8942081112319F1282B208350
:100C3000E7012197F1F728E0462F50E0308160FF6F
:100C40001AC0382B3083E7012197F1F7BA01759567
:100C50006795215089F7112381F080818923808352
:100C60000FBF5C968D919C910197F1F781E090E028
:100C7000C1CF2923DCCF3923E5CF9081892BEFCF5A
:100C800020916B0430916C042817390771F480911E
:100C90006A042091690490E0805C9F4F821B910957
:100CA00060E470E00E94B21B089590E080E0089537
:100CB00020916B0430916C0428173907B9F4909196
:100CC000690480916A04981789F0E0916904F0E062
:100CD000E45EFB4F80812091690430E02F5F3F4F3D
:100CE0002F7333272093690490E008958FEF9FEFCF
:100CF00008952091D203260F3327331F2132310567
:100D0000ECF42091F603FC0190E080E0243069F0DF
:100D100082E00895A091D2032191AC014E545C4F22
:100D2000A40FB52FB11D2C930196861798F38091CF
:100D3000D203680F6093D20380E0089581E00895A4
:100D40001092F60381E08093F8031092F70361E0BC
:100D500084E10E94E00361E085E10E94E003E9EBA9
:100D6000F0E080818E7F808380818D7F808388E426
:100D70008093B80085E48093BC000895E0917404EA
:100D800080917304E81730F4F0E0E457FC4F808161
:100D900090E008958FEF9FEF0895909174048091F3
:100DA00073042FEF3FEF981748F4E92FF0E0E45772
:100DB000FC4F208130E09F5F90937404C901089537
:100DC0008091730490917404891B990B0895CF93BB
:100DD000DF93CB01EA01642F0E947906CE01DF91F7
:100DE000CF910895CF93DF931F92CDB7DEB769837C
:100DF00061E0CE0101960E94790681E090E00F90BB
:100E0000DF91CF910895089590E080E00895CF9309
:100E1000DF93EC0160E08E810E94E00361E08E814F
:100E20000E94E00360E08E810E94E0038BE891E085
:100E30000197F1F7DF91CF910895CF92DF92EF9272
:100E4000FF920F931F93CF93DF936C017C0187E098
:100E5000E80EF11CD0E0C0E0062F10E0B8010C2E27
:100E600002C0759567950A94E2F76170F701819168
:100E70007F010E94E0032196C430D10579F7C601B5
:100E8000DF91CF911F910F91FF90EF90DF90CF9066
:100E90000C940707CF92DF92EF92FF920F931F936C
:100EA000CF93DF93EC01F62E642F8C810E94E00338
:100EB0008D818F3F19F060E00E94E0030F2D10E05C
:100EC0008F8584FF25C06E0187E0C80ED11CF12CF0
:100ED000E12CB8010E2C02C0759567950A94E2F7D3
:100EE0006170F60181916F010E94E003FFEFEF1A3C
:100EF000FF0A88E0E816F10461F7CE01DF91CF9197
:100F00001F910F91FF90EF90DF90CF900C94070707
:100F1000B80184E0759567958A95E1F7CE010E9446
:100F20001D076F2DCE01DF91CF911F910F91FF9083
:100F3000EF90DF90CF900C941D0740E0682F8CEB72
:100F400095E00C944A0781E00E949D078BE39FE1A6
:100F50000197F1F70895CF93DF93813029F09091B5
:100F6000CB0598609093CB058093CF051092D00568
:100F700080E48093D10580E18093D20580E5809361
:100F8000D30561E08091C0050E9412048091C105E3
:100F90008F3F19F061E00E94120461E08091C20568
:100FA0000E941204CCEBD5E09E012C5B3540809171
:100FB000CB0584FD0BC084E090E02196281739070B
:100FC00044F461E08E810E941204EECF88E090E04C
:100FD000F4CF8BE39DE00197F1F760E08091C005CD
:100FE0000E94E00360E08091C2050E94E0038091CE
:100FF000C1058F3F19F060E00E94E0038091CB05AE
:1010000084FD34C063E08CEB95E00E941D07CBE4C7
:10101000D6E4CE010197F1F763E08CEB95E00E94F6
:101020001D072197F1F763E08CEB95E00E941D0707
:1010300083E592E00197F1F762E08CEB95E00E9486
:101040001D078091CB0580620E949D0784E08093FC
:10105000CC058CE00E949D070E94A30782E080934C
:10106000CD0586E0DF91CF910C949D0780620E94B0
:101070009D078BE496E40197F1F78091CB058062A0
:101080000E949D0783E592E00197F1F78091CB05DF
:1010900080620E949D07D5CFCF93DF93EB019091A3
:1010A000CF05891710F08FEF890FE82FF0E0E45497
:1010B000FA4F848980680E949D074C815D81688118
:1010C00079818CEB95E0DF91CF910C94190241E08E
:1010D0000E944A0781E090E00895FB010190002002
:1010E000E9F73197AF01461B570BDC01ED91FC91FD
:1010F0000280F381E02D19948F929F92AF92BF925C
:10110000EF92FF920F931F93CF93DF93CDB7DEB78C
:10111000A1970FB6F894DEBF0FBECDBF7C01FA01D8
:10112000CB0119A2223008F42AE08E010F5D1F4F77
:10113000822E912CB12CA12CBF01A50194010E94FB
:10114000751BF901CA016A300CF5605DD8016E9318
:101150008D01232B242B252B79F790E080E010972D
:1011600021F0BD01C7010E946D08A1960FB6F89449
:10117000DEBF0FBECDBFDF91CF911F910F91FF90CA
:10118000EF90BF90AF909F908F900895695CDECFF5
:10119000CF92DF92EF92FF920F931F93CF93DF9343
:1011A000EC016A017B01E881F9810190F081E02D79
:1011B0006DE219958C0144275527BA014C195D0938
:1011C0006E097F092AE0CE010E947C08800F911FE2
:1011D000DF91CF911F910F91FF90EF90DF90CF9013
:1011E0000895AB01770F660B770B77FD0C94C80859
:1011F0002AE00C947C08CF93DF93BC0183E496E053
:101200000E946D08EC0162E872E083E496E00E94BF
:101210006D088C0F9D1FDF91CF910895CF93DF93C1
:10122000AC01990F660B770B77FF10C083E496E053
:101230000E94C808EC0162E872E083E496E00E9434
:101240006D088C0F9D1FDF91CF9108952AE083E4F4
:1012500096E00E947C08EECF0F931F93CF93DF930D
:10126000EC0188819981009759F02A813B812617EA
:10127000370730F081E0DF91CF911F910F910895F2
:101280008B016F5F7F4F0E94071D009759F0998374
:1012900088831B830A832C813D81232B59F7FC0112
:1012A0001082E8CF80E0E7CFEF92FF920F931F9379
:1012B000CF93DF936115710541F480E0DF91CF9109
:1012C0001F910F91FF90EF90089541155105B1F0D6
:1012D0007B01EC010C811D81040F151FB8010E94D8
:1012E0002C09882351F3288139818C819D81B70194
:1012F000820F931F0E94F11D1D830C8381E0DECFBE
:10130000CF93DF93EC0188819981009711F00E94BF
:101310007E1C198218821D821C821B821A82DF9118
:10132000CF910895CF93DF93EC01FB010190002052
:10133000E9F73197AF01461B570B0E945409811101
:1013400003C0CE010E948009CE01DF91CF910895A4
:10135000CF93DF93EC01FB01448155816081718162
:101360000E945409811103C0CE010E948009CE0160
:10137000DF91CF910895EF92FF920F931F93CF9338
:10138000DF93EC017B018A01BA010E942C098111D3
:101390000BC0CE010E948009CE01DF91CF911F9139
:1013A0000F91FF90EF9008951D830C83B701888102
:1013B00099810E94F11DF0CFFB0101900020E9F717
:1013C0003197AF01461B570B0C94BB090F931F932A
:1013D000CF93DF93CDB7DEB762970FB6F894DEBF39
:1013E0000FBECDBF8C01CB01F80111821082138298
:1013F0001282158214824AE0BE016F5F7F4F0E9405
:10140000C81ABE016F5F7F4FC8010E94DC09629657
:101410000FB6F894DEBF0FBECDBFDF91CF911F9105
:101420000F9108950F931F93CF93DF93CDB7DEB73E
:10143000A2970FB6F894DEBF0FBECDBF8C01CB01D3
:10144000BA01F8011182108213821282158214826D
:101450002AE0AE014F5F5F4F0E94D31ABE016F5F5B
:101460007F4FC8010E94DC09A2960FB6F894DEBF38
:101470000FBECDBFDF91CF911F910F9108950F93B4
:101480001F93CF93DF9300D000D000D0CDB7DEB74D
:101490008C01862FF801118210821382128215822C
:1014A00014824AE0BE016F5F7F4F90E00E94191BDB
:1014B000BE016F5F7F4FC8010E94DC0929960FB6FD
:1014C000F894DEBF0FBECDBFDF91CF911F910F917A
:1014D0000895CF93DF93EC01FB018617970749F03E
:1014E000608171816115710541F0448155810E94CF
:1014F000BB09CE01DF91CF9108950E948009F9CFF9
:10150000FC011182108213821282158214820C94C3
:10151000690AFC01118210821382128215821482E0
:10152000FB0101900020E9F73197AF01461B570BF3
:101530000C94BB09AF92BF92CF92DF92EF92FF92D1
:101540000F931F93CF93DF938C017B015A01CC241F
:10155000C394D12C452B29F4D12CC12CAA24A394BB
:10156000B12C64E872E0C8010E94890AD701149680
:10157000CD91DC91CC16DD06E0F4AC16BD0608F486
:10158000E501D701ED91FC911197EC0FFD1FB080A3
:1015900010826D917C916C0D7D1DC80161157105E6
:1015A000A1F00E94DC09F70180819181C80FD91F49
:1015B000B882C801DF91CF911F910F91FF90EF90FA
:1015C000DF90CF90BF90AF9008950E948009EBCF3D
:1015D000FC0180819181009711F00C947E1C08958C
:1015E000CF93DF9385ED8093BC008091AE03909103
:1015F000AF03A091B003B091B1030796A11DB11D37
:1016000023E0B695A795979587952A95D1F72091D0
:10161000BC0024FD03C01092F60336C04091AE0317
:101620005091AF036091B0037091B103452B462BED
:10163000472B69F30097A105B10541F025E32A95F1
:10164000F1F700000197A109B109E1CF8091AD0345
:1016500091E09093AC038823B9F0C091B800D09189
:10166000BA008091BC008A7B8093BC0060E084E17A
:101670000E94E00360E085E10E94E0030E94A00672
:10168000D093BA00C093B800DF91CF910895CF9264
:10169000DF92EF92FF920F931F93CF93DF93CDB71B
:1016A000DEB768970FB6F894DEBF0FBECDBF0E94BD
:1016B000A307809181048A3291F485E892E00E9428
:1016C000FB0810927C0410927B0410927F0410920D
:1016D0007E0410927604109275041092800480911A
:1016E0008104813391F483E992E00E94FB08209108
:1016F0007504309176042115310509F064C181E04B
:1017000090E09093760480937504809181048433F3
:1017100091F48CE992E00E94FB08209175043091CD
:1017200076042115310509F0AFC184E090E0909373
:1017300076048093750480918104873391F485EA5F
:1017400092E00E94FB0820917504309176042115E7
:10175000310509F0FAC187E090E090937604809318
:10176000750480918104803309F06AC08EEA92E0AA
:101770000E94FB088091750490917604009709F40B
:101780005FC06C01092E000CEE08FF084AE0489F7C
:101790009001499F300D11243093760420937504F5
:1017A000B701A601CE0101960E94120A0D811E8189
:1017B000CE0101960E94E80A0430110508F440C0E9
:1017C000B701A601CE0143960E94120A70E060E0C4
:1017D000CE010D960E94E6094F89588DBE016D5EBF
:1017E0007F4FCE0101960E949A0ABE016F5F7F4F24
:1017F000CE0107960E94800ABE01635F7F4FCE0133
:1018000007960E94A809BC01CE0143960E94690A6E
:10181000CE0107960E94E80ACE0101960E94E80ACE
:10182000CE010D960E94E80A8B899C890E94A11A1C
:101830007093760460937504CE0143960E94E80A83
:1018400080918104823391F487EB92E00E94FB083F
:1018500020917504309176042115310509F0D6C127
:1018600082E090E0909376048093750480918104E7
:10187000853391F480EC92E00E94FB08209175047E
:10188000309176042115310509F021C285E090E000
:10189000909376048093750480918104883391F449
:1018A00089EC92E00E94FB08209175043091760447
:1018B0002115310509F06CC288E090E09093760420
:1018C0008093750480918104833279F482ED92E0F3
:1018D0000E94FB08809175049091760490937C049B
:1018E00080937B0481E08093800480918104833322
:1018F00091F48FED92E00E94FB08209175043091E5
:1019000076042115310509F0A4C283E090E090939C
:1019100076048093750480918104863391F488EE77
:1019200092E00E94FB082091750430917604211505
:10193000310509F0EFC286E090E090937604809341
:10194000750480918104893391F481EF92E00E94C3
:10195000FB0820917504309176042115310509F0BA
:101960003AC389E090E09093760480937504809167
:1019700081048434C9F48091750490917604909325
:101980007F0480937E0410927604109275048AEF8F
:1019900092E00E94FB088FE280937D046AE070E091
:1019A00080E090E00E94770468960FB6F894DEBF5E
:1019B0000FBECDBFDF91CF911F910F91FF90EF90A0
:1019C000DF90CF9008956901032E000CEE08FF0808
:1019D0004AE0429FC001439F900D112401969093CD
:1019E000760480937504B701A601CE0101960E948A
:1019F000120A0D811E81CE0101960E94E80A043070
:101A0000110508F482CEB701A601CE0143960E94CB
:101A1000120A61E070E0CE010D960E94E6094F893E
:101A2000588DBE016D5E7F4FCE0101960E949A0ACD
:101A3000BE016F5F7F4FCE0107960E94800ABE01F4
:101A4000635F7F4FCE0107960E94A809BC01CE01BB
:101A500043960E94690ACE0107960E94E80ACE01C9
:101A600001960E94E80ACE010D960E94E80A8B8931
:101A70009C890E94A11A7093760460937504CE012C
:101A800043960E94E80A41CE6901032E000CEE083D
:101A9000FF084AE0429FC001439F900D1124049625
:101AA0009093760480937504B701A601CE01019648
:101AB0000E94120A0D811E81CE0101960E94E80A41
:101AC0000430110508F437CEB701A601CE014396C4
:101AD0000E94120A64E070E0CE010D960E94E609B1
:101AE0004F89588DBE016D5E7F4FCE0101960E94D9
:101AF0009A0ABE016F5F7F4FCE0107960E94800A4F
:101B0000BE01635F7F4FCE0107960E94A809BC010A
:101B1000CE0143960E94690ACE0107960E94E80A08
:101B2000CE0101960E94E80ACE010D960E94E80AB5
:101B30008B899C890E94A11A709376046093750426
:101B4000CE0143960E94E80AF6CD6901032E000CEF
:101B5000EE08FF084AE0429FC001439F900D112408
:101B600007969093760480937504B701A601CE0181
:101B700001960E94120A0D811E81CE0101960E94DB
:101B8000E80A0430110508F4ECCDB701A601CE0136
:101B900043960E94120A67E070E0CE010D960E9403
:101BA000E6094F89588DBE016D5E7F4FCE010196CB
:101BB0000E949A0ABE016F5F7F4FCE0107960E9476
:101BC000800ABE01635F7F4FCE0107960E94A8097D
:101BD000BC01CE0143960E94690ACE0107960E947D
:101BE000E80ACE0101960E94E80ACE010D960E94F5
:101BF000E80A8B899C890E94A11A709376046093ED
:101C00007504CE0143960E94E80AABCD6901032E0C
:101C1000000CEE08FF084AE0429FC001439F900D70
:101C2000112402969093760480937504B701A6015F
:101C3000CE0101960E94120A0D811E81CE010196ED
:101C40000E94E80A0430110508F410CEB701A6017D
:101C5000CE0143960E94120A62E070E0CE010D961A
:101C60000E94E6094F89588DBE016D5E7F4FCE01FF
:101C700001960E949A0ABE016F5F7F4FCE010796C0
:101C80000E94800ABE01635F7F4FCE0107960E94CB
:101C9000A809BC01CE0143960E94690ACE010796AD
:101CA0000E94E80ACE0101960E94E80ACE010D9634
:101CB0000E94E80A8B899C890E94A11A709376047D
:101CC00060937504CE0143960E94E80ACFCD690166
:101CD000032E000CEE08FF084AE0429FC001439F1C
:101CE000900D112405969093760480937504B701A6
:101CF000A601CE0101960E94120A0D811E81CE011D
:101D000001960E94E80A0430110508F4C5CDB70118
:101D1000A601CE0143960E94120A65E070E0CE0152
:101D20000D960E94E6094F89588DBE016D5E7F4F6A
:101D3000CE0101960E949A0ABE016F5F7F4FCE01CD
:101D400007960E94800ABE01635F7F4FCE0107960F
:101D50000E94A809BC01CE0143960E94690ACE01E7
:101D600007960E94E80ACE0101960E94E80ACE0179
:101D70000D960E94E80A8B899C890E94A11A709393
:101D8000760460937504CE0143960E94E80A84CDE0
:101D90006901032E000CEE08FF084AE0429FC001D3
:101DA000439F900D112408969093760480937504B8
:101DB000B701A601CE0101960E94120A0D811E8173
:101DC000CE0101960E94E80A0430110508F47ACD8C
:101DD000B701A601CE0143960E94120A68E070E0A6
:101DE000CE010D960E94E6094F89588DBE016D5EA9
:101DF0007F4FCE0101960E949A0ABE016F5F7F4F0E
:101E0000CE0107960E94800ABE01635F7F4FCE011C
:101E100007960E94A809BC01CE0143960E94690A58
:101E2000CE0107960E94E80ACE0101960E94E80AB8
:101E3000CE010D960E94E80A8B899C890E94A11A06
:101E40007093760460937504CE0143960E94E80A6D
:101E500039CD6901032E000CEE08FF084AE0429FCD
:101E6000C001439F900D11240396909376048093B4
:101E70007504B701A601CE0101960E94120A0D81D8
:101E80001E81CE0101960E94E80A0430110508F473
:101E900042CDB701A601CE0143960E94120A63E02B
:101EA00070E0CE010D960E94E6094F89588DBE0163
:101EB0006D5E7F4FCE0101960E949A0ABE016F5F50
:101EC0007F4FCE0107960E94800ABE01635F7F4F5D
:101ED000CE0107960E94A809BC01CE0143960E943C
:101EE000690ACE0107960E94E80ACE0101960E9477
:101EF000E80ACE010D960E94E80A8B899C890E940F
:101F0000A11A7093760460937504CE0143960E94E3
:101F1000E80A01CD6901032E000CEE08FF084AE033
:101F2000429FC001439F900D112406969093760422
:101F300080937504B701A601CE0101960E94120A92
:101F40000D811E81CE0101960E94E80A0430110520
:101F500008F4F7CCB701A601CE0143960E94120AFD
:101F600066E070E0CE010D960E94E6094F89588D1B
:101F7000BE016D5E7F4FCE0101960E949A0ABE019E
:101F80006F5F7F4FCE0107960E94800ABE01635F9C
:101F90007F4FCE0107960E94A809BC01CE0143964F
:101FA0000E94690ACE0107960E94E80ACE010196B6
:101FB0000E94E80ACE010D960E94E80A8B899C894E
:101FC0000E94A11A7093760460937504CE01439623
:101FD0000E94E80AB6CC6901032E000CEE08FF0847
:101FE0004AE0429FC001439F900D112409969093AF
:101FF000760480937504B701A601CE0101960E9474
:10200000120A0D811E81CE0101960E94E80A043059
:10201000110508F4ACCCB701A601CE0143960E948D
:10202000120A69E070E0CE010D960E94E6094F8920
:10203000588DBE016D5E7F4FCE0101960E949A0AB7
:10204000BE016F5F7F4FCE0107960E94800ABE01DE
:10205000635F7F4FCE0107960E94A809BC01CE01A5
:1020600043960E94690ACE0107960E94E80ACE01B3
:1020700001960E94E80ACE010D960E94E80A8B891B
:102080009C890E94A11A7093760460937504CE0116
:1020900043960E94E80A6BCC1F920F920FB60F92E4
:1020A00011240BB60F922F933F934F935F936F932F
:1020B0007F938F939F93AF93BF93EF93FF9382E8A8
:1020C00094E00E948D02FF91EF91BF91AF919F919B
:1020D0008F917F916F915F914F913F912F910F90D1
:1020E0000BBE0F900FBE0F901F9018951F920F926E
:1020F0000FB60F9211240BB60F922F938F939F93CD
:10210000EF93FF93E0919204F09193048081E0912A
:102110009804F091990482FD1DC0908180919B04E8
:102120008F5F8F7320919C04821741F0E0919B0494
:10213000F0E0EE57FB4F958F80939B04FF91EF915A
:102140009F918F912F910F900BBE0F900FBE0F900C
:102150001F9018958081F2CF1F920F920FB60F92A9
:1021600011242F933F938F939F93AF93BF938091AD
:10217000610490916204A0916304B0916404309171
:10218000600423E0230F2D3758F50196A11DB11DE2
:10219000209360048093610490936204A09363048D
:1021A000B09364048091650490916604A0916704E3
:1021B000B09168040196A11DB11D809365049093B0
:1021C0006604A0936704B0936804BF91AF919F9198
:1021D0008F913F912F910F900FBE0F901F901895E8
:1021E00026E8230F0296A11DB11DD2CF1F920F9298
:1021F0000FB60F9211240BB60F922F933F934F936C
:102200005F936F937F938F939F93AF93BF93EF935E
:10221000FF9348E251E064E271E090E080E00E94C8
:102220001105FF91EF91BF91AF919F918F917F9198
:102230006F915F914F913F912F910F900BBE0F9037
:102240000FBE0F901F9018951F920F920FB60F920E
:1022500011240BB60F922F933F934F935F936F937D
:102260007F938F939F93AF93BF93EF93FF9348EA2E
:1022700050E064EA70E083E090E00E941105FF9175
:10228000EF91BF91AF919F918F917F916F915F91EE
:102290004F913F912F910F900BBE0F900FBE0F905B
:1022A0001F9018951F920F920FB60F9211240BB624
:1022B0000F922F933F934F935F936F937F938F93DF
:1022C0009F93AF93BF93EF93FF9348E950E064E986
:1022D00070E082E090E00E941105FF91EF91BF91C4
:1022E000AF919F918F917F916F915F914F913F91AE
:1022F0002F910F900BBE0F900FBE0F901F9018954F
:102300001F920F920FB60F9211240BB60F922F93BC
:102310003F934F935F936F937F938F939F93AF936D
:10232000BF93EF93FF9348E850E064E870E081E0EA
:1023300090E00E941105FF91EF91BF91AF919F91A5
:102340008F917F916F915F914F913F912F910F905E
:102350000BBE0F900FBE0F901F9018951F920F92FB
:102360000FB60F9211240BB60F922F933F934F93FA
:102370005F936F937F938F939F93AF93BF93EF93ED
:10238000FF93E0916B04F0916C04309749F0A685BF
:10239000B7858585968D91FF16C09C918923B1F4F0
:1023A000FF91EF91BF91AF919F918F917F916F912D
:1023B0005F914F913F912F910F900BBE0F900FBEE9
:1023C0000F901F9018959C91892351F7A389B48988
:1023D0009C918589809589238C938689978901971B
:1023E000F1F7608D718DA685B785558538E020E0C1
:1023F000CB010197F1F7822F90E095958795282FD3
:102400004C91452309F02068315091F7868D81FD6C
:10241000209580916A0490E001968F7399273091FE
:102420006904381799F0A0916A04B0E0A45EBB4F2C
:102430002C9380936A04828D938D0197F1F7A38981
:10244000B4898C919589892B8C93AACF868D8160D4
:10245000868FF1CF1F920F920FB60F9211240BB6F9
:102460000F922F933F934F935F936F937F938F932D
:102470009F93AF93BF93EF93FF938091B900887FB1
:10248000803609F44DC008F040C0883209F4A9C074
:1024900028F5803109F49DC0C8F4882309F4FBC0F5
:1024A000883009F496C0FF91EF91BF91AF919F9151
:1024B0008F917F916F915F914F913F912F910F90ED
:1024C0000BBE0F900FBE0F901F901895883109F426
:1024D00088C0803241F78093F50314C0803409F43A
:1024E0009DC040F48033B9F38833E9F68093F50357
:1024F00085ECB0C0803509F485C0883509F496C0F4
:10250000883489F60E94F00ACECF883909F48CC04D
:1025100038F5883729F050F4883611F0803719F6ED
:1025200083E08093F6031092F40357C0883809F4CF
:102530007BC0803919F0803809F0B5CF8091F40361
:10254000803208F071C0E091F40381E08E0F809337
:10255000F4038091BB00F0E0EC52FC4F80833DC05F
:10256000803B39F0E0F4803A09F479C0883A09F008
:102570009ACF84E08093F6031092D3031092D20393
:10258000E0916F04F091700419958091D20381114C
:102590000FC081E08093D2031092B20309C0803C47
:1025A00009F4A6CF883C09F4A3CF883B09F07BCF80
:1025B000E091D30381E08E0F8093D303F0E0EE54DB
:1025C000FC4F80818093BB009091D3038091D20314
:1025D00029C080911B048093BB0085EC8093BC00D4
:1025E00062CF90911A0480911904981758F5E091E0
:1025F0001A0481E08E0F80931A04F0E0E750FC4F3C
:102600008081E9CFE0911A0481E08E0F80931A0453
:102610008091BB00F0E0E750FC4F808390911A045A
:10262000809119049817C8F285E8D8CFE0911A0470
:1026300081E08E0F80931A048091BB00F0E0E75098
:10264000FC4F80838091F80381115CCF81E08093FF
:10265000F70384EA8093BC001092F60324CF85EC44
:102660008093BC001092F6038091F403803230F422
:10267000E091F403F0E0EC52FC4F10826091F4031F
:1026800070E0E0916D04F0916E0484ED93E0199593
:102690001092F40308CF1092F50334CF1092850402
:1026A0001092840488EE93E0A0E0B0E0809386046A
:1026B00090938704A0938804B093890424E332E0C4
:1026C00030938304209382042DEC30E030938F0408
:1026D00020938E042CEC30E03093910420939004EE
:1026E00028EC30E0309393042093920429EC30E0FE
:1026F00030939504209394042AEC30E030939704AF
:10270000209396042EEC30E03093990420939804A3
:1027100010929B0410929C0410929D0410929E04AF
:102720001092220510922105809323059093240591
:10273000A0932505B093260586E492E090932005AA
:1027400080931F058091BB05803308F0FEC091E0A7
:10275000980F9093BB058093680690E0FC01EE0F04
:10276000FF1FE80FF91FE55DFA4F88EB9BE09283AE
:10277000818386E0ECE7F2E0A2E6B6E001900D92FC
:102780008A95E1F7109246061092450688EE93E08E
:10279000A0E0B0E08093470690934806A0934906D6
:1027A000B0934A068EE692E09093440680934306E7
:1027B00010925A061092590610925C0610925B060F
:1027C00010925E0610925D061092600610925F06EF
:1027D000609161066E7F6D7F6093610666956170A2
:1027E00081E0682783E10E94E00361E083E10E94C9
:1027F0001204E1E8F2E0E491E0935306EBE3F2E047
:10280000E491F0E0EE0FFF1FE25FFD4F85919491A0
:10281000909355068093540660E082E10E94120472
:102820008091610681FD04C061E082E10E94E003C5
:1028300082E180934F06E0E8F2E0E491E0935006F5
:10284000EAE3F2E0E491F0E0EE0FFF1FEC50FE4F00
:102850008591949190935206809351061092D605DB
:102860001092DA051092D9051092DB0584E692E009
:102870009093D5058093D405E0EFF5E08CE296E0E7
:10288000108214821382158236968E179F07C1F725
:1028900084E092E0909337068093360680E092E0E1
:1028A000909339068093380684E080933A068093AB
:1028B0003B0688E092E090933506809334068AE0E8
:1028C00090E090933D0680933C0684EF91E09093D6
:1028D0003F0680933E0610924206109241061092E7
:1028E0003006109231061092320610923306109282
:1028F00040061092BF051092BE0588E592E09093C5
:10290000BD058093BC0583E28093C0058FEF809363
:10291000C10582E28093C20581E28093C30580E213
:102920008093C4058FE18093C5058EE18093C60531
:102930001092C7051092C8051092C9051092CA05D9
:102940001092CB0581E00C94AB078FEF8093680663
:1029500010CFCF93DF93CDB7DEB76E970FB6F89455
:10296000DEBF0FBECDBF789484B5826084BD84B5D0
:10297000816084BD85B5826085BD85B5816085BD7A
:1029800080916E00816080936E0010928100809132
:1029900081008260809381008091810081608093BA
:1029A0008100809180008160809380008091B100DF
:1029B00084608093B1008091B00081608093B0000A
:1029C000809191008260809391008091910081605C
:1029D000809391008091900081608093900080911D
:1029E000A10082608093A1008091A100816080930A
:1029F000A1008091A00081608093A00080912101BE
:102A00008260809321018091210181608093210166
:102A10008091200181608093200180917A00846000
:102A200080937A0080917A00826080937A0080910E
:102A30007A00816080937A0080917A008068809328
:102A40007A001092C10080916806803308F052C06D
:102A500061E08EE00E94120480916806282F30E029
:102A6000F901EE0FFF1FE20FF31FE55DFA4F9081B2
:102A7000907C9E6090831092690610926A062CE00A
:102A8000622F0E94A61B829FB001112430E020E03B
:102A9000AB01420F531FFA01EE0FFF1FE40FF51FAA
:102AA000E55DFA4F908196FD17C02F5F3F4F2C30A8
:102AB000310571F7813009F09DC11092800082E0EC
:102AC000809381001092850010928400B19A8091C9
:102AD0006F00826080936F00E09168068E2F90E017
:102AE000FC01EE0FFF1FE80FF91FE55DFA4F808133
:102AF0008064808390E080E00E948F0110925E06E7
:102B000010925D0610925C0610925B0610925A06B7
:102B1000109259068DE991E09093600680935F06CC
:102B200080914F0696EF980F943048F02EEC280FC6
:102B3000243028F022EC280F283008F061C02DEB5B
:102B400030E030935A06209359062BE931E0309358
:102B50005C0620935B062CE231E030935E06209306
:102B60005D06943050F02EEC280F243030F022EC2B
:102B7000280FF0E0E0E0283010F4E8E6F0E02081F3
:102B8000943028F032EC380F383008F45FC131E06F
:102B9000232B943048F09EEC980F943028F08E53FD
:102BA000F0E0E0E0883010F4E8E6F0E020832091E7
:102BB0004F0636EF320F343008F44AC18EEC820FE4
:102BC000843008F445C182EC820F883008F043C19C
:102BD0008DE690E09093570680935606343008F0C7
:102BE0003DC12650330B81E001C0880F2A95EAF7DA
:102BF0008093580680915F06909160060197F1F7E7
:102C000080915D0690915E06892B49F1E0916B04FD
:102C1000F0916C0426E0E334F20709F1309739F0C3
:102C2000A389B4899C918589809589238C9380910F
:102C300061068E7F8093610610926A041092690487
:102C400083E496E090936C0480936B04E0915606C5
:102C5000F0915706808190915806892B8083E091EE
:102C60009204F091930482E08083E0918E04F091CD
:102C70008F041082E0919004F09191048FEC808396
:102C800010929A04E0919604F091970486E0808374
:102C9000E0919404F0919504808180618083E091BB
:102CA0009404F0919504808188608083E09194047D
:102CB000F0919504808180688083E0919404F09184
:102CC000950480818F7D8083109274041092730428
:102CD00010927204109271040E94A00687E192E0A3
:102CE0009093700480936F0488E192E090936E0457
:102CF00080936D0483E093E00E94FB0861E08DE225
:102D00000E94120461E08EE20E94120461E08FE2F0
:102D10000E94120460E084E20E94120460E085E2F6
:102D20000E94120460E086E20E94120460E08DE2DC
:102D30000E94E00360E08EE20E94E00360E08FE228
:102D40000E94E00384E00E94AB0768E073E0CE01DC
:102D500001960E94890ABE016F5F7F4F81E090E07B
:102D60000E944C08CE0101960E94E80A86E193E099
:102D70000E94FB086AE070E080E090E00E94770427
:102D80000E94A307812C912C5401839444244A94DB
:102D9000542C31E0309340060E94A9040091300683
:102DA000109131062091320630913306AB01BC01FF
:102DB000401B510B620B730B80913C0690913D06BA
:102DC000B0E0A0E084179507A607B70708F046C350
:102DD00010E080913A06181708F055C0E0913606C9
:102DE000F0913706E10FF11D62E080810E9412042C
:102DF0001F5FEFCF823061F41092900080939100BA
:102E0000109295001092940088BB8093710064CE5C
:102E1000833069F41092A00082E08093A1001092A8
:102E2000A5001092A40089BB8093720055CE811139
:102E300053CE1092200182E080932101109225014F
:102E4000109224018ABB8093730046CE34E0A0CE5A
:102E50008BE690E0BFCE90E080E0BCCE88E02233ED
:102E600009F4C6CE84E0233309F4C2CE82E02433D1
:102E700009F4BECE82EC820F883018F42E53330B47
:102E8000B2CE81E0B5CE312C80913B06381608F0E9
:102E900064C0032D10E0E0913806F0913906E00F90
:102EA000F11F61E080810E941204E0913806F091E8
:102EB0003906E00FF11F60E080810E94E003D50138
:102EC000C401032C04C0880F991FAA1FBB1F0A94BA
:102ED000D2F73C017C01E094F094212C80913A06D9
:102EE000281620F5C22CD12CE0913606F091370639
:102EF000EC0DFD1D80810E94B403F6013496892BF0
:102F000061F4EE0FFF1FEC52FA4F80819181862908
:102F10009729918380832394E1CFEE0FFF1FEC521A
:102F2000FA4F808191818E219F21F3CFE091380665
:102F3000F0913906E00FF11F61E080810E94E0030B
:102F40008091380690913906080F191F60E0F8014A
:102F500080810E941204339497CF04ED15E0F801AC
:102F6000878D90A1892B21F4148E568E458E11A247
:102F7000369626E0E031F20799F7D12C80913A0697
:102F8000D81608F053C0C12CED2CF12CEE0CFF1C10
:102F9000C70184529A4F7C0120913B06C21608F06B
:102FA00043C0F701608171810C2C02C07695679552
:102FB0000A94E2F7D29E900111242C0D311DE4ED0C
:102FC000F5E080E0458D568D2417350709F49BC246
:102FD0008F5F36968A30B1F760FF24C0E4EDF5E0EC
:102FE00090E080E0448D411118C0E0913406F091EA
:102FF0003506E20FF31F408156E0589FF001599FBC
:10300000F00D1124EC52FA4F448F368F258F10A209
:10301000178E61E00E94B50405C0019636968A308D
:10302000910501F7C394B8CFD394A8CFF12CF80140
:1030300081A18111F82E0A5F1F4FF6E000311F07B2
:10304000B1F70E94A9046093300670933106809313
:10305000320690933306FF2009F400C28091F505F3
:10306000882309F4FBC18091F3059091F405019741
:1030700009F0F4C18091F005809381048111F3C1BE
:1030800080918004882309F49CC080917D048F3254
:1030900009F097C08FE193E00E94FB0880916206DF
:1030A000909163060E940E098BE293E00E94FB0858
:1030B00080916406909165060E940E0983E393E077
:1030C0000E94FB0880916606909167060E940E0997
:1030D000209162063091630680917E0490917F0476
:1030E0002817390709F05FC0209164063091650602
:1030F00080917B0490917C042817390709F053C014
:1031000080917A04893008F04EC080E493E00E94F8
:10311000FB0840917A0450E070E060E02AE083E42C
:1031200096E00E947C0862E872E083E496E00E94E8
:103130006D088FE493E00E94FB0884EB90E00E940E
:103140008F016EE573E0CE0101960E94890ABE01EF
:103150006F5F7F4F90E080E00E944C08CE010196A7
:103160000E94E80A0E94A9046B018AE693E00E948B
:10317000FB08C6010E940E098091660690916706C1
:10318000892B09F073C1D0926706C092660664E687
:1031900070E080E090E00E9477040E94A30790E036
:1031A00080E00E948F0110927604109275041092B4
:1031B0007C0410927B0410927F0410927E04109283
:1031C0008004E1E08091CF058111E0E0E195F0E03D
:1031D000E454FA4F848980680E949D0760917E04C0
:1031E00070917F048CEB95E00E94F10841E06091C2
:1031F0007D048CEB95E00E944A0760917B047091FE
:103200007C048CEB95E00E94F10860917B04709146
:103210007C04CE0101960E94E609F0907D04609145
:103220007E0470917F04CE010D960E94E609BE01D6
:10323000635F7F4FCE0107960E94800A64E872E0C8
:10324000CE0107960E9492098C01FB8A1C8A41E0FC
:1032500050E0BE016D5E7F4F0E945409811103C092
:10326000C8010E948009BE016F5F7F4FC8010E94A4
:10327000A809BC01CE0149960E94800ACE0107969A
:103280000E94E80ACE010D960E94E80ACE0101963E
:103290000E94E80ABE01675E7F4FCE0101960E9440
:1032A000800ABE016F5F7F4F90E080E00E944C0873
:1032B000CE0101960E94E80A10927A0487E7E82E70
:1032C00084E0F82E03E010E0F701108298012C5DF5
:1032D0003D4F6901C801855E9D4F3C01C601875283
:1032E0009240801791070CF4F1C09FEFE91AF90A98
:1032F0000D5F1F4F0C30110539F760917904CE0135
:1033000001960E943F0A60917804CE0107960E94C0
:103310003F0A60917704CE010D960E943F0A69E74B
:1033200073E0CE0143960E94890ABE01635F7F4F1E
:10333000CE0143960E94A8096BE773E00E949209B0
:103340006DE773E00E949209BE01695F7F4F0E94A2
:10335000A8096BE773E00E94920961E873E00E949C
:103360009209BE016F5F7F4F0E94A8096BE773E06F
:103370000E949209BC01CE0149960E94690ACE01C1
:1033800043960E94E80ACE010D960E94E80ACE01FB
:1033900007960E94E80ACE0101960E94E80ABE0143
:1033A000675E7F4FCE0101960E94800ABE016F5F6B
:1033B0007F4F81E090E00E944C08CE0101960E9470
:1033C000E80A60917A04CE0107960E943F0A65E8F8
:1033D00073E0CE010D960E94890ABE01695F7F4F9E
:1033E000CE010D960E94A809BC01CE0101960E9453
:1033F000800ABE016F5F7F4F82E090E00E944C0820
:10340000CE0101960E94E80ACE010D960E94E80ABC
:10341000CE0107960E94E80A6091750470917604C7
:10342000CE0101960E94E609BE016F5F7F4F83E0E7
:1034300090E00E944C08CE0101960E94E80A6AE0E2
:1034400070E080E090E00E9477040E94A307CE0124
:1034500049960E94E80A0E941C039BCC10924006E9
:10346000109281040DCE0E94470B0ACE109267067F
:103470001092660670E060E0CE0107960E94E609B1
:1034800062E773E0CE0101960E94890ABE01695F7E
:103490007F4FCE0101960E94A809BC01CE010D9676
:1034A0000E94800ABE01635F7F4F81E090E00E942E
:1034B0004C08CE010D960E94E80ACE0101960E94AA
:1034C000E80ACE0107960E94E80A61CEF6018191D2
:1034D0006F010E94B403F30121913F01019771F440
:1034E00061E0822F0E94E003F70180818F5F80837B
:1034F00080917A048F5F80937A04F0CE60E0822F0F
:103500000E94E003EBCE617085CD8EE692E0909351
:1035100044068093430680916B0490916C0483541D
:10352000964071F4E0915606F09157069081809193
:10353000580680958923808310926C0410926B0446
:1035400008951F93FC0199278827BC01E8941191E5
:103550001032E9F3193010F01E30C8F31B3251F06D
:103560001D3249F4689406C00E94E21A610F711D71
:10357000811D911D119110531A30B0F33EF49095B6
:103580008095709561957F4F8F4F9F4F1F91089544
:10359000BB274A3031F4992322F4BDE290958195FE
:1035A0009F4F0C941A1BBB272A3051F4992342F4E5
:1035B000BDE290958095709561957F4F8F4F9F4F9D
:1035C0000C94F81A592F482F372F262F660F771F84
:1035D000881F991F660F771F881F991F620F731F1F
:1035E000841F951F660F771F881F991F0895BB279B
:1035F000FA01A62F6217710581059105330B30FB87
:1036000066F0AA27660F771F881F991FAA1FA217A7
:1036100010F0A21B63953850A9F7A05DAA3308F0FB
:10362000A95DA19336F7B111B1931082CA010C9430
:10363000331BBB27FB015527AA27880F991FAA1FF9
:10364000A41710F0A41B83955051B9F7A05DAA33BD
:1036500008F0A95DA193009779F7B111B193119288
:10366000CB010C94331BDC01FC01672F7191772394
:10367000E1F7329704C07C916D9370836291AE172D
:10368000BF07C8F30895052E97FB1EF400940E940F
:103690005A1B57FD07D00E94751B07FC03D04EF440
:1036A0000C945A1B50954095309521953F4F4F4FA4
:1036B0005F4F089590958095709561957F4F8F4FDE
:1036C0009F4F08950E94971BA59F900DB49F900D4A
:1036D000A49F800D911D11240895B7FF0C94621BC7
:1036E0000E94621B821B930B0895A1E21A2EAA1B53
:1036F000BB1BFD010DC0AA1FBB1FEE1FFF1FA217A2
:10370000B307E407F50720F0A21BB30BE40BF50B9E
:10371000661F771F881F991F1A9469F76095709527
:10372000809590959B01AC01BD01CF010895A29FAA
:10373000B001B39FC001A39F700D811D1124911D85
:10374000B29F700D811D1124911D0895991B79E080
:1037500004C0991F961708F0961B881F7A95C9F721
:103760008095089597FB072E16F4009407D077FDF7
:1037700009D00E94CE1B07FC05D03EF490958195A0
:103780009F4F0895709561957F4F0895EE0FFF1F2D
:10379000881F8BBF0790F691E02D1994AA1BBB1BC5
:1037A00051E107C0AA1FBB1FA617B70710F0A61B41
:1037B000B70B881F991F5A95A9F780959095BC0162
:1037C000CD0108950F931F93CF93DF93823091051E
:1037D00010F482E090E0E0916D06F0916E0630E02A
:1037E00020E0B0E0A0E0309799F42115310509F40C
:1037F0004AC0281B390B24303105D8F58A819B81BA
:103800006115710589F1FB0193838283FE0111C06B
:10381000408151810281138148175907E0F0481710
:10382000590799F4109761F012960C93129713961A
:103830001C933296CF01DF91CF911F910F91089584
:1038400000936D0610936E06F4CF2115310551F0EB
:103850004217530738F0A901DB019A01BD01DF01CE
:10386000F801C1CFEF01F9CF90936E0680936D06FA
:10387000CDCFFE01E20FF31F8193919322503109C6
:1038800039832883D7CF20916B0630916C06232B88
:1038900041F420911A0230911B0230936C06209360
:1038A0006B0620911802309119022115310541F45F
:1038B0002DB73EB740911C0250911D02241B350BC1
:1038C000E0916B06F0916C06E217F307A0F42E1B53
:1038D0003F0B2817390778F0AC014E5F5F4F241774
:1038E000350748F04E0F5F1F50936C0640936B06F0
:1038F000819391939FCFF0E0E0E09CCFCF93DF9353
:103900000097E9F0FC01329713821282A0916D06B4
:10391000B0916E06ED0130E020E01097A1F4208117
:103920003181820F931F20916B0630916C0628170E
:10393000390709F061C0F0936C06E0936B06DF91E4
:10394000CF910895EA01CE17DF07E8F54A815B8140
:103950009E0141155105B1F7E901FB83EA834991C5
:103960005991C40FD51FEC17FD0761F48081918137
:103970000296840F951FE901998388838281938140
:103980009B838A83F0E0E0E012968D919C911397DF
:103990000097B9F52D913C911197CD010296820FB8
:1039A000931F20916B0630916C062817390739F662
:1039B000309751F510926E0610926D06B0936C061A
:1039C000A0936B06BCCFD383C28340815181840F07
:1039D000951FC817D90761F44E5F5F4F88819981A1
:1039E000480F591F518340838A819B81938382832F
:1039F0002115310509F0B0CFF0936E06E0936D0606
:103A00009ECFFD01DC01C0CF13821282D7CF4F922F
:103A10005F926F927F928F929F92AF92BF92CF925E
:103A2000DF92EF92FF920F931F93CF93DF938C015E
:103A3000009799F4CB01DF91CF911F910F91FF90E7
:103A4000EF90DF90CF90BF90AF909F908F907F903E
:103A50006F905F904F900C94E21BFC01E60FF71FF4
:103A60009C0122503109E217F30708F4AEC0D901D6
:103A7000CD91DC911197C617D70720F1C530D1053C
:103A800078F0CE0104978617970750F0C61BD70B26
:103A90002297C193D1936D937C93CF010E947E1C9A
:103AA000C801DF91CF911F910F91FF90EF90DF90B0
:103AB000CF90BF90AF909F908F907F906F905F90CE
:103AC0004F9008955B01AC1ABD0A4C018C0E9D1EEF
:103AD000A0916D06B0916E06512C412CF12CE12C79
:103AE000109731F580916B0690916C0688159905B9
:103AF00009F05CC04616570608F058C080911802BD
:103B000090911902009741F48DB79EB740911C0225
:103B100050911D02841B950BE817F90708F055C05A
:103B2000F0936C06E0936B06F90171836083B8CF64
:103B30008D919C91119712966C90129713967C9090
:103B40001397A815B90559F56C0142E0C40ED11CB4
:103B5000CA14DB0420F1AC014A195B09DA011296A0
:103B6000159780F06282738251834083D9016D93EF
:103B70007C93E114F10471F0D7011396FC93EE935A
:103B800012978ECF22968C0F9D1FF901918380830F
:103B9000F301EFCFF0936E06E0936D0681CF4816E8
:103BA000590608F42C017D01D3019ACFCB010E9464
:103BB000E21B7C01009749F0AE01B8010E94E81DAC
:103BC000C8010E947E1C87016BCF10E000E068CF27
:103BD000FB01DC0102C001900D9241505040D8F72A
:103BE0000895FB01DC0101900D920020E1F708959A
:103BF00011E0CBE5D1E000E006C0802FFE010E947D
:103C0000C61B2196011DCC35D10780E00807A9F716
:103C1000F894FFCF1A1B1C1D161718193738394492
:103C200034353643313233422A30234100006F06A7
:103C300080002D2E2F303233343536242526272888
:103C4000292A2B2C00000000AF0219024602FC02B8
:103C500077025502690200000000F206E706040739
:103C6000E305E006CD06BE06000000006708190265
:103C700004070307000000004E040E04DD030000EB
:103C80000000E40519020407E30540065806CB05C9
:103C90000100010000000D0A00427574746F6E206F
:103CA00043616E63656C00427574746F6E20310001
:103CB000427574746F6E203400427574746F6E2098
:103CC0003700427574746F6E203000427574746FE3
:103CD0006E203200427574746F6E20350042757428
:103CE000746F6E203800427574746F6E2045717564
:103CF000616C00427574746F6E2033004275747489
:103D00006F6E203600427574746F6E203900446502
:103D1000766573696F6E007465737400736D61729C
:103D200074207061726B696E6700737461727420C5
:103D3000757000757365726E616D652069730070D2
:103D400061737320697300656E74657254696D6583
:103D50002069730073756D436170616369747920C4
:103D6000697300736572766F206973206D6F766575
:103D70006400646F6F72206F70656E6564007469B3
:103D80006D6520697300636F73743A2000413A20B7
:103D900000623A2000633A200073756D3A200000FB
:020000040003F7
:10E000000D9489F10D94B2F10D94B2F10D94B2F129
:10E010000D94B2F10D94B2F10D94B2F10D94B2F1F0
:10E020000D94B2F10D94B2F10D94B2F10D94B2F1E0
:10E030000D94B2F10D94B2F10D94B2F10D94B2F1D0
:10E040000D94B2F10D94B2F10D94B2F10D94B2F1C0
:10E050000D94B2F10D94B2F10D94B2F10D94B2F1B0
:10E060000D94B2F10D94B2F10D94B2F10D94B2F1A0
:10E070000D94B2F10D94B2F10D94B2F10D94B2F190
:10E080000D94B2F10D94B2F10D94B2F10D94B2F180
:10E090000D94B2F10D94B2F10D94B2F10D94B2F170
:10E0A0000D94B2F10D94B2F10D94B2F10D94B2F160
:10E0B0000D94B2F10D94B2F10D94B2F10D94B2F150
:10E0C0000D94B2F10D94B2F10D94B2F10D94B2F140
:10E0D0000D94B2F10D94B2F10D94B2F10D94B2F130
:10E0E0000D94B2F141546D656761323536300041AF
:10E0F000726475696E6F206578706C6F72657220DE
:10E1000073746B3530305632206279204D4C530099
:10E11000426F6F746C6F616465723E004875683F52
:10E1200000436F6D70696C6564206F6E203D200048
:10E130004350552054797065202020203D20005FF9
:10E140005F4156525F415243485F5F3D2000415658
:10E1500052204C696243205665723D20004743437C
:10E160002056657273696F6E203D20004350552024
:10E1700049442020202020203D20004C6F7720663D
:10E18000757365202020203D20004869676820665F
:10E190007573652020203D200045787420667573D6
:10E1A00065202020203D20004C6F636B2066757336
:10E1B000652020203D20004D617220203720323024
:10E1C000313300312E362E3800342E332E350056A2
:10E1D00023202020414444522020206F7020636F70
:10E1E00064652020202020696E73747275637469E1
:10E1F0006F6E2061646472202020496E74657272B3
:10E20000757074006E6F20766563746F7200726A49
:10E210006D702020006A6D70200057686174207056
:10E220006F72743A00506F7274206E6F7420737541
:10E2300070706F72746564004D7573742062652030
:10E2400061206C6574746572002000577269747483
:10E25000696E672045450052656164696E672045B7
:10E26000450045452065727220636E743D00504F35
:10E27000525400303D5A65726F2061646472003FF1
:10E280003D43505520737461747300403D454550C3
:10E29000524F4D207465737400423D426C696E6B41
:10E2A000204C454400453D44756D70204545505215
:10E2B0004F4D00463D44756D7020464C415348001B
:10E2C000483D48656C70004C3D4C69737420492F83
:10E2D0004F20506F72747300513D51756974005234
:10E2E0003D44756D702052414D00563D73686F7707
:10E2F00020696E7465727275707420566563746FF0
:10E30000727300593D506F727420626C696E6B00BD
:10E310002A0011241FBECFEFD1E2DEBFCDBF01E046
:10E320000CBF12E0A0E0B2E0EEE1FDEF03E00BBFB6
:10E3300002C007900D92A030B107D9F712E0A0E01B
:10E34000B2E001C01D92AE30B107E1F70F9460F367
:10E350000D948DFE01E20EBF0FEF0DBF11241FBE05
:10E360000D9460F30D9400F020E030E040ED57E0B4
:10E3700005C0FA013197F1F72F5F3F4F2817390792
:10E38000C0F308959C01260F311DC901A0E0B0E043
:10E390002F5F3F4FABBFFC018791882361F08093D3
:10E3A000C6008091C00086FFFCCF8091C0008064D1
:10E3B0008093C000EACF08958DE08093C6008091DD
:10E3C000C00086FFFCCF8091C00080648093C000B5
:10E3D0008AE08093C6008091C00086FFFCCF8091C8
:10E3E000C00080648093C00008950F94C2F10F9420
:10E3F000DCF10895FC019081992359F09093C600B7
:10E400008091C00086FFFCCF8091C0008064809323
:10E41000C0003196992379F70895282F982F929567
:10E420009F70892F805D8A3308F0895F8093C600D2
:10E430008091C00086FFFCCF8091C00080648093F3
:10E44000C000822F8F70982F905D9A3308F0995FEB
:10E450009093C6008091C00086FFFCCF8091C000E1
:10E4600080648093C00008959C01FB01853691056E
:10E470001CF46330710594F0C90164E670E00F94F8
:10E480002EFE605D7F4F6093C6008091C00086FFC6
:10E49000FCCF8091C00080648093C0002B30310598
:10E4A00014F43297B4F0C90164E670E00F942EFEC4
:10E4B0006AE070E00F942EFE605D7F4F6093C600AF
:10E4C0008091C00086FFFCCF8091C0008064809363
:10E4D000C000C9016AE070E00F942EFEC0968093E0
:10E4E000C6008091C00086FFFCCF8091C000806490
:10E4F0008093C00008951F93182F8EE692EE60E07F
:10E500000F94C2F11093C6008091C00086FFFCCF2B
:10E510008091C00080648093C0000F94DCF11F9153
:10E5200008952F923F924F925F926F927F928F92B7
:10E530009F92AF92BF92CF92DF92EF92FF920F9392
:10E540001F93DF93CF93CDB7DEB762970FB6F894E2
:10E55000DEBF0FBECDBF382E622ECA01DB015C01CB
:10E560006D01772420E2222E2E010894411C511CBB
:10E570008BC081E0A81680E0B80681E0C80680E084
:10E58000D80628F0C601AA27BB270F940DF2BB2797
:10E59000AD2D9C2D8B2D0F940DF28A2D0F940DF225
:10E5A0002092C6008091C00086FFFCCF8091C00001
:10E5B00080648093C0009DE29093C6008091C0006B
:10E5C00086FFFCCF8091C00080648093C0002092C1
:10E5D000C6008091C00086FFFCCF8091C00080649F
:10E5E0008093C00019828601750188249924A1E0D6
:10E5F0003A1651F03A1620F0B2E03B1661F409C029
:10E600000BBFF701779007C0C7010F9477FE782EF4
:10E6100002C0F7017080872D0F940DF22092C60082
:10E620008091C00086FFFCCF8091C0008064809301
:10E63000C000872D8052F401EF70F0708F3520F408
:10E64000E40DF51D708204C0E40DF51D8EE280839B
:10E650000894E11CF11C011D111D0894811C911CE2
:10E6600090E18916910409F0C2CF80E190E0A0E02A
:10E67000B0E0A80EB91ECA1EDB1E198AC2010F9493
:10E68000FAF10F94DCF16A94662009F072CF629679
:10E690000FB6F894DEBF0FBECDBFCF91DF911F91B3
:10E6A0000F91FF90EF90DF90CF90BF90AF909F9031
:10E6B0008F907F906F905F904F903F902F90089534
:10E6C0002F923F924F925F926F927F928F929F9282
:10E6D000AF92BF92CF92DF92EF92FF920F931F9370
:10E6E000DF93CF93CDB7DEB7CD53D1400FB6F894BB
:10E6F000DEBF0FBECDBF01E20EBF0FEF0DBF94B75F
:10E70000F894A89514BE80916000886180936000A1
:10E7100010926000789493FF05C0E0910002F091A0
:10E7200001021995279A2F9A8091C00082608093E8
:10E73000C00080E18093C40088E18093C1000000A4
:10E74000EE24FF24870144E0A42EB12CCC24DD2448
:10E7500024C0C5010197F1F70894E11CF11C011DCB
:10E76000111D21E2E2162EE4F20620E0020720E06D
:10E77000120718F031E0C32ED12CC801B70127ECE5
:10E780003BE140E050E00F9441FE611571058105C9
:10E79000910519F485B1805885B98091C00087FD35
:10E7A00003C0C114D104A9F2A6014F5F5F4FC25E3E
:10E7B000DE4F59834883CE51D140C25EDE4F8881FF
:10E7C0009981CE51D140019711F00D9410FEC05D9A
:10E7D000DE4F19821882C053D14060E0C15DDE4F28
:10E7E0001882CF52D14088249924C35DDE4F19820C
:10E7F0001882CD52D140C05EDE4F188219821A8233
:10E800001B82C052D140CE5CDE4F188219821A8220
:10E810001B82C253D140EE24FF2487010BBFF701B6
:10E8200007911691C45CDE4F19830883CC53D14005
:10E830000D940BFEC25EDE4F28813981CE51D1404E
:10E840002130310509F52091C600C25EDE4F1982E4
:10E850001882CE51D14022C02F5F3F4F4F4F5F4FA4
:10E86000213082E138078AE7480780E0580780F0C6
:10E87000C45CDE4FE881F981CC53D140EF5FFF4F9C
:10E8800019F0EE27FF27099420E030E040E050E047
:10E890008091C00087FFE0CF2091C600C35DDE4FAE
:10E8A00048815981CD52D1404F5F5F4FC35DDE4FEC
:10E8B00059834883CD52D140213209F063C64A3092
:10E8C000510508F05FC60894811C911C53E0851621
:10E8D000910409F059C600E010E018C081E280936D
:10E8E000C6008091C00086FFFCCF8091C00080648C
:10E8F0008093C0002F5F3F4F2931310579F70F9486
:10E90000DCF10F5F1F4F0530110519F020E030E0FA
:10E91000E5CF10920A0210920B0210920C02109294
:10E920000D02109206021092070210920802109235
:10E930000902109202021092030210920402109235
:10E9400005028FEE90EE60E00F94F5F180E191EE1C
:10E9500060E00F94C2F18091C00087FFFCCF9091DE
:10E96000C600903608F09F759032B8F09093C600BC
:10E970008091C00086FFFCCF8091C00080648093AE
:10E98000C000A0E2A093C6008091C00086FFFCCF2B
:10E990008091C00080648093C000983409F4D7C18E
:10E9A0009934B8F4923409F459C1933458F490333B
:10E9B00019F1903308F4E3C59F33A1F1903409F0C5
:10E9C000DEC5BDC0953409F470C1963409F0D7C5D1
:10E9D00098C1923509F42BC2933538F49C3409F46C
:10E9E000F5C1913509F0CBC518C2963509F445C279
:10E9F000993509F0C4C567C483E792EE62E00F94CD
:10EA0000F5F110920602109207021092080210927D
:10EA1000090210920A0210920B0210920C0210923C
:10EA20000D0213C18FE792EE62E00F94F5F18FEEC5
:10EA300090EE60E00F94F5F181E291EE60E00F94CA
:10EA4000C2F187EB91EE60E00F94F5F180E391EE77
:10EA500060E00F94C2F184EE90EE60E00F94F5F167
:10EA60008FE391EE60E00F94C2F186E090E061E008
:10EA700070E00F9434F20F94DCF18DE591EE60E0DC
:10EA80000F94C2F189EC91EE60E00F94F5F18EE401
:10EA900091EE60E00F94C2F183EC91EE60E00F9490
:10EAA000F5F18CE691EE60E00F94C2F18EE10F94E7
:10EAB0000DF288E90F940DF281E00F940DF20F949E
:10EAC000DCF18BE791EE60E00F94C2F119E0E0E039
:10EAD000F0E010935700E4918E2F0F940DF20F94F5
:10EAE000DCF18AE891EE60E00F94C2F1E3E0F0E03F
:10EAF00010935700E4918E2F0F940DF20F94DCF1D8
:10EB000089E991EE60E00F94C2F1E2E0F0E0109349
:10EB10005700E4918E2F0F940DF20F94DCF188EAE8
:10EB200091EE60E00F94C2F1E1E0F0E01093570045
:10EB30001491812F0F940DF20F94DCF107CF8BE825
:10EB400092EE62E00F94F5F18BE492EE60E00F94A8
:10EB5000F5F10F94DCF100E010E019C0C8016F2D51
:10EB60000F947FFEFF2031F489E492EE60E00F9471
:10EB7000C2F10BC0F092C6008091C00086FFFCCFAE
:10EB80008091C00080648093C0000F5F1F4FC80158
:10EB900081519F41A0E0B0E0ABBFFC01F790BAE229
:10EBA000FB1621F0E2E000301E07C1F60F94DCF105
:10EBB0000F94DCF187E592EE60E00F94F5F10F948D
:10EBC000DCF1CC24DD2400E010E01EC0C8010F946D
:10EBD00077FEF82E882331F489E492EE60E00F94FA
:10EBE000C2F10BC08093C6008091C00086FFFCCFAD
:10EBF0008091C00080648093C000FE1419F00894D6
:10EC0000C11CD11C0F5F1F4FC80181519F41A0E063
:10EC1000B0E0ABBFFC01E790FAE2EF1621F022E092
:10EC20000030120799F60F94DCF10F94DCF182E6C4
:10EC300092EE60E00F94C2F1C60161E070E00F94C3
:10EC400034F20F94DCF10F94DCF110920202109276
:10EC50000302109204021092050278CE89E992EE26
:10EC600062E00F94F5F1279A2F9A16C02F9880E052
:10EC700090E0E0EDF7E03197F1F7019684369105E9
:10EC8000C1F72F9A80E090E0E0EDF7E03197F1F7DF
:10EC9000019684369105C1F78091C00087FFE6CFC9
:10ECA0008091C00087FFFCCF64C485EA92EE62E0E9
:10ECB0000F94F5F140910202509103026091040219
:10ECC0007091050281E020E10F9491F2809102029F
:10ECD00090910302A0910402B091050280509F4FD1
:10ECE000AF4FBF4F8093020290930302A0930402A0
:10ECF000B093050280509041A040B04008F426CE69
:10ED0000A4CF83EB92EE62E00F94F5F140910602FE
:10ED100050910702609108027091090280E020E1A1
:10ED20000F9491F28091060290910702A09108023F
:10ED3000B091090280509F4FAF4FBF4F80930602A2
:10ED400090930702A0930802B0930902FFCD80ECD4
:10ED500092EE62E00F94F5F183E792EE60E00F949B
:10ED6000F5F18FE792EE60E00F94F5F18BE892EE0B
:10ED700060E00F94F5F189E992EE60E00F94F5F10F
:10ED800085EA92EE60E00F94F5F183EB92EE60E09D
:10ED90000F94F5F180EC92EE60E00F94F5F187ECC2
:10EDA00092EE60E00F94F5F188ED92EE60E00F9442
:10EDB000F5F18FED92EE60E00F94F5F18AEE92EEB0
:10EDC00060E00F94F5F183E093EEBDCD87EC92EE19
:10EDD00062E00F94F5F181E40F947BF282E40F94EA
:10EDE0007BF283E40F947BF284E40F947BF285E45E
:10EDF0000F947BF286E40F947BF287E40F947BF20E
:10EE000088E40F947BF28AE40F947BF28BE40F94F6
:10EE10007BF28CE40F947BF299CD88ED92EE62E068
:10EE20000F94F5F1772473948824992409C48FED05
:10EE300092EE62E00F94F5F140910A0250910B02BC
:10EE400060910C0270910D0282E020E10F9491F22A
:10EE500080910A0290910B02A0910C02B0910D02D8
:10EE600080509F4FAF4FBF4F80930A0290930B0289
:10EE7000A0930C02B0930D0269CD8AEE92EE62E08F
:10EE80000F94F5F184EE90EE60E00F94F5F18FECC5
:10EE900091EE60E00F94F5F1662477244301CC5D98
:10EEA000DE4F19821882C452D140D401C301B695F5
:10EEB000A79597958795CA5DDE4F88839983AA8326
:10EEC000BB83C652D140CC5DDE4FA881B981C4520C
:10EED000D1401196CC5DDE4FB983A883C452D14096
:10EEE000CD0162E070E00F9434F2B0E2B093C6005E
:10EEF0008091C00086FFFCCF8091C0008064809329
:10EF0000C000EDE2E093C6008091C00086FFFCCF18
:10EF10008091C00080648093C000F0E2F093C6004E
:10EF20008091C00086FFFCCF8091C00080648093F8
:10EF3000C000CA5DDE4FE880F9800A811B81C6529D
:10EF4000D140BB27A12F902F8F2D0F940DF2CA5DBA
:10EF5000DE4F8881C652D1400F940DF2B0E2FB2EF5
:10EF6000F092C6008091C00086FFFCCF8091C00067
:10EF700080648093C0000DE30093C6008091C000C0
:10EF800086FFFCCF8091C00080648093C00010E2B7
:10EF90001093C6008091C00086FFFCCF8091C00016
:10EFA00080648093C0008BBEF3012791C65DDE4F65
:10EFB0002883CA52D140A22EBB24CC24DD2408943D
:10EFC000611C711C811C911C8BBEF3018791282E42
:10EFD0003324442455240894611C711C811C911C09
:10EFE0008BBEF3013791C55DDE4F3883CB52D140E4
:10EFF0000894611C711C811C911C8BBEF30147910C
:10F00000C45DDE4F4883CC52D140ADEFEA2EAFEF66
:10F01000FA2EAFEF0A2FAFEF1A2F6E0C7F1C801E57
:10F02000911E142D032DF22CEE24EA0CFB1C0C1D5A
:10F030001D1D0F940DF220E22093C6008091C000A8
:10F0400086FFFCCF8091C00080648093C000C65DC5
:10F05000DE4F8881CA52D1400F940DF230E23093D6
:10F06000C6008091C00086FFFCCF8091C000806404
:10F070008093C000C45DDE4F8881CC52D1400F9494
:10F080000DF240E24093C6008091C00086FFFCCFA5
:10F090008091C00080648093C000C55DDE4F888190
:10F0A000CB52D1400F940DF250E25093C6008091A4
:10F0B000C00086FFFCCF8091C00080648093C000B8
:10F0C0008FEFE8168FEFF80680E0080780E018075A
:10F0D00031F484E092EE60E00F94C2F1DFC0D80119
:10F0E000C7018070907CA070B0708050904CA040A0
:10F0F000B040D1F52FEF3FE340E050E0E222F322B1
:10F1000004231523CA5DDE4FA880B980CA80DB8046
:10F11000C652D140AE0CBF1CC01ED11EAA0CBB1CD7
:10F12000CC1CDD1C8EE092EE60E00F94C2F1BB2798
:10F13000A12F902F8F2D0F940DF28E2D0F940DF285
:10F1400030E23093C6008091C00086FFFCCF8091F2
:10F15000C00080648093C0004EE34093C60080915D
:10F16000C00086FFFCCF87C08EE09EEFA0E0B0E03D
:10F17000E822F9220A231B239CE0E91694E9F90608
:10F1800090E0090790E0190709F088C0C45DDE4FE0
:10F19000A881CC52D140EA2EFF2400E010E0102FCD
:10F1A0000F2DFE2CEE24C55DDE4FB881CB52D14031
:10F1B000EB0EF11C011D111DD601C501817090706F
:10F1C000A070B070DC0199278827E80EF91E0A1F8D
:10F1D0001B1F20EF30E040E050E0A222B322C42207
:10F1E000D52241E1AA0CBB1CCC1CDD1C4A95D1F7F1
:10F1F000EA0CFB1C0C1D1D1D81E090E0A0E0B0E0BE
:10F20000282239224A225B2235E1220C331C441C7D
:10F21000551C3A95D1F7E20CF31C041D151D57013E
:10F220006801AA0CBB1CCC1CDD1C85E192EE60E0E1
:10F230000F94C2F1C801AA27BB270F940DF2BB2778
:10F24000A12F902F8F2D0F940DF28E2D0F940DF274
:10F2500090E29093C6008091C00086FFFCCF809121
:10F26000C00080648093C000AEE3A093C60080918C
:10F27000C00086FFFCCF8091C00080648093C000F6
:10F28000C601AA27BB270F940DF2BB27AD2D9C2DDD
:10F290008B2D0F940DF28A2D0F940DF20F94DCF14B
:10F2A000CC5DDE4FE881F981C452D140F99709F471
:10F2B0004DCBF4E0EF2EF12C012D112D6E0C7F1CA7
:10F2C000801E911EF2CD83E093EE62E00F94F5F183
:10F2D0008AE192EE60E00F94C2F18091C00087FF56
:10F2E000FCCF1091C6001F751093C6008091C0001E
:10F2F00086FFFCCF8091C00080648093C0000F9493
:10F30000DCF1812F81548A3108F036C1163409F4BA
:10F3100095C0173490F4133409F44EC0143430F40B
:10F320001134F1F0123409F01DC130C0143409F465
:10F3300059C0153409F016C16BC01A3409F4C4C0A1
:10F340001B3438F4173409F48FC0183409F00AC19B
:10F35000A1C01B3409F4D2C01C3409F003C1E8C0B9
:10F360008FEF81B90DC082B1809582B980E090E0C5
:10F37000E0EDF7E03197F1F70196883C9105C1F790
:10F380008091C00087FFEFCF12B8EFC08FEF84B934
:10F390000DC085B1809585B980E090E0E0EDF7E0A3
:10F3A0003197F1F70196883C9105C1F78091C00033
:10F3B00087FFEFCF15B8D9C08FEF87B90DC088B1DF
:10F3C000809588B980E090E0E0EDF7E03197F1F7C3
:10F3D0000196883C9105C1F78091C00087FFEFCF6F
:10F3E00018B8C3C08FEF8AB90DC08BB180958BB9A7
:10F3F00080E090E0E0EDF7E03197F1F70196883C8E
:10F400009105C1F78091C00087FFEFCF1BB8ADC059
:10F410008FEF8DB90DC08EB180958EB980E090E0F0
:10F42000E0EDF7E03197F1F70196883C9105C1F7DF
:10F430008091C00087FFEFCF1EB897C08FEF80BBD1
:10F440000DC081B3809581BB80E090E0E0EDF7E0F6
:10F450003197F1F70196883C9105C1F78091C00082
:10F4600087FFEFCF11BA81C08FEF83BB0DC084B38C
:10F47000809584BB80E090E0E0EDF7E03197F1F714
:10F480000196883C9105C1F78091C00087FFEFCFBE
:10F4900014BA6BC08FEF809301010FC080910201FD
:10F4A00080958093020180E090E0E0EDF7E03197F5
:10F4B000F1F70196883C9105C1F78091C00087FF64
:10F4C000EDCF1092020151C08FEF809304010FC065
:10F4D0008091050180958093050180E090E0E0ED4A
:10F4E000F7E03197F1F70196883C9105C1F78091DB
:10F4F000C00087FFEDCF1092050137C08FEF8093DA
:10F5000007010FC08091080180958093080180E079
:10F5100090E0E0EDF7E03197F1F70196883C910536
:10F52000C1F78091C00087FFEDCF109208011DC088
:10F530008FEF80930A010FC080910B01809580931B
:10F540000B0180E090E0E0EDF7E03197F1F70196F4
:10F55000883C9105C1F78091C00087FFEDCF1092E4
:10F560000B0103C085E292EEEEC98091C00087FFD7
:10F57000FCCF8091C600EAC988E392EEE4C98CE131
:10F5800091EEE1C988249924933011F1943028F444
:10F59000913089F09230B8F408C0953061F195301F
:10F5A000F0F0963009F048C043C02B3109F042C951
:10F5B00091E06BE13FC96227C15DDE4F2883CF52E6
:10F5C000D14092E037C9B22FA0E0622793E032C960
:10F5D000822F90E0A82BB92B622794E02BC92E3004
:10F5E00009F039C3622795E0C05DDE4F19821882A9
:10F5F000C053D1401FC9E1E0F0E0EC0FFD1FC05D3A
:10F60000DE4F08811981C053D140E00FF11F2083E4
:10F610000F5F1F4FC05DDE4F19830883C053D14079
:10F6200062270A171B0709F005C9D80196E002C92D
:10F63000261709F010C303C0973009F0FBC87724E0
:10F640009981933109F412C19431C8F4963009F4C8
:10F65000D8C0973050F4923009F406C1933009F4C1
:10F660006DC0913009F059C253C0913109F477C08F
:10F67000923108F0BBC0903109F04FC2F5C098310B
:10F6800009F487C0993150F4953109F4EFC09531F0
:10F6900008F4C6C1963109F040C2C2C19A3109F4DA
:10F6A0006CC09A3108F491C09B3109F45BC09D3164
:10F6B00009F033C29D81903359F48F81882311F46E
:10F6C0009EE11CC0813011F091E018C098E916C08D
:10F6D000892F807591F0903539F4E0E0F0E089E011
:10F6E0008093570094910AC0983539F4E3E0F0E034
:10F6F00089E080935700949101C090E01A821B82A8
:10F700008D818C831D829E831F8227E030E009C299
:10F710001A8288E08B8381E48C8386E58D8382E581
:10F720008E8389E48F8383E5888780E589878FE5E9
:10F730008A8782E38B872BE030E0F3C18A818139AD
:10F7400041F0823941F0803911F48FE005C080E04A
:10F7500003C082E001C08AE01A828B8344C0772410
:10F76000739482C08D81882311F48EE12CC0813086
:10F7700011F081E028C088E926C01A82E1E0F0E0BB
:10F7800089E08093570084918B831C8224E030E0D1
:10F79000C8C18B81803589F48C81883039F4E2E0EE
:10F7A000F0E089E08093570084910DC0E0E0F0E044
:10F7B00089E080935700849106C0E3E0F0E089E09F
:10F7C0008093570084911A82DFCF8D81836C99E0FA
:10F7D000E1E0F0E0082E90935700E89507B600FCB2
:10F7E000FDCF1A821B8223E030E09BC180EC8A832C
:10F7F000CE5CDE4F188219821A821B82C253D1401E
:10F800008EC18A8190E0A0E0B0E0582F44273327D2
:10F8100022278B8190E0A0E0B0E0DC0199278827C7
:10F82000282B392B4A2B5B2B8D8190E0A0E0B0E098
:10F83000282B392B4A2B5B2B8C8190E0A0E0B0E089
:10F84000BA2FA92F982F8827282B392B4A2B5B2BCF
:10F85000220F331F441F551FC05EDE4F288339839C
:10F860004A835B83C052D1401A8259C13A81C95C34
:10F87000DE4F3883C753D140CA5CDE4F1882C6536F
:10F88000D1408B81C82EDD24CA5CDE4F488159816E
:10F89000C653D140C42AD52A933109F082C0CE5C28
:10F8A000DE4F88819981AA81BB81C253D1408050AB
:10F8B000904CA340B04030F583E0CE5CDE4FE88052
:10F8C000F9800A811B81C253D140F70100935B008C
:10F8D00080935700E89507B600FCFDCFCE5CDE4F65
:10F8E000088119812A813B81C253D14000501F4FAA
:10F8F0002F4F3F4FCE5CDE4F088319832A833B8313
:10F90000C253D140C05EDE4F488159816A817B81FC
:10F91000C052D140DE011B9631E08C9111962C91A2
:10F9200011971296C75CDE4F2883C953D140C85C3B
:10F93000DE4F1882C853D14090E0C85CDE4FE881AA
:10F94000F981C853D1408E2B9F2B0C01FA01609393
:10F950005B0030935700E89511244E5F5F4F6F4F67
:10F960007F4F0EEFE02E0FEFF02ECE0CDF1CC114F8
:10F97000D10499F685E0C05EDE4F088119812A81A5
:10F980003B81C052D140F80120935B008093570027
:10F99000E89507B600FCFDCF81E180935700E8951C
:10F9A00035C0C05EDE4F88819981AA81BB81C0527B
:10F9B000D140B695A795979587957C018601ABE0D8
:10F9C000AA2EB12CAC0EBD1E0BC0D5016D915D01F0
:10F9D000C7010F947FFE0894E11CF11C01501040F8
:10F9E0000115110591F7A60160E070E0440F551F65
:10F9F000661F771FC05EDE4FE880F9800A811B8199
:10FA0000C052D1404E0D5F1D601F711F1A82C05E33
:10FA1000DE4F488359836A837B83C052D1407FC0C5
:10FA2000FA80C55CDE4FF882CB53D140C65CDE4F16
:10FA30001882CA53D1408B81C82EDD24C65CDE4FAC
:10FA400008811981CA53D140C02AD12A1A828981DA
:10FA5000BE016D5F7F4F843121F59601C05EDE4FA0
:10FA6000E880F9800A811B81C052D1400BBFF701A9
:10FA700087919691DB018C9311969C936E5F7F4FDB
:10FA8000D801C7010296A11DB11DC05EDE4F88835B
:10FA90009983AA83BB83C052D14022503040F1F6F3
:10FAA00036C0C05EDE4F288139814A815B81C052F9
:10FAB000D1400894C108D108760100E010E0089414
:10FAC000C11CD11C0894E11CF11C011D111DE20E8A
:10FAD000F31E041F151F21BDBB27A52F942F832FB5
:10FAE00082BD2F5F3F4F4F4F5F4FF89A80B5DB01CC
:10FAF0008D93BD012E153F054007510761F7C05E8C
:10FB0000DE4F288339834A835B83C052D1409601FC
:10FB10002D5F3F4FFB01108204C080EC8A8322E0FE
:10FB200030E08BE18093C6008091C00086FFFCCF5F
:10FB30008091C00080648093C000C15DDE4FF88179
:10FB4000CF52D140F093C6008091C00086FFFCCF19
:10FB50008091C00080648093C000432F3093C60022
:10FB60008091C00086FFFCCF8091C00080648093AC
:10FB7000C000922F2093C6008091C00086FFFCCF6A
:10FB80008091C00080648093C0008EE08093C600A6
:10FB90008091C00086FFFCCF8091C000806480937C
:10FBA000C00065E1C15DDE4FE880CF52D1406E25D7
:10FBB00069276427FE01319610C090819093C6009A
:10FBC0008091C00086FFFCCF31968091C000806498
:10FBD0008093C0006927215030402115310569F715
:10FBE0006093C6008091C00086FFFCCF8091C0006A
:10FBF00080648093C00085B1805885B9772081F4F6
:10FC0000C15DDE4F0881CF52D1400F5FC15DDE4F35
:10FC10000883CF52D14090E0A0E0B0E00D941AF4F8
:10FC200027982F9880E090E020ED37E0F901319798
:10FC3000F1F7019684369105C9F700008091C00064
:10FC40008D7F8093C00081E180935700E895EE2777
:10FC5000FF270994FFCF90E00D941AF497FB092E2B
:10FC600007260AD077FD04D02ED006D000201AF443
:10FC7000709561957F4F0895F6F7909581959F4F08
:10FC80000895A1E21A2EAA1BBB1BFD010DC0AA1FDD
:10FC9000BB1FEE1FFF1FA217B307E407F50720F0F5
:10FCA000A21BB30BE40BF50B661F771F881F991F70
:10FCB0001A9469F760957095809590959B01AC01B9
:10FCC000BD01CF010895AA1BBB1B51E107C0AA1FAC
:10FCD000BB1FA617B70710F0A61BB70B881F991FED
:10FCE0005A95A9F780959095BC01CD010895F99991
:10FCF000FECF92BD81BDF89A992780B50895262F31
:10FD0000F999FECF1FBA92BD81BD20BD0FB6F89400
:0EFD1000FA9AF99A0FBE01960895F894FFCF63
:00000001FF
