:020000040000FA
:100000000C945C010C948D010C948D010C948D0169
:100010000C948D010C948D010C948D010C948D0128
:100020000C948D010C9480110C9480110C9480110F
:100030000C948D010C948D010C948D010C948D0108
:100040000C948D010C9452110C948D010C948D0123
:100050000C948D010C948D010C948D010C947E10E8
:100060000C948D010C948D010C948D010C948D01D8
:100070000C948D010C948D010C948D010C948D01C8
:100080000C9424110C948D010C948D010C948D0111
:100090000C9448100C941E100C948D010C94FC11BF
:1000A0000C948D010C948D010C94F6100C948D0120
:1000B0000C948D010C948D010C948D010C94C8103E
:1000C0000C948D010C948D010C948D010C948D0178
:1000D0000C948D010C948D010C948D010C948D0168
:1000E0000C948D010C9469020C944E040C94E70658
:1000F0000C9404070C9455020C9480030C94B003E8
:100100000C9417020C94A6030C94E0060C94AF0216
:100110000C94F2060C9494030C9477020C94400611
:100120000C946B030C9467080C94E4050C94DD03A9
:100130000C9486030C947D030C9419020C94AC036C
:100140000C9420130C948A030C94FC020C94AB03C3
:100150000C9490030C9458060C9475030C940E04A4
:100160000C944D1A0C9498030C9418020C94E3050B
:100170000C94BE060C94CB050C9446020C947903A7
:100180000C94CD060C9471030C9403070C94A203F9
:100190000C949E0300002100240027002A002D005B
:1001A0003000330001010000040107010A010000D2
:1001B0000A0B02090C0D0E080703040100000000E1
:1001C000000000000000000000000000000000002F
:1001D00000000000000000000000121110000000EC
:1001E000000000000000000000000000000000000F
:1001F00000000000000020002300260029002C0041
:100200002F00320000010000030106010901000077
:100210002200250028002B002E00310034000201AE
:100220000000050108010B01050505050705080883
:100230000808020202020A0A080804040404010170
:100240000101010101010303030303030303040785
:1002500007070C0C0C0C0C0C0C0C0202020206061C
:100260000606060606060B0B0B0B0B0B0B0B01020F
:1002700010202008081020401020408002010201B8
:100280000804020101020408102040808040201070
:1002900008040201800402018040201008040201C9
:1002A0000804020101020408102040800102040831
:1002B0001020408020134D1A11241FBECFEFD1E231
:1002C000DEBFCDBF00E00CBF13E0A0E0B2E0E4EA87
:1002D000FBE300E00BBF02C007900D92A43AB10708
:1002E000D9F726E0A4EAB3E001C01D92A738B2070F
:1002F000E1F711E0CBE5D1E000E006C0219701096C
:10030000802FFE010E948E1BCA35D10780E00807AE
:10031000A9F70E947B140C94C01D0C9400008F92CE
:100320009F92AF92BF92FF920F931F93CF93DF9351
:10033000F09080062FE22F1508F44CC02091820621
:1003400008E512E0021B110927FD1395000F111F8C
:10035000000F111F20918106C8E8D0E0C21BD1090F
:1003600027FDD395CC0FDD1FCC0FDD1F4E010D2EC9
:10037000000CAA08BB089801012E000C440B550B79
:10038000281939094A095B09DC010E94351B24EB55
:1003900030E040E050E00E940B1B820E931EA41E32
:1003A000B51E8C169D062CF0E801801691060CF403
:1003B000E4012297CC0FDD1F2FB7F8948F2D90E02A
:1003C000FC01EE0FFF1FE80FF91FED5BFA4FD28320
:1003D000C1832FBFDF91CF911F910F91FF90BF90ED
:1003E000AF909F908F90089596E0899FD00111243F
:1003F000A451BA4F90967C936E935F9791E091963B
:100400009C939197E0915906F0915A069091580665
:10041000992339F0309751F0811108C08091080676
:100420001994309719F05C968C91FACF089508953D
:100430000895AF92BF92CF92DF92EF92FF920F9307
:100440001F93CF93DF936C017B018B01040F151F6A
:10045000EB015E01AE18BF08C017D10759F06991D2
:10046000D601ED91FC910190F081E02DC601199526
:10047000892B79F7C501DF91CF911F910F91FF90E3
:10048000EF90DF90CF90BF90AF900895FC01538D17
:10049000448D252F30E0842F90E0821B930B54175E
:1004A00010F0CF96089501970895FC01918D828DEB
:1004B000981761F0A28DAE0FBF2FB11D5D968C9184
:1004C000928D9F5F9F73928F90E008958FEF9FEFC3
:1004D0000895FC01918D828D981731F0828DE80F7F
:1004E000F11D858D90E008958FEF9FEF0895FC0139
:1004F000918D228D892F90E0805C9F4F821B910906
:100500008F73992708958AE994E00E94770221E089
:10051000892B09F420E0822F0895FC01A48DA80FF7
:10052000B92FB11DA35ABF4F2C91848D90E0019635
:100530008F739927848FA689B7892C93A089B18955
:100540008C91837080648C93938D848D981306C0F6
:100550000288F389E02D80818F7D80830895EF925A
:10056000FF920F931F93CF93DF93EC0181E0888F6D
:100570009B8D8C8D98131AC0E889F989808185FF3D
:1005800015C09FB7F894EE89FF896083E889F989DF
:1005900080818370806480839FBF81E090E0DF91E1
:1005A000CF911F910F91FF90EF900895F62E0B8D34
:1005B00010E00F5F1F4F0F731127E02E8C8D8E11EF
:1005C0000CC00FB607FCFACFE889F989808185FF56
:1005D000F5CFCE010E948D02F1CFEB8DEC0FFD2FF8
:1005E000F11DE35AFF4FF0829FB7F8940B8FEA8911
:1005F000FB8980818062CFCFCF93DF93EC01888D20
:100600008823B9F0AA89BB89E889F9898C9185FD8D
:1006100003C0808186FD0DC00FB607FCF7CF8C911B
:1006200085FFF2CF808185FFEDCFCE010E948D0244
:10063000E9CFDF91CF91089580E090E0892B49F0D8
:1006400080E090E0892B29F00E94000081110E9437
:10065000000080E090E0892B29F00E948302811144
:100660000E94000080E090E0892B49F080E090E05B
:10067000892B29F00E94000081110E94000080E077
:1006800090E0892B49F080E090E0892B29F00E94CE
:10069000000081110C94000008958150823108F00F
:1006A0005AC0E82FF0E08827E75AFC4F8F4F0C9490
:1006B0008E1B79037D036B0371037503AB0380030A
:1006C00086038A039003940398039E03A203AB035B
:1006D000A603AC03B003809180008F7780938000E5
:1006E0000895809180008F7DF9CF80918000877F71
:1006F000F5CF84B58F7784BD089584B58F7DFBCF0A
:100700008091B0008F778093B00008958091B00001
:100710008F7DF9CF809190008F778093900008951E
:10072000809190008F7DF9CF80919000877FF5CFE9
:100730008091A0008F778093A00008958091A00001
:100740008F7DF9CF8091A000877FF5CF8091200128
:100750008F77809320010895809120018F7DF9CFBC
:1007600080912001877FF5CFCF93DF93282F30E052
:10077000F901E255FE4F8491F901E259FD4FD49100
:10078000F901E85DFD4FC491CC23A1F081110E94D5
:100790004D03EC2FF0E0EE0FFF1FEC50FE4FA59144
:1007A000B491EC91ED2381E090E009F480E0DF91D9
:1007B000CF91089580E090E0FACF862F0C94B40397
:1007C0001F93CF93DF93282F30E0F901E255FE4FBE
:1007D0008491F901E259FD4FD491F901E85DFD4F93
:1007E000C491CC23A9F0162F81110E944D03EC2F48
:1007F000F0E0EE0FFF1FE25FFD4FA591B4918FB7C0
:10080000F894EC91111108C0D095DE23DC938FBFD2
:10081000DF91CF911F910895DE2BF8CF862F642FA3
:100820000C94E003CF93DF9390E0FC01E259FD4F7D
:100830002491885D9D4FFC0184918823C9F090E04C
:10084000880F991FFC01EC56FE4FA591B491FC0155
:10085000E25FFD4FC591D49161110DC09FB7F8942F
:100860008C91209582238C938881282328839FBF95
:10087000DF91CF910895623051F49FB7F8943C9185
:10088000822F809583238C93E8812E2BEFCF8FB717
:10089000F894EC912E2B2C938FBFEACF862F642FE8
:1008A0000C9412043FB7F89480917D0490917E04DB
:1008B000A0917F04B091800426B5A89B05C02F3F6E
:1008C00019F00196A11DB11D3FBFBA2FA92F982F76
:1008D0008827BC01CD01620F711D811D911D42E071
:1008E000660F771F881F991F4A95D1F708958F9239
:1008F0009F92AF92BF92CF92DF92EF92FF924B0105
:100900005C010E9452046B017C010E9452046C192C
:100910007D098E099F09683E734081059105A8F302
:1009200021E0821A9108A108B10888EEC80E83E080
:10093000D81EE11CF11C81149104A104B10429F713
:10094000FF90EF90DF90CF90BF90AF909F908F90EF
:1009500008952FB7F8946091790470917A0480918A
:100960007B0490917C042FBF08950F931F93CF9326
:10097000DF93C82FD62F86E0C89FF0011124E451E1
:10098000FA4F11A2878D90A181309105F1F058F0B6
:1009900082309105F1F1039709F440C0DF91CF91C6
:1009A0001F910F9108956623C9F361E070E08C2FC9
:1009B0000E94F4010E94A9046093440670934506C6
:1009C0008093460690934706E9CF0E94A9040091C0
:1009D0004406109145062091460630914706AB012A
:1009E000BC01401B510B620B730B8091560690911A
:1009F0005706B0E0A0E084179507A607B70748F4AC
:100A000062E070E08C2FDF91CF911F910F910C94D9
:100A1000F40163E070E0D111C1CFF4CF70E060E089
:100A2000F1CFAF92BF92CF92DF92EF92FF920F93EE
:100A30001F93CF93DF936B017A01EC01CC58DB4F0E
:100A400028813CE0389F8001399F100D1124A0902F
:100A5000D305B12C27FF1FC0FB01118210828881B2
:100A60008F5F888388819801280F311D87FD3A9513
:100A7000F6012A153B051CF488818C30C4F1808175
:100A80009181049680349C4908F473C0F6018081FA
:100A90009181049670C088819801280F311D87FDCF
:100AA0003A952A153B05DCF68881A801480F511DAF
:100AB00087FD5A95FA01EE0FFF1FE40FF51FED5B5E
:100AC000FA4F808186FFCBCF8881F801E80FF11DB6
:100AD00087FDFA95CF01EE0FFF1FE80FF91FED5BC1
:100AE000FA4F808160E08F730E94E003B8CF80816D
:100AF00091812881A801420F511D27FD5A959A0125
:100B0000FA01EE0FFF1FE20FF31FED5BFA4F218199
:100B10003281820F931FF70191838083888198012E
:100B2000280F311D87FD3A95F901EE0FFF1FE20FE7
:100B3000F31FED5BFA4F808186FF22C08881080F8A
:100B4000111D87FD1A95F801EE0FFF1FE00FF11F31
:100B5000ED5BFA4F808161E08F73DF91CF911F9140
:100B60000F91FF90EF90DF90CF90BF90AF900C94DB
:100B7000E00380E49CE9F701918380838FEF888311
:100B8000DF91CF911F910F91FF90EF90DF90CF9069
:100B9000BF90AF900895209183043091840428176A
:100BA000390771F49091810480918204981741F083
:100BB000E0918104F0E0EC5CFB4F808190E00895CF
:100BC0008FEF9FEF08950895EF92FF920F931F9379
:100BD000CF93DF93DC015C96ED90FC905D97E11480
:100BE000F10479F481E090E013969C938E93129730
:100BF00090E080E0DF91CF911F910F91FF90EF90F7
:100C000008955196ED91FC91529750968C91509782
:100C1000982F90950FB75E962C915E97122F1270B9
:100C200021FD6095F8942081112319F1282B208350
:100C3000E7012197F1F728E0462F50E0308160FF6F
:100C40001AC0382B3083E7012197F1F7BA01759567
:100C50006795215089F7112381F080818923808352
:100C60000FBF5C968D919C910197F1F781E090E028
:100C7000C1CF2923DCCF3923E5CF9081892BEFCF5A
:100C800020918304309184042817390771F48091EE
:100C900082042091810490E0805C9F4F821B910927
:100CA00060E470E00E947A1B089590E080E008956F
:100CB000209183043091840428173907B9F4909166
:100CC000810480918204981789F0E0918104F0E01A
:100CD000EC5CFB4F80812091810430E02F5F3F4F1F
:100CE0002F7333272093810490E008958FEF9FEFB7
:100CF00008952091EA03260F3327331F213231054F
:100D0000ECF420910E04FC0190E080E0243069F0C6
:100D100082E00895A091EA032191AC0146535C4F13
:100D2000A40FB52FB11D2C930196861798F38091CF
:100D3000EA03680F6093EA0380E0089581E0089574
:100D400010920E0481E08093100410920F0461E071
:100D500084E10E94E00361E085E10E94E003E9EBA9
:100D6000F0E080818E7F808380818D7F808388E426
:100D70008093B80085E48093BC000895E0918C04D2
:100D800080918B04E81730F4F0E0EC55FC4F808143
:100D900090E008958FEF9FEF089590918C048091DB
:100DA0008B042FEF3FEF981748F4E92FF0E0EC5554
:100DB000FC4F208130E09F5F90938C04C90108951F
:100DC00080918B0490918C04891B990B0895CF938B
:100DD000DF93CB01EA01642F0E947906CE01DF91F7
:100DE000CF910895CF93DF931F92CDB7DEB769837C
:100DF00061E0CE0101960E94790681E090E00F90BB
:100E0000DF91CF910895089590E080E00895CF9309
:100E1000DF93EC0160E08E810E94E00361E08E814F
:100E20000E94E00360E08E810E94E0038BE891E085
:100E30000197F1F7DF91CF910895CF92DF92EF9272
:100E4000FF920F931F93CF93DF936C017C0187E098
:100E5000E80EF11CD0E0C0E0062F10E0B8010C2E27
:100E600002C0759567950A94E2F76170F701819168
:100E70007F010E94E0032196C430D10579F7C601B5
:100E8000DF91CF911F910F91FF90EF90DF90CF9066
:100E90000C940707CF92DF92EF92FF920F931F936C
:100EA000CF93DF93EC01F62E642F8C810E94E00338
:100EB0008D818F3F19F060E00E94E0030F2D10E05C
:100EC0008F8584FF25C06E0187E0C80ED11CF12CF0
:100ED000E12CB8010E2C02C0759567950A94E2F7D3
:100EE0006170F60181916F010E94E003FFEFEF1A3C
:100EF000FF0A88E0E816F10461F7CE01DF91CF9197
:100F00001F910F91FF90EF90DF90CF900C94070707
:100F1000B80184E0759567958A95E1F7CE010E9446
:100F20001D076F2DCE01DF91CF911F910F91FF9083
:100F3000EF90DF90CF900C941D0740E0682F84ED78
:100F400095E00C944A0781E00E949D078BE39FE1A6
:100F50000197F1F70895CF93DF93813029F09091B5
:100F6000E30598609093E3058093E7051092E80508
:100F700080E48093E90580E18093EA0580E5809331
:100F8000EB0561E08091D8050E9412048091D9059B
:100F90008F3F19F061E00E94120461E08091DA0550
:100FA0000E941204C4EDD5E09E01245D354080917D
:100FB000E30584FD0BC084E090E0219628173907F3
:100FC00044F461E08E810E941204EECF88E090E04C
:100FD000F4CF8BE39DE00197F1F760E08091D805B5
:100FE0000E94E00360E08091DA050E94E0038091B6
:100FF000D9058F3F19F060E00E94E0038091E3057E
:1010000084FD34C063E084ED95E00E941D07CBE4CD
:10101000D6E4CE010197F1F763E084ED95E00E94FC
:101020001D072197F1F763E084ED95E00E941D070D
:1010300083E592E00197F1F762E084ED95E00E948C
:101040001D078091E30580620E949D0784E08093E4
:10105000E4058CE00E949D070E94A30782E0809334
:10106000E50586E0DF91CF910C949D0780620E9498
:101070009D078BE496E40197F1F78091E305806288
:101080000E949D0783E592E00197F1F78091E305C7
:1010900080620E949D07D5CFCF93DF93EB019091A3
:1010A000E705891710F08FEF890FE82FF0E0EC5279
:1010B000FA4F848980680E949D074C815D81688118
:1010C000798184ED95E0DF91CF910C94190241E094
:1010D0000E944A0781E090E00895FC010190002001
:1010E000E9F73197AF01481B590BBC018BE596E03E
:1010F0000C9419028F929F92AF92BF920F931F93FD
:10110000CF93DF93CDB7DEB7A1970FB6F894DEBFCC
:101110000FBECDBF19A2423008F44AE08E010F5D28
:101120001F4F842E912CB12CA12CA50194010E945B
:101130003D1BE62FB901CA01EA30F4F4E05DD801A5
:10114000EE938D01232B242B252B79F790E080E063
:10115000109719F0CD010E946D08A1960FB6F89472
:10116000DEBF0FBECDBFDF91CF911F910F91BF901A
:10117000AF909F908F900895E95CE1CFCF93DF937C
:101180000E946D08EC0182E892E00E946D088C0FCD
:101190009D1FDF91CF910895CF92DF92EF92FF9242
:1011A000CF93DF936C01990FEE08FF08F7FE1FC085
:1011B0006DE28BE596E00E94E405EC016627772757
:1011C000CB016C197D098E099F094AE00E947A08BB
:1011D000C80FD91F82E892E00E946D088C0F9D1FF6
:1011E000DF91CF91FF90EF90DF90CF9008954AE08C
:1011F000C701B6010E947A08EC01ECCF0F931F9350
:10120000CF93DF93EC0188819981009759F02A816F
:101210003B812617370730F081E0DF91CF911F9196
:101220000F9108958B016F5F7F4F0E94CF1C009735
:1012300059F0998388831B830A832C813D81232B5A
:1012400059F7FC011082E8CF80E0E7CFEF92FF92E0
:101250000F931F93CF93DF936115710541F480E0E5
:10126000DF91CF911F910F91FF90EF90089541155D
:101270005105B1F07B01EC010C811D81040F151F9C
:10128000B8010E94FE08882351F3288139818C819E
:101290009D81B701820F931F0E94B91D1D830C838E
:1012A00081E0DECFCF93DF93EC01888199810097B5
:1012B00011F00E94461C198218821D821C821B821A
:1012C0001A82DF91CF910895CF93DF93EC01FB0158
:1012D00001900020E9F73197AF01461B570B0E94A0
:1012E0002609811103C0CE010E945209CE01DF916F
:1012F000CF910895CF93DF93EC01FB014481558199
:10130000608171810E942609811103C0CE010E9473
:101310005209CE01DF91CF910895EF92FF920F9382
:101320001F93CF93DF93EC017B018A01BA010E94E6
:10133000FE0881110BC0CE010E945209CE01DF913F
:10134000CF911F910F91FF90EF9008951D830C8313
:10135000B701888199810E94B91DF0CFFB010190EE
:101360000020E9F73197AF01461B570B0C948D090C
:101370000F931F93CF93DF93CDB7DEB762970FB66E
:10138000F894DEBF0FBECDBF8C01CB01F8011182F6
:10139000108213821282158214824AE0BE016F5FAE
:1013A0007F4F0E94901ABE016F5F7F4FC8010E945D
:1013B000AE0962960FB6F894DEBF0FBECDBFDF91C7
:1013C000CF911F910F9108950F931F93CF93DF93A8
:1013D000CDB7DEB7A2970FB6F894DEBF0FBECDBF74
:1013E0008C01CB01BA01F8011182108213821282A2
:1013F000158214822AE0AE014F5F5F4F0E949B1A54
:10140000BE016F5F7F4FC8010E94AE09A2960FB662
:10141000F894DEBF0FBECDBFDF91CF911F910F912A
:1014200008950F931F93CF93DF9300D000D000D087
:10143000CDB7DEB78C01862FF8011182108213829E
:101440001282158214824AE0BE016F5F7F4F90E0E6
:101450000E94E11ABE016F5F7F4FC8010E94AE0972
:1014600029960FB6F894DEBF0FBECDBFDF91CF91A6
:101470001F910F910895CF93DF93EC01FB01861725
:10148000970749F0608171816115710541F04481D0
:1014900055810E948D09CE01DF91CF9108950E9460
:1014A0005209F9CFFC011182108213821282158237
:1014B00014820C943B0AFC01118210821382128266
:1014C00015821482FB0101900020E9F73197AF01EA
:1014D000461B570B0C948D09AF92BF92CF92DF92AF
:1014E000EF92FF920F931F93CF93DF938C017B01B9
:1014F0005A01CC24C394D12C452B29F4D12CC12CD6
:10150000AA24A394B12C64E872E0C8010E945B0A8B
:10151000D7011496CD91DC91CC16DD06E0F4AC1623
:10152000BD0608F4E501D701ED91FC911197EC0F90
:10153000FD1FB08010826D917C916C0D7D1DC801E6
:1015400061157105A1F00E94AE09F70180819181BA
:10155000C80FD91FB882C801DF91CF911F910F9199
:10156000FF90EF90DF90CF90BF90AF9008950E94D2
:101570005209EBCFFC0180819181009711F00C940E
:10158000461C0895CF93DF9385ED8093BC00809136
:10159000C6039091C703A091C803B091C9030796F1
:1015A000A11DB11D23E0B695A795979587952A951E
:1015B000D1F72091BC0024FD03C010920E0436C068
:1015C0004091C6035091C7036091C8037091C9034D
:1015D000452B462B472B69F30097A105B10541F038
:1015E00025E32A95F1F700000197A109B109E1CFA0
:1015F0008091C50391E09093C4038823B9F0C09112
:10160000B800D091BA008091BC008A7B8093BC0066
:1016100060E084E10E94E00360E085E10E94E00375
:101620000E94A006D093BA00C093B800DF91CF917A
:101630000895CF92DF92EF92FF920F931F93CF9373
:10164000DF93CDB7DEB768970FB6F894DEBF0FBE55
:10165000CDBF0E94A307809199048A3291F485E856
:1016600092E00E94BE0810928F0410928E04109295
:10167000930410929204109291041092900410928C
:10168000980480919904813391F483E992E00E9457
:10169000BE0820919004309191042115310509F084
:1016A00064C181E090E090939104809390048091D4
:1016B0009904843391F48CE992E00E94BE08209151
:1016C0009004309191042115310509F0AFC184E0F7
:1016D00090E09093910480939004809199048733D3
:1016E00091F485EA92E00E94BE0820919004309126
:1016F00091042115310509F0FAC187E090E090933B
:1017000091048093900480919904803309F06AC019
:101710008EEA92E00E94BE0880919004909191041C
:10172000009709F45FC06C01092E000CEE08FF0859
:101730004AE0489F9001499F300D11243093910455
:1017400020939004B701A601CE0101960E94E409FE
:101750000D811E81CE0101960E94BA0A0430110546
:1017600008F440C0B701A601CE0143960E94E409E7
:1017700070E060E0CE010D960E94B8094F89588D47
:10178000BE016D5E7F4FCE0101960E946C0ABE01C4
:101790006F5F7F4FCE0107960E94520ABE01635FC2
:1017A0007F4FCE0107960E947A09BC01CE01439675
:1017B0000E943B0ACE0107960E94BA0ACE0101960A
:1017C0000E94BA0ACE010D960E94BA0A8B899C89A2
:1017D0000E94691A7093910460939004CE0143961D
:1017E0000E94BA0A80919904823391F487EB92E0C7
:1017F0000E94BE082091900430919104211531057A
:1018000009F0D6C182E090E0909391048093900417
:1018100080919904853391F480EC92E00E94BE0897
:1018200020919004309191042115310509F021C2D5
:1018300085E090E0909391048093900480919904C6
:10184000883391F489EC92E00E94BE0820919004C4
:10185000309191042115310509F06CC288E090E0C7
:10186000909391048093900480919904833279F449
:1018700082ED92E00E94BE088091900490919104C4
:1018800090938F0480938E0481E0809398048091DC
:101890009904833391F48FED92E00E94BE08209169
:1018A0009004309191042115310509F0A4C283E020
:1018B00090E09093910480939004809199048633F2
:1018C00091F488EE92E00E94BE082091900430913D
:1018D00091042115310509F0EFC286E090E0909364
:1018E00091048093900480919904893391F481EF5D
:1018F00092E00E94BE08209190043091910421153D
:10190000310509F03AC389E090E090939104809307
:101910009004809199048434C9F48091900490914A
:1019200091049093930480939204109291041092E6
:1019300090048AEF92E00E94BE088FE280938D04AB
:101940006AE070E080E090E00E94770468960FB64D
:10195000F894DEBF0FBECDBFDF91CF911F910F91E5
:10196000FF90EF90DF90CF9008956901032E000C57
:10197000EE08FF084AE0429FC001439F900D1124EA
:1019800001969093910480939004B701A601CE0133
:1019900001960E94E4090D811E81CE0101960E94EC
:1019A000BA0A0430110508F482CEB701A601CE01AF
:1019B00043960E94E40961E070E0CE010D960E941A
:1019C000B8094F89588DBE016D5E7F4FCE010196DB
:1019D0000E946C0ABE016F5F7F4FCE0107960E9486
:1019E000520ABE01635F7F4FCE0107960E947A09BB
:1019F000BC01CE0143960E943B0ACE0107960E948D
:101A0000BA0ACE0101960E94BA0ACE010D960E9432
:101A1000BA0A8B899C890E94691A70939104609319
:101A20009004CE0143960E94BA0A41CE6901032E6A
:101A3000000CEE08FF084AE0429FC001439F900D52
:101A4000112404969093910480939004B701A60109
:101A5000CE0101960E94E4090D811E81CE010196FE
:101A60000E94BA0A0430110508F437CEB701A60166
:101A7000CE0143960E94E40964E070E0CE010D9629
:101A80000E94B8094F89588DBE016D5E7F4FCE010F
:101A900001960E946C0ABE016F5F7F4FCE010796D0
:101AA0000E94520ABE01635F7F4FCE0107960E94DB
:101AB0007A09BC01CE0143960E943B0ACE010796EB
:101AC0000E94BA0ACE0101960E94BA0ACE010D9672
:101AD0000E94BA0A8B899C890E94691A70939104AA
:101AE00060939004CE0143960E94BA0AF6CD690134
:101AF000032E000CEE08FF084AE0429FC001439FFE
:101B0000900D112407969093910480939004B7014F
:101B1000A601CE0101960E94E4090D811E81CE012D
:101B200001960E94BA0A0430110508F4ECCDB70101
:101B3000A601CE0143960E94E40967E070E0CE0161
:101B40000D960E94B8094F89588DBE016D5E7F4F7A
:101B5000CE0101960E946C0ABE016F5F7F4FCE01DD
:101B600007960E94520ABE01635F7F4FCE0107961F
:101B70000E947A09BC01CE0143960E943B0ACE0125
:101B800007960E94BA0ACE0101960E94BA0ACE01B7
:101B90000D960E94BA0A8B899C890E94691A7093DB
:101BA000910460939004CE0143960E94BA0AABCD93
:101BB0006901032E000CEE08FF084AE0429FC001B5
:101BC000439F900D1124029690939104809390046A
:101BD000B701A601CE0101960E94E4090D811E8184
:101BE000CE0101960E94BA0A0430110508F410CE05
:101BF000B701A601CE0143960E94E40962E070E0BD
:101C0000CE010D960E94B8094F89588DBE016D5EB8
:101C10007F4FCE0101960E946C0ABE016F5F7F4F1D
:101C2000CE0107960E94520ABE01635F7F4FCE012C
:101C300007960E947A09BC01CE0143960E943B0A96
:101C4000CE0107960E94BA0ACE0101960E94BA0AF6
:101C5000CE010D960E94BA0A8B899C890E94691A4E
:101C60007093910460939004CE0143960E94BA0A47
:101C7000CFCD6901032E000CEE08FF084AE0429F19
:101C8000C001439F900D1124059690939104809379
:101C90009004B701A601CE0101960E94E4090D81CE
:101CA0001E81CE0101960E94BA0A0430110508F483
:101CB000C5CDB701A601CE0143960E94E40965E0B7
:101CC00070E0CE010D960E94B8094F89588DBE0173
:101CD0006D5E7F4FCE0101960E946C0ABE016F5F60
:101CE0007F4FCE0107960E94520ABE01635F7F4F6D
:101CF000CE0107960E947A09BC01CE0143960E944C
:101D00003B0ACE0107960E94BA0ACE0101960E94B4
:101D1000BA0ACE010D960E94BA0A8B899C890E944C
:101D2000691A7093910460939004CE0143960E94C7
:101D3000BA0A84CD6901032E000CEE08FF084AE0C0
:101D4000429FC001439F900D1124089690939104E7
:101D500080939004B701A601CE0101960E94E40988
:101D60000D811E81CE0101960E94BA0A0430110530
:101D700008F47ACDB701A601CE0143960E94E4098A
:101D800068E070E0CE010D960E94B8094F89588D29
:101D9000BE016D5E7F4FCE0101960E946C0ABE01AE
:101DA0006F5F7F4FCE0107960E94520ABE01635FAC
:101DB0007F4FCE0107960E947A09BC01CE0143965F
:101DC0000E943B0ACE0107960E94BA0ACE010196F4
:101DD0000E94BA0ACE010D960E94BA0A8B899C898C
:101DE0000E94691A7093910460939004CE01439607
:101DF0000E94BA0A39CD6901032E000CEE08FF08D3
:101E00004AE0429FC001439F900D11240396909396
:101E1000910480939004B701A601CE0101960E941F
:101E2000E4090D811E81CE0101960E94BA0A043098
:101E3000110508F442CDB701A601CE0143960E94D8
:101E4000E40963E070E0CE010D960E94B8094F8965
:101E5000588DBE016D5E7F4FCE0101960E946C0AC7
:101E6000BE016F5F7F4FCE0107960E94520ABE01EE
:101E7000635F7F4FCE0107960E947A09BC01CE01B5
:101E800043960E943B0ACE0107960E94BA0ACE01F1
:101E900001960E94BA0ACE010D960E94BA0A8B8959
:101EA0009C890E94691A7093910460939004CE01FA
:101EB00043960E94BA0A01CD6901032E000CEE0878
:101EC000FF084AE0429FC001439F900D11240696EF
:101ED0009093910480939004B701A601CE010196DE
:101EE0000E94E4090D811E81CE0101960E94BA0A6A
:101EF0000430110508F4F7CCB701A601CE014396D2
:101F00000E94E40966E070E0CE010D960E94B809D7
:101F10004F89588DBE016D5E7F4FCE0101960E94A4
:101F20006C0ABE016F5F7F4FCE0107960E94520A76
:101F3000BE01635F7F4FCE0107960E947A09BC0104
:101F4000CE0143960E943B0ACE0107960E94BA0A30
:101F5000CE0101960E94BA0ACE010D960E94BA0ADD
:101F60008B899C890E94691A7093910460939004F4
:101F7000CE0143960E94BA0AB6CC6901032E000C2A
:101F8000EE08FF084AE0429FC001439F900D1124D4
:101F900009969093910480939004B701A601CE0115
:101FA00001960E94E4090D811E81CE0101960E94D6
:101FB000BA0A0430110508F4ACCCB701A601CE0171
:101FC00043960E94E40969E070E0CE010D960E94FC
:101FD000B8094F89588DBE016D5E7F4FCE010196C5
:101FE0000E946C0ABE016F5F7F4FCE0107960E9470
:101FF000520ABE01635F7F4FCE0107960E947A09A5
:10200000BC01CE0143960E943B0ACE0107960E9476
:10201000BA0ACE0101960E94BA0ACE010D960E941C
:10202000BA0A8B899C890E94691A70939104609303
:102030009004CE0143960E94BA0A6BCC1F920F9275
:102040000FB60F9211240BB60F922F933F934F931D
:102050005F936F937F938F939F93AF93BF93EF9310
:10206000FF938AE994E00E948D02FF91EF91BF9166
:10207000AF919F918F917F916F915F914F913F9120
:102080002F910F900BBE0F900FBE0F901F901895C1
:102090001F920F920FB60F9211240BB60F922F932F
:1020A0008F939F93EF93FF93E091AA04F091AB0479
:1020B0008081E091B004F091B10482FD1DC0908157
:1020C0008091B3048F5F8F732091B404821741F025
:1020D000E091B304F0E0E656FB4F958F8093B30494
:1020E000FF91EF919F918F912F910F900BBE0F90C9
:1020F0000FBE0F901F9018958081F2CF1F920F9204
:102100000FB60F9211242F933F938F939F93AF930A
:10211000BF938091790490917A04A0917B04B0914F
:102120007C043091780423E0230F2D3758F5019675
:10213000A11DB11D209378048093790490937A04B3
:10214000A0937B04B0937C0480917D0490917E04E5
:10215000A0917F04B09180040196A11DB11D8093D0
:102160007D0490937E04A0937F04B0938004BF917C
:10217000AF919F918F913F912F910F900FBE0F9034
:102180001F90189526E8230F0296A11DB11DD2CFEE
:102190001F920F920FB60F9211240BB60F922F932E
:1021A0003F934F935F936F937F938F939F93AF93DF
:1021B000BF93EF93FF9348E251E064E271E090E057
:1021C00080E00E941105FF91EF91BF91AF919F9127
:1021D0008F917F916F915F914F913F912F910F90D0
:1021E0000BBE0F900FBE0F901F9018951F920F926D
:1021F0000FB60F9211240BB60F922F933F934F936C
:102200005F936F937F938F939F93AF93BF93EF935E
:10221000FF9348EA50E064EA70E083E090E00E94B7
:102220001105FF91EF91BF91AF919F918F917F9198
:102230006F915F914F913F912F910F900BBE0F9037
:102240000FBE0F901F9018951F920F920FB60F920E
:1022500011240BB60F922F933F934F935F936F937D
:102260007F938F939F93AF93BF93EF93FF9348E92F
:1022700050E064E970E082E090E00E941105FF9177
:10228000EF91BF91AF919F918F917F916F915F91EE
:102290004F913F912F910F900BBE0F900FBE0F905B
:1022A0001F9018951F920F920FB60F9211240BB624
:1022B0000F922F933F934F935F936F937F938F93DF
:1022C0009F93AF93BF93EF93FF9348E850E064E888
:1022D00070E081E090E00E941105FF91EF91BF91C5
:1022E000AF919F918F917F916F915F914F913F91AE
:1022F0002F910F900BBE0F900FBE0F901F9018954F
:102300001F920F920FB60F9211240BB60F922F93BC
:102310003F934F935F936F937F938F939F93AF936D
:10232000BF93EF93FF93E0918304F091840430977F
:1023300049F0A685B7858585968D91FF16C09C913D
:102340008923B1F4FF91EF91BF91AF919F918F914C
:102350007F916F915F914F913F912F910F900BBEA5
:102360000F900FBE0F901F9018959C91892351F7E5
:10237000A389B4899C918589809589238C938689CA
:1023800097890197F1F7608D718DA685B785558581
:1023900038E020E0CB010197F1F7822F90E095958E
:1023A0008795282F4C91452309F02068315091F7EB
:1023B000868D81FD20958091820490E001968F7337
:1023C000992730918104381799F0A0918204B0E0E8
:1023D000AC5CBB4F2C9380938204828D938D0197CC
:1023E000F1F7A389B4898C919589892B8C93AACF15
:1023F000868D8160868FF1CF1F920F920FB60F925C
:1024000011240BB60F922F933F934F935F936F93CB
:102410007F938F939F93AF93BF93EF93FF9380919D
:10242000B900887F803609F44DC008F040C088327A
:1024300009F4A9C028F5803109F49DC0C8F48823A7
:1024400009F4FBC0883009F496C0FF91EF91BF9169
:10245000AF919F918F917F916F915F914F913F913C
:102460002F910F900BBE0F900FBE0F901F901895DD
:10247000883109F488C0803241F780930D0414C07C
:10248000803409F49DC040F48033B9F38833E9F611
:1024900080930D0485ECB0C0803509F485C0883583
:1024A00009F496C0883489F60E94C20ACECF8839D2
:1024B00009F48CC038F5883729F050F4883611F0CB
:1024C000803719F683E080930E0410920C0457C0F5
:1024D000883809F47BC0803919F0803809F0B5CF0D
:1024E00080910C04803208F071C0E0910C0481E00E
:1024F0008E0F80930C048091BB00F0E0E451FC4F00
:1025000080833DC0803B39F0E0F4803A09F479C023
:10251000883A09F09ACF84E080930E041092EB037E
:102520001092EA03E0918704F09188041995809154
:10253000EA0381110FC081E08093EA031092CA037D
:1025400009C0803C09F4A6CF883C09F4A3CF883B9E
:1025500009F07BCFE091EB0381E08E0F8093EB03DA
:10256000F0E0E653FC4F80818093BB009091EB0339
:102570008091EA0329C0809133048093BB0085ECED
:102580008093BC0062CF90913204809131049817FF
:1025900058F5E091320481E08E0F80933204F0E030
:1025A000EF5EFB4F8081E9CFE091320481E08E0F36
:1025B000809332048091BB00F0E0EF5EFB4F80839C
:1025C00090913204809131049817C8F285E8D8CFF1
:1025D000E091320481E08E0F809332048091BB0041
:1025E000F0E0EF5EFB4F80838091100481115CCF9F
:1025F00081E080930F0484EA8093BC0010920E0463
:1026000024CF85EC8093BC0010920E0480910C04C2
:10261000803230F4E0910C04F0E0E451FC4F108281
:1026200060910C0470E0E0918504F09186048CEEDA
:1026300093E0199510920C0408CF10920D0434CF3A
:1026400010929D0410929C0488EE93E0A0E0B0E00C
:1026500080939E0490939F04A093A004B093A10440
:1026600024E332E030939B0420939A042DEC30E075
:102670003093A7042093A6042CEC30E03093A904F7
:102680002093A80428EC30E03093AB042093AA04F4
:1026900029EC30E03093AD042093AC042AEC30E018
:1026A0003093AF042093AE042EEC30E03093B104AD
:1026B0002093B0041092B3041092B4041092B504A5
:1026C0001092B60410923A051092390580933B059A
:1026D00090933C05A0933D05B0933E0586E492E0BF
:1026E00090933805809337058091D305803308F0A7
:1026F000FEC091E0980F9093D3058093800690E000
:10270000FC01EE0FFF1FE80FF91FED5BFA4F88EB9E
:102710009BE09283818386E0ECE7F2E0AAE7B6E0F3
:1027200001900D928A95E1F710925E0610925D0677
:1027300088EE93E0A0E0B0E080935F06909360069F
:10274000A0936106B09362068EE692E090935C06D9
:1027500080935B06109272061092710610927406B6
:1027600010927306109276061092750610927806F3
:1027700010927706609179066E7F6D7F609379067F
:102780006695617081E0682783E10E94E00361E063
:1027900083E10E941204E1E8F2E0E491E0936B0629
:1027A000EBE3F2E0E491F0E0EE0FFF1FE25FFD4F9C
:1027B0008591949190936D0680936C0660E082E120
:1027C0000E9412048091790681FD04C061E082E1DB
:1027D0000E94E00382E180936706E0E8F2E0E49182
:1027E000E0936806EAE3F2E0E491F0E0EE0FFF1F09
:1027F000EC50FE4F8591949190936A068093690600
:102800001092EE051092F2051092F1051092F30568
:1028100084E692E09093ED058093EC05E8E0F6E025
:1028200084E496E0108214821382158236968E1705
:102830009F07C1F784E092E090934F0680934E0685
:1028400080E092E0909351068093500684E080935C
:1028500052068093530688E092E090934D06809351
:102860004C068AE090E0909355068093540684EFDE
:1028700091E0909357068093560610925A06109254
:102880005906109248061092490610924A06109274
:102890004B06109258061092D7051092D60588E57F
:1028A00092E09093D5058093D40583E28093D80578
:1028B0008FEF8093D90582E28093DA0581E28093DD
:1028C000DB0580E28093DC058FE18093DD058EE1FE
:1028D0008093DE051092DF051092E0051092E1056D
:1028E0001092E2051092E30581E00C94AB078FEFA4
:1028F0008093800610CFCF93DF93CDB7DEB7689774
:102900000FB6F894DEBF0FBECDBF789484B5826059
:1029100084BD84B5816084BD85B5826085BD85B583
:10292000816085BD80916E00816080936E00109201
:10293000810080918100826080938100809181007C
:10294000816080938100809180008160809380000D
:102950008091B10084608093B1008091B00081606B
:102960008093B0008091910082608093910080916B
:1029700091008160809391008091900081608093AC
:1029800090008091A10082608093A1008091A100BD
:1029900081608093A1008091A00081608093A0005D
:1029A00080912101826080932101809121018160C9
:1029B000809321018091200181608093200180918A
:1029C0007A00846080937A0080917A00826080939C
:1029D0007A0080917A00816080937A0080917A00F9
:1029E000806880937A001092C100809180068033C5
:1029F00008F052C061E08EE00E94120480918006CF
:102A0000282F30E0F901EE0FFF1FE20FF31FED5BFF
:102A1000FA4F9081907C9E60908310928106109274
:102A200082062CE0622F0E946E1B829FB00111244F
:102A300030E020E0AB01420F531FFA01EE0FFF1F01
:102A4000E40FF51FED5BFA4F908196FD17C02F5FE5
:102A50003F4F2C30310571F7813009F09DC1109244
:102A6000800082E0809381001092850010928400A3
:102A7000B19A80916F00826080936F00E091800630
:102A80008E2F90E0FC01EE0FFF1FE80FF91FED5BAA
:102A9000FA4F80818064808390E080E00E948F0103
:102AA00010927606109275061092740610927306B4
:102AB00010927206109271068DE991E0909378065B
:102AC000809377068091670696EF980F943048F0D0
:102AD0002EEC280F243028F022EC280F283008F0A4
:102AE00061C02DEB30E030937206209371062BE924
:102AF00031E030937406209373062CE231E030937A
:102B0000760620937506943050F02EEC280F243072
:102B100030F022EC280FF0E0E0E0283010F4E8E696
:102B2000F0E02081943028F032EC380F383008F48F
:102B30005FC131E0232B943048F09EEC980F943025
:102B400028F08E53F0E0E0E0883010F4E8E6F0E0A2
:102B500020832091670636EF320F343008F44AC1E3
:102B60008EEC820F843008F445C182EC820F8830ED
:102B700008F043C18DE690E090936F0680936E0657
:102B8000343008F03DC12650330B81E001C0880F7E
:102B90002A95EAF7809370068091770690917806DF
:102BA0000197F1F78091750690917606892B49F18E
:102BB000E0918304F091840426E0EB35F20709F1FB
:102BC000309739F0A389B4899C91858980958923B0
:102BD0008C93809179068E7F80937906109282047F
:102BE000109281048BE596E0909384048093830493
:102BF000E0916E06F0916F06808190917006892BAE
:102C00008083E091AA04F091AB0482E08083E0919C
:102C1000A604F091A7041082E091A804F091A90401
:102C20008FEC80831092B204E091AE04F091AF0477
:102C300086E08083E091AC04F091AD0480818061F6
:102C40008083E091AC04F091AD0480818860808342
:102C5000E091AC04F091AD04808180688083E091C4
:102C6000AC04F091AD0480818F7D808310928C0440
:102C700010928B0410928A04109289040E94A0067C
:102C800087E192E0909388048093870488E192E042
:102C9000909386048093850483E093E00E94BE08AD
:102CA00061E08DE20E94120461E08EE20E94120453
:102CB00061E08FE20E94120460E084E20E9412044C
:102CC00060E085E20E94120460E086E20E94120445
:102CD00060E08DE20E94E00360E08EE20E94E0038B
:102CE00060E08FE20E94E00384E00E94AB0768E0AE
:102CF00073E0CE0101960E945B0ABE016F5F7F4FB9
:102D000081E090E00E944C08CE0101960E94BA0A30
:102D100086E193E00E94BE086AE070E080E090E007
:102D20000E9477040E94A307812C912C5401839464
:102D300044244A94542C31E0309358060E94A9044C
:102D4000009148061091490620914A0630914B06A1
:102D5000AB01BC01401B510B620B730B80915406FD
:102D600090915506B0E0A0E084179507A607B70735
:102D700008F03BC310E080915206181708F055C0C8
:102D8000E0914E06F0914F06E10FF11D62E0808167
:102D90000E9412041F5FEFCF823061F41092900006
:102DA00080939100109295001092940088BB8093BC
:102DB000710064CE833069F41092A00082E08093A9
:102DC000A1001092A5001092A40089BB809372000C
:102DD00055CE811153CE1092200182E080932101C3
:102DE00010922501109224018ABB8093730046CE75
:102DF00034E0A0CE8BE690E0BFCE90E080E0BCCE89
:102E000088E0223309F4C6CE84E0233309F4C2CE2D
:102E100082E0243309F4BECE82EC820F883018F4AD
:102E20002E53330BB2CE81E0B5CE312C80915306B8
:102E3000381608F064C0032D10E0E0915006F091C0
:102E40005106E00FF11F61E080810E941204E091C1
:102E50005006F0915106E00FF11F60E080810E9462
:102E6000E003D501C401032C04C0880F991FAA1FD9
:102E7000BB1F0A94D2F73C017C01E094F094212C12
:102E800080915206281620F5C22CD12CE0914E06D6
:102E9000F0914F06EC0DFD1D80810E94B403F601F8
:102EA0003496892B61F4EE0FFF1FE451FA4F8081B5
:102EB000918186299729918380832394E1CFEE0F16
:102EC000FF1FE451FA4F808191818E219F21F3CF22
:102ED000E0915006F0915106E00FF11F61E0808112
:102EE0000E94E0038091500690915106080F191F2F
:102EF00060E0F80180810E941204339497CF0CEEB9
:102F000015E07801F701878D90A1892B21F4148EAB
:102F1000568E458E11A2F6E0EF0EF11C28E2E21665
:102F200026E0F20679F7712C80915206781608F0A7
:102F300053C0612CC72CD12CCC0CDD1CC6018C508D
:102F40009A4F6C0120915306621608F043C0F601B7
:102F500060817181062C02C0769567950A94E2F72C
:102F6000729E90011124260D311DECEEF5E080E0FB
:102F7000458D568D2417350709F48DC28F5F36961F
:102F80008A30B1F760FF24C0ECEEF5E090E080E01D
:102F9000448D411118C0E0914C06F0914D06E20FAE
:102FA000F31F408156E0589FF001599FF00D112406
:102FB000E451FA4F448F368F258F10A2178E61E0AF
:102FC0000E94B50405C0019636968A30910501F736
:102FD0006394B8CF7394A8CFD12CF80181A181114B
:102FE000D82E0A5F1F4FE016F106B9F70E94A90418
:102FF000609348067093490680934A0690934B0667
:10300000DD2009F4F2C180910D06882309F4EDC199
:1030100080910B0690910C06019709F0E6C1809112
:103020000806809399048111E5C180919804882352
:1030300009F498C080918D048F3209F093C08FE11C
:1030400093E00E94BE0880917A0690917B060E94D0
:10305000CC088BE293E00E94BE0880917C069091A0
:103060007D060E94CC0883E393E00E94BE08809115
:103070007E0690917F060E94CC0820917A063091BE
:103080007B0680919204909193042817390709F0E8
:103090005BC020917C0630917D0680918E049091DA
:1030A0008F042817390709F04FC0809197048930A1
:1030B00008F04AC080E493E00E94BE086091970443
:1030C00070E090E080E04AE00E947A0882E892E0B6
:1030D0000E946D088FE493E00E94BE0884EB90E0AC
:1030E0000E948F016EE573E0CE0101960E945B0A9B
:1030F000BE016F5F7F4F90E080E00E944C08CE01E0
:1031000001960E94BA0A0E94A9046B018AE693E024
:103110000E94BE08C6010E94CC0880917E06909154
:103120007F06009709F069C1D0927F06C0927E06A3
:1031300064E670E080E090E00E9477040E94A307BC
:1031400090E080E00E948F01109291041092900410
:1031500010928F0410928E04109293041092920495
:10316000109298041092970484E9E82E84E0F82ED7
:1031700003E010E0F701108298012C5D3D4F6901DA
:10318000C801855E9D4F3C01C60187529240801761
:1031900091070CF463C19FEFE91AF90A0D5F1F4F05
:1031A0000C30110539F760919504CE0101960E940B
:1031B000110A60919404CE0107960E94110A69E7F2
:1031C00073E0CE010D960E945B0ABE01695F7F4FDE
:1031D000CE010D960E947A096BE773E00E946409A4
:1031E0006DE773E00E946409BE016F5F7F4F0E942C
:1031F0007A09BC01CE0143960E94520ACE010D9677
:103200000E94BA0ACE0107960E94BA0ACE01019620
:103210000E94BA0ABE016D5E7F4FCE0101960E94E8
:10322000520ABE016F5F7F4F90E080E00E944C0821
:10323000CE0101960E94BA0A60919704CE010196D0
:103240000E94110A60919604CE0107960E94110A0D
:1032500061E873E0CE010D960E945B0ABE01695FD2
:103260007F4FCE010D960E947A096BE773E00E94B2
:10327000640965E773E00E946409BE016F5F7F4FD8
:103280000E947A09BC01CE0143960E943B0ACE01FE
:103290000D960E94BA0ACE0107960E94BA0ACE0184
:1032A00001960E94BA0ABE016D5E7F4FCE01019663
:1032B0000E94520ABE016F5F7F4F81E090E00E9442
:1032C0004C08CE0101960E94BA0A60919204709156
:1032D0009304CE0101960E94B80965E873E0CE011F
:1032E00007960E945B0ABE016F5F7F4FCE01079673
:1032F0000E947A09BC01CE0143960E943B0ACE018E
:1033000007960E94BA0ACE0101960E94BA0ABE012F
:103310006D5E7F4FCE0101960E94520ABE016F5F23
:103320007F4F82E090E00E944C08CE0101960E94FF
:10333000BA0A6091900470919104CE0101960E94A6
:10334000B80960918E0470918F04CE0107960E9497
:10335000B80960E973E0CE010D960E945B0ABE01D8
:10336000695F7F4FCE010D960E947A096BE773E08B
:103370000E9464096BE973E00E946409BE016F5FFB
:103380007F4F0E947A09BC01CE0143960E943B0AFE
:10339000CE010D960E94BA0ACE0107960E94BA0A83
:1033A000CE0101960E94BA0ABE016D5E7F4FCE012A
:1033B00001960E94520ABE016F5F7F4F83E090E04A
:1033C0000E944C08CE0101960E94BA0A6AE070E0A1
:1033D00080E090E00E9477040E94A307CE0143960C
:1033E0000E94BA0A0E941C03A6CC109258061092A2
:1033F00099041BCE0E94190B18CE10927F061092D2
:103400007E06B601681B790BCE0107960E94B809AB
:1034100062E773E0CE0101960E945B0ABE01695F1C
:103420007F4FCE0101960E947A09BC01CE010D9614
:103430000E94520ABE01635F7F4F81E090E00E94CC
:103440004C08CE010D960E94BA0ACE0101960E9448
:10345000BA0ACE0107960E94BA0A6ACEF601819195
:103460006F010E94B403F30121913F01019771F4B0
:1034700061E0822F0E94E003F70180818F5F8083EB
:10348000809197048F5F809397047ECE60E0822FB7
:103490000E94E00379CE617093CD8EE692E0909326
:1034A0005C0680935B0680918304909184048B5525
:1034B000964071F4E0916E06F0916F0690818091D4
:1034C000700680958923808310928404109283046F
:1034D00008951F93FC0199278827BC01E894119156
:1034E0001032E9F3193010F01E30C8F31B3251F0DE
:1034F0001D3249F4689406C00E94AA1A610F711D1A
:10350000811D911D119110531A30B0F33EF4909526
:103510008095709561957F4F8F4F9F4F1F910895B4
:10352000BB274A3031F4992322F4BDE2909581956E
:103530009F4F0C94E21ABB272A3051F4992342F48E
:10354000BDE290958095709561957F4F8F4F9F4F0D
:103550000C94C01A592F482F372F262F660F771F2C
:10356000881F991F660F771F881F991F620F731F8F
:10357000841F951F660F771F881F991F0895BB270B
:10358000FA01A62F6217710581059105330B30FBF7
:1035900066F0AA27660F771F881F991FAA1FA21718
:1035A00010F0A21B63953850A9F7A05DAA3308F06C
:1035B000A95DA19336F7B111B1931082CA010C94A1
:1035C000FB1ABB27FB015527AA27880F991FAA1FA3
:1035D000A41710F0A41B83955051B9F7A05DAA332E
:1035E00008F0A95DA193009779F7B111B1931192F9
:1035F000CB010C94FB1ADC01FC01672F719177233E
:10360000E1F7329704C07C916D9370836291AE179D
:10361000BF07C8F30895052E97FB1EF400940E947F
:10362000221B57FD07D00E943D1B07FC03D04EF420
:103630000C94221B50954095309521953F4F4F4F4C
:103640005F4F089590958095709561957F4F8F4F4E
:103650009F4F08950E945F1BA59F900DB49F900DF2
:10366000A49F800D911D11240895B7FF0C942A1B6F
:103670000E942A1B821B930B0895A1E21A2EAA1BFB
:10368000BB1BFD010DC0AA1FBB1FEE1FFF1FA21712
:10369000B307E407F50720F0A21BB30BE40BF50B0F
:1036A000661F771F881F991F1A9469F76095709598
:1036B000809590959B01AC01BD01CF010895A29F1B
:1036C000B001B39FC001A39F700D811D1124911DF6
:1036D000B29F700D811D1124911D0895991B79E0F1
:1036E00004C0991F961708F0961B881F7A95C9F792
:1036F0008095089597FB072E16F4009407D077FD68
:1037000009D00E94961B07FC05D03EF49095819548
:103710009F4F0895709561957F4F0895EE0FFF1F9D
:10372000881F8BBF0790F691E02D1994AA1BBB1B35
:1037300051E107C0AA1FBB1FA617B70710F0A61BB1
:10374000B70B881F991F5A95A9F780959095BC01D2
:10375000CD0108950F931F93CF93DF93823091058E
:1037600010F482E090E0E0918506F091860630E06A
:1037700020E0B0E0A0E0309799F42115310509F47C
:103780004AC0281B390B24303105D8F58A819B812A
:103790006115710589F1FB0193838283FE0111C0DC
:1037A000408151810281138148175907E0F0481781
:1037B000590799F4109761F012960C93129713968B
:1037C0001C933296CF01DF91CF911F910F910895F5
:1037D0000093850610938606F4CF2115310551F02C
:1037E0004217530738F0A901DB019A01BD01DF013F
:1037F000F801C1CFEF01F9CF90938606809385063B
:10380000CDCFFE01E20FF31F819391932250310936
:1038100039832883D7CF2091830630918406232BC8
:1038200041F420911A0230911B02309384062093B8
:10383000830620911802309119022115310541F4B7
:103840002DB73EB740911C0250911D02241B350B31
:10385000E0918306F0918406E217F307A0F42E1B93
:103860003F0B2817390778F0AC014E5F5F4F2417E4
:10387000350748F04E0F5F1F509384064093830630
:10388000819391939FCFF0E0E0E09CCFCF93DF93C3
:103890000097E9F0FC01329713821282A09185060D
:1038A000B0918606ED0130E020E01097A1F4208170
:1038B0003181820F931F209183063091840628174F
:1038C000390709F061C0F0938406E0938306DF9125
:1038D000CF910895EA01CE17DF07E8F54A815B81B1
:1038E0009E0141155105B1F7E901FB83EA83499136
:1038F0005991C40FD51FEC17FD0761F480819181A8
:103900000296840F951FE9019983888382819381B0
:103910009B838A83F0E0E0E012968D919C9113974F
:103920000097B9F52D913C911197CD010296820F28
:10393000931F20918306309184062817390739F6A2
:10394000309751F51092860610928506B093840642
:10395000A0938306BCCFD383C28340815181840F5F
:10396000951FC817D90761F44E5F5F4F8881998111
:10397000480F591F518340838A819B81938382839F
:103980002115310509F0B0CFF0938606E093850646
:103990009ECFFD01DC01C0CF13821282D7CF4F92A0
:1039A0005F926F927F928F929F92AF92BF92CF92CF
:1039B000DF92EF92FF920F931F93CF93DF938C01CF
:1039C000009799F4CB01DF91CF911F910F91FF9058
:1039D000EF90DF90CF90BF90AF909F908F907F90AF
:1039E0006F905F904F900C94AA1BFC01E60FF71F9D
:1039F0009C0122503109E217F30708F4AEC0D90147
:103A0000CD91DC911197C617D70720F1C530D105AC
:103A100078F0CE0104978617970750F0C61BD70B96
:103A20002297C193D1936D937C93CF010E94461C42
:103A3000C801DF91CF911F910F91FF90EF90DF9020
:103A4000CF90BF90AF909F908F907F906F905F903E
:103A50004F9008955B01AC1ABD0A4C018C0E9D1E5F
:103A6000A0918506B0918606512C412CF12CE12CB9
:103A7000109731F5809183069091840688159905F9
:103A800009F05CC04616570608F058C0809118022D
:103A900090911902009741F48DB79EB740911C0296
:103AA00050911D02841B950BE817F90708F055C0CB
:103AB000F0938406E0938306F90171836083B8CFA5
:103AC0008D919C91119712966C90129713967C9001
:103AD0001397A815B90559F56C0142E0C40ED11C25
:103AE000CA14DB0420F1AC014A195B09DA01129611
:103AF000159780F06282738251834083D9016D9360
:103B00007C93E114F10471F0D7011396FC93EE93CA
:103B100012978ECF22968C0F9D1FF901918380837F
:103B2000F301EFCFF0938606E093850681CF481628
:103B3000590608F42C017D01D3019ACFCB010E94D4
:103B4000AA1B7C01009749F0AE01B8010E94B01D8C
:103B5000C8010E94461C87016BCF10E000E068CFCF
:103B6000FB01DC0102C001900D9241505040D8F79A
:103B70000895FB01DC0101900D920020E1F708950A
:103B800011E0CBE5D1E000E006C0802FFE010E94ED
:103B90008E1B2196011DCC35D10780E00807A9F7BF
:103BA000F894FFCF1A1B1C1D161718193738394403
:103BB00034353643313233422A3023410000870600
:103BC00080002D2E2F3032333435362425262728F9
:103BD000292A2B2C00000000AF0219024602FC0229
:103BE00077025502690200000000F206E7060407AA
:103BF000E305E006CD06BE060000000067081902D6
:103C000004070307000000004E040E04DD0300005B
:103C10000000E40519020407E30540065806CB0539
:103C20000100010000000D0A00427574746F6E20DF
:103C300043616E63656C00427574746F6E20310071
:103C4000427574746F6E203400427574746F6E2008
:103C50003700427574746F6E203000427574746F53
:103C60006E203200427574746F6E20350042757498
:103C7000746F6E203800427574746F6E20457175D4
:103C8000616C00427574746F6E20330042757474F9
:103C90006F6E203600427574746F6E203900446573
:103CA000766573696F6E007465737400736D61720D
:103CB00074207061726B696E670073746172742036
:103CC000757000757365726E616D65206973007043
:103CD00061737320697300656E74657254696D65F4
:103CE0002069730073756D43617061636974792035
:103CF000697300736572766F206973206D6F7665E6
:103D00006400646F6F72206F70656E656400746923
:103D10006D6520697300636F73743A2000413A2027
:103D200000623A2000633A2000757365726E616D1F
:103D3000653A200070617373776F72643A2000698E
:083D40006E7075743A2000005A
:020000040003F7
:10E000000D9489F10D94B2F10D94B2F10D94B2F129
:10E010000D94B2F10D94B2F10D94B2F10D94B2F1F0
:10E020000D94B2F10D94B2F10D94B2F10D94B2F1E0
:10E030000D94B2F10D94B2F10D94B2F10D94B2F1D0
:10E040000D94B2F10D94B2F10D94B2F10D94B2F1C0
:10E050000D94B2F10D94B2F10D94B2F10D94B2F1B0
:10E060000D94B2F10D94B2F10D94B2F10D94B2F1A0
:10E070000D94B2F10D94B2F10D94B2F10D94B2F190
:10E080000D94B2F10D94B2F10D94B2F10D94B2F180
:10E090000D94B2F10D94B2F10D94B2F10D94B2F170
:10E0A0000D94B2F10D94B2F10D94B2F10D94B2F160
:10E0B0000D94B2F10D94B2F10D94B2F10D94B2F150
:10E0C0000D94B2F10D94B2F10D94B2F10D94B2F140
:10E0D0000D94B2F10D94B2F10D94B2F10D94B2F130
:10E0E0000D94B2F141546D656761323536300041AF
:10E0F000726475696E6F206578706C6F72657220DE
:10E1000073746B3530305632206279204D4C530099
:10E11000426F6F746C6F616465723E004875683F52
:10E1200000436F6D70696C6564206F6E203D200048
:10E130004350552054797065202020203D20005FF9
:10E140005F4156525F415243485F5F3D2000415658
:10E1500052204C696243205665723D20004743437C
:10E160002056657273696F6E203D20004350552024
:10E1700049442020202020203D20004C6F7720663D
:10E18000757365202020203D20004869676820665F
:10E190007573652020203D200045787420667573D6
:10E1A00065202020203D20004C6F636B2066757336
:10E1B000652020203D20004D617220203720323024
:10E1C000313300312E362E3800342E332E350056A2
:10E1D00023202020414444522020206F7020636F70
:10E1E00064652020202020696E73747275637469E1
:10E1F0006F6E2061646472202020496E74657272B3
:10E20000757074006E6F20766563746F7200726A49
:10E210006D702020006A6D70200057686174207056
:10E220006F72743A00506F7274206E6F7420737541
:10E2300070706F72746564004D7573742062652030
:10E2400061206C6574746572002000577269747483
:10E25000696E672045450052656164696E672045B7
:10E26000450045452065727220636E743D00504F35
:10E27000525400303D5A65726F2061646472003FF1
:10E280003D43505520737461747300403D454550C3
:10E29000524F4D207465737400423D426C696E6B41
:10E2A000204C454400453D44756D70204545505215
:10E2B0004F4D00463D44756D7020464C415348001B
:10E2C000483D48656C70004C3D4C69737420492F83
:10E2D0004F20506F72747300513D51756974005234
:10E2E0003D44756D702052414D00563D73686F7707
:10E2F00020696E7465727275707420566563746FF0
:10E30000727300593D506F727420626C696E6B00BD
:10E310002A0011241FBECFEFD1E2DEBFCDBF01E046
:10E320000CBF12E0A0E0B2E0EEE1FDEF03E00BBFB6
:10E3300002C007900D92A030B107D9F712E0A0E01B
:10E34000B2E001C01D92AE30B107E1F70F9460F367
:10E350000D948DFE01E20EBF0FEF0DBF11241FBE05
:10E360000D9460F30D9400F020E030E040ED57E0B4
:10E3700005C0FA013197F1F72F5F3F4F2817390792
:10E38000C0F308959C01260F311DC901A0E0B0E043
:10E390002F5F3F4FABBFFC018791882361F08093D3
:10E3A000C6008091C00086FFFCCF8091C0008064D1
:10E3B0008093C000EACF08958DE08093C6008091DD
:10E3C000C00086FFFCCF8091C00080648093C000B5
:10E3D0008AE08093C6008091C00086FFFCCF8091C8
:10E3E000C00080648093C00008950F94C2F10F9420
:10E3F000DCF10895FC019081992359F09093C600B7
:10E400008091C00086FFFCCF8091C0008064809323
:10E41000C0003196992379F70895282F982F929567
:10E420009F70892F805D8A3308F0895F8093C600D2
:10E430008091C00086FFFCCF8091C00080648093F3
:10E44000C000822F8F70982F905D9A3308F0995FEB
:10E450009093C6008091C00086FFFCCF8091C000E1
:10E4600080648093C00008959C01FB01853691056E
:10E470001CF46330710594F0C90164E670E00F94F8
:10E480002EFE605D7F4F6093C6008091C00086FFC6
:10E49000FCCF8091C00080648093C0002B30310598
:10E4A00014F43297B4F0C90164E670E00F942EFEC4
:10E4B0006AE070E00F942EFE605D7F4F6093C600AF
:10E4C0008091C00086FFFCCF8091C0008064809363
:10E4D000C000C9016AE070E00F942EFEC0968093E0
:10E4E000C6008091C00086FFFCCF8091C000806490
:10E4F0008093C00008951F93182F8EE692EE60E07F
:10E500000F94C2F11093C6008091C00086FFFCCF2B
:10E510008091C00080648093C0000F94DCF11F9153
:10E5200008952F923F924F925F926F927F928F92B7
:10E530009F92AF92BF92CF92DF92EF92FF920F9392
:10E540001F93DF93CF93CDB7DEB762970FB6F894E2
:10E55000DEBF0FBECDBF382E622ECA01DB015C01CB
:10E560006D01772420E2222E2E010894411C511CBB
:10E570008BC081E0A81680E0B80681E0C80680E084
:10E58000D80628F0C601AA27BB270F940DF2BB2797
:10E59000AD2D9C2D8B2D0F940DF28A2D0F940DF225
:10E5A0002092C6008091C00086FFFCCF8091C00001
:10E5B00080648093C0009DE29093C6008091C0006B
:10E5C00086FFFCCF8091C00080648093C0002092C1
:10E5D000C6008091C00086FFFCCF8091C00080649F
:10E5E0008093C00019828601750188249924A1E0D6
:10E5F0003A1651F03A1620F0B2E03B1661F409C029
:10E600000BBFF701779007C0C7010F9477FE782EF4
:10E6100002C0F7017080872D0F940DF22092C60082
:10E620008091C00086FFFCCF8091C0008064809301
:10E63000C000872D8052F401EF70F0708F3520F408
:10E64000E40DF51D708204C0E40DF51D8EE280839B
:10E650000894E11CF11C011D111D0894811C911CE2
:10E6600090E18916910409F0C2CF80E190E0A0E02A
:10E67000B0E0A80EB91ECA1EDB1E198AC2010F9493
:10E68000FAF10F94DCF16A94662009F072CF629679
:10E690000FB6F894DEBF0FBECDBFCF91DF911F91B3
:10E6A0000F91FF90EF90DF90CF90BF90AF909F9031
:10E6B0008F907F906F905F904F903F902F90089534
:10E6C0002F923F924F925F926F927F928F929F9282
:10E6D000AF92BF92CF92DF92EF92FF920F931F9370
:10E6E000DF93CF93CDB7DEB7CD53D1400FB6F894BB
:10E6F000DEBF0FBECDBF01E20EBF0FEF0DBF94B75F
:10E70000F894A89514BE80916000886180936000A1
:10E7100010926000789493FF05C0E0910002F091A0
:10E7200001021995279A2F9A8091C00082608093E8
:10E73000C00080E18093C40088E18093C1000000A4
:10E74000EE24FF24870144E0A42EB12CCC24DD2448
:10E7500024C0C5010197F1F70894E11CF11C011DCB
:10E76000111D21E2E2162EE4F20620E0020720E06D
:10E77000120718F031E0C32ED12CC801B70127ECE5
:10E780003BE140E050E00F9441FE611571058105C9
:10E79000910519F485B1805885B98091C00087FD35
:10E7A00003C0C114D104A9F2A6014F5F5F4FC25E3E
:10E7B000DE4F59834883CE51D140C25EDE4F8881FF
:10E7C0009981CE51D140019711F00D9410FEC05D9A
:10E7D000DE4F19821882C053D14060E0C15DDE4F28
:10E7E0001882CF52D14088249924C35DDE4F19820C
:10E7F0001882CD52D140C05EDE4F188219821A8233
:10E800001B82C052D140CE5CDE4F188219821A8220
:10E810001B82C253D140EE24FF2487010BBFF701B6
:10E8200007911691C45CDE4F19830883CC53D14005
:10E830000D940BFEC25EDE4F28813981CE51D1404E
:10E840002130310509F52091C600C25EDE4F1982E4
:10E850001882CE51D14022C02F5F3F4F4F4F5F4FA4
:10E86000213082E138078AE7480780E0580780F0C6
:10E87000C45CDE4FE881F981CC53D140EF5FFF4F9C
:10E8800019F0EE27FF27099420E030E040E050E047
:10E890008091C00087FFE0CF2091C600C35DDE4FAE
:10E8A00048815981CD52D1404F5F5F4FC35DDE4FEC
:10E8B00059834883CD52D140213209F063C64A3092
:10E8C000510508F05FC60894811C911C53E0851621
:10E8D000910409F059C600E010E018C081E280936D
:10E8E000C6008091C00086FFFCCF8091C00080648C
:10E8F0008093C0002F5F3F4F2931310579F70F9486
:10E90000DCF10F5F1F4F0530110519F020E030E0FA
:10E91000E5CF10920A0210920B0210920C02109294
:10E920000D02109206021092070210920802109235
:10E930000902109202021092030210920402109235
:10E9400005028FEE90EE60E00F94F5F180E191EE1C
:10E9500060E00F94C2F18091C00087FFFCCF9091DE
:10E96000C600903608F09F759032B8F09093C600BC
:10E970008091C00086FFFCCF8091C00080648093AE
:10E98000C000A0E2A093C6008091C00086FFFCCF2B
:10E990008091C00080648093C000983409F4D7C18E
:10E9A0009934B8F4923409F459C1933458F490333B
:10E9B00019F1903308F4E3C59F33A1F1903409F0C5
:10E9C000DEC5BDC0953409F470C1963409F0D7C5D1
:10E9D00098C1923509F42BC2933538F49C3409F46C
:10E9E000F5C1913509F0CBC518C2963509F445C279
:10E9F000993509F0C4C567C483E792EE62E00F94CD
:10EA0000F5F110920602109207021092080210927D
:10EA1000090210920A0210920B0210920C0210923C
:10EA20000D0213C18FE792EE62E00F94F5F18FEEC5
:10EA300090EE60E00F94F5F181E291EE60E00F94CA
:10EA4000C2F187EB91EE60E00F94F5F180E391EE77
:10EA500060E00F94C2F184EE90EE60E00F94F5F167
:10EA60008FE391EE60E00F94C2F186E090E061E008
:10EA700070E00F9434F20F94DCF18DE591EE60E0DC
:10EA80000F94C2F189EC91EE60E00F94F5F18EE401
:10EA900091EE60E00F94C2F183EC91EE60E00F9490
:10EAA000F5F18CE691EE60E00F94C2F18EE10F94E7
:10EAB0000DF288E90F940DF281E00F940DF20F949E
:10EAC000DCF18BE791EE60E00F94C2F119E0E0E039
:10EAD000F0E010935700E4918E2F0F940DF20F94F5
:10EAE000DCF18AE891EE60E00F94C2F1E3E0F0E03F
:10EAF00010935700E4918E2F0F940DF20F94DCF1D8
:10EB000089E991EE60E00F94C2F1E2E0F0E0109349
:10EB10005700E4918E2F0F940DF20F94DCF188EAE8
:10EB200091EE60E00F94C2F1E1E0F0E01093570045
:10EB30001491812F0F940DF20F94DCF107CF8BE825
:10EB400092EE62E00F94F5F18BE492EE60E00F94A8
:10EB5000F5F10F94DCF100E010E019C0C8016F2D51
:10EB60000F947FFEFF2031F489E492EE60E00F9471
:10EB7000C2F10BC0F092C6008091C00086FFFCCFAE
:10EB80008091C00080648093C0000F5F1F4FC80158
:10EB900081519F41A0E0B0E0ABBFFC01F790BAE229
:10EBA000FB1621F0E2E000301E07C1F60F94DCF105
:10EBB0000F94DCF187E592EE60E00F94F5F10F948D
:10EBC000DCF1CC24DD2400E010E01EC0C8010F946D
:10EBD00077FEF82E882331F489E492EE60E00F94FA
:10EBE000C2F10BC08093C6008091C00086FFFCCFAD
:10EBF0008091C00080648093C000FE1419F00894D6
:10EC0000C11CD11C0F5F1F4FC80181519F41A0E063
:10EC1000B0E0ABBFFC01E790FAE2EF1621F022E092
:10EC20000030120799F60F94DCF10F94DCF182E6C4
:10EC300092EE60E00F94C2F1C60161E070E00F94C3
:10EC400034F20F94DCF10F94DCF110920202109276
:10EC50000302109204021092050278CE89E992EE26
:10EC600062E00F94F5F1279A2F9A16C02F9880E052
:10EC700090E0E0EDF7E03197F1F7019684369105E9
:10EC8000C1F72F9A80E090E0E0EDF7E03197F1F7DF
:10EC9000019684369105C1F78091C00087FFE6CFC9
:10ECA0008091C00087FFFCCF64C485EA92EE62E0E9
:10ECB0000F94F5F140910202509103026091040219
:10ECC0007091050281E020E10F9491F2809102029F
:10ECD00090910302A0910402B091050280509F4FD1
:10ECE000AF4FBF4F8093020290930302A0930402A0
:10ECF000B093050280509041A040B04008F426CE69
:10ED0000A4CF83EB92EE62E00F94F5F140910602FE
:10ED100050910702609108027091090280E020E1A1
:10ED20000F9491F28091060290910702A09108023F
:10ED3000B091090280509F4FAF4FBF4F80930602A2
:10ED400090930702A0930802B0930902FFCD80ECD4
:10ED500092EE62E00F94F5F183E792EE60E00F949B
:10ED6000F5F18FE792EE60E00F94F5F18BE892EE0B
:10ED700060E00F94F5F189E992EE60E00F94F5F10F
:10ED800085EA92EE60E00F94F5F183EB92EE60E09D
:10ED90000F94F5F180EC92EE60E00F94F5F187ECC2
:10EDA00092EE60E00F94F5F188ED92EE60E00F9442
:10EDB000F5F18FED92EE60E00F94F5F18AEE92EEB0
:10EDC00060E00F94F5F183E093EEBDCD87EC92EE19
:10EDD00062E00F94F5F181E40F947BF282E40F94EA
:10EDE0007BF283E40F947BF284E40F947BF285E45E
:10EDF0000F947BF286E40F947BF287E40F947BF20E
:10EE000088E40F947BF28AE40F947BF28BE40F94F6
:10EE10007BF28CE40F947BF299CD88ED92EE62E068
:10EE20000F94F5F1772473948824992409C48FED05
:10EE300092EE62E00F94F5F140910A0250910B02BC
:10EE400060910C0270910D0282E020E10F9491F22A
:10EE500080910A0290910B02A0910C02B0910D02D8
:10EE600080509F4FAF4FBF4F80930A0290930B0289
:10EE7000A0930C02B0930D0269CD8AEE92EE62E08F
:10EE80000F94F5F184EE90EE60E00F94F5F18FECC5
:10EE900091EE60E00F94F5F1662477244301CC5D98
:10EEA000DE4F19821882C452D140D401C301B695F5
:10EEB000A79597958795CA5DDE4F88839983AA8326
:10EEC000BB83C652D140CC5DDE4FA881B981C4520C
:10EED000D1401196CC5DDE4FB983A883C452D14096
:10EEE000CD0162E070E00F9434F2B0E2B093C6005E
:10EEF0008091C00086FFFCCF8091C0008064809329
:10EF0000C000EDE2E093C6008091C00086FFFCCF18
:10EF10008091C00080648093C000F0E2F093C6004E
:10EF20008091C00086FFFCCF8091C00080648093F8
:10EF3000C000CA5DDE4FE880F9800A811B81C6529D
:10EF4000D140BB27A12F902F8F2D0F940DF2CA5DBA
:10EF5000DE4F8881C652D1400F940DF2B0E2FB2EF5
:10EF6000F092C6008091C00086FFFCCF8091C00067
:10EF700080648093C0000DE30093C6008091C000C0
:10EF800086FFFCCF8091C00080648093C00010E2B7
:10EF90001093C6008091C00086FFFCCF8091C00016
:10EFA00080648093C0008BBEF3012791C65DDE4F65
:10EFB0002883CA52D140A22EBB24CC24DD2408943D
:10EFC000611C711C811C911C8BBEF3018791282E42
:10EFD0003324442455240894611C711C811C911C09
:10EFE0008BBEF3013791C55DDE4F3883CB52D140E4
:10EFF0000894611C711C811C911C8BBEF30147910C
:10F00000C45DDE4F4883CC52D140ADEFEA2EAFEF66
:10F01000FA2EAFEF0A2FAFEF1A2F6E0C7F1C801E57
:10F02000911E142D032DF22CEE24EA0CFB1C0C1D5A
:10F030001D1D0F940DF220E22093C6008091C000A8
:10F0400086FFFCCF8091C00080648093C000C65DC5
:10F05000DE4F8881CA52D1400F940DF230E23093D6
:10F06000C6008091C00086FFFCCF8091C000806404
:10F070008093C000C45DDE4F8881CC52D1400F9494
:10F080000DF240E24093C6008091C00086FFFCCFA5
:10F090008091C00080648093C000C55DDE4F888190
:10F0A000CB52D1400F940DF250E25093C6008091A4
:10F0B000C00086FFFCCF8091C00080648093C000B8
:10F0C0008FEFE8168FEFF80680E0080780E018075A
:10F0D00031F484E092EE60E00F94C2F1DFC0D80119
:10F0E000C7018070907CA070B0708050904CA040A0
:10F0F000B040D1F52FEF3FE340E050E0E222F322B1
:10F1000004231523CA5DDE4FA880B980CA80DB8046
:10F11000C652D140AE0CBF1CC01ED11EAA0CBB1CD7
:10F12000CC1CDD1C8EE092EE60E00F94C2F1BB2798
:10F13000A12F902F8F2D0F940DF28E2D0F940DF285
:10F1400030E23093C6008091C00086FFFCCF8091F2
:10F15000C00080648093C0004EE34093C60080915D
:10F16000C00086FFFCCF87C08EE09EEFA0E0B0E03D
:10F17000E822F9220A231B239CE0E91694E9F90608
:10F1800090E0090790E0190709F088C0C45DDE4FE0
:10F19000A881CC52D140EA2EFF2400E010E0102FCD
:10F1A0000F2DFE2CEE24C55DDE4FB881CB52D14031
:10F1B000EB0EF11C011D111DD601C501817090706F
:10F1C000A070B070DC0199278827E80EF91E0A1F8D
:10F1D0001B1F20EF30E040E050E0A222B322C42207
:10F1E000D52241E1AA0CBB1CCC1CDD1C4A95D1F7F1
:10F1F000EA0CFB1C0C1D1D1D81E090E0A0E0B0E0BE
:10F20000282239224A225B2235E1220C331C441C7D
:10F21000551C3A95D1F7E20CF31C041D151D57013E
:10F220006801AA0CBB1CCC1CDD1C85E192EE60E0E1
:10F230000F94C2F1C801AA27BB270F940DF2BB2778
:10F24000A12F902F8F2D0F940DF28E2D0F940DF274
:10F2500090E29093C6008091C00086FFFCCF809121
:10F26000C00080648093C000AEE3A093C60080918C
:10F27000C00086FFFCCF8091C00080648093C000F6
:10F28000C601AA27BB270F940DF2BB27AD2D9C2DDD
:10F290008B2D0F940DF28A2D0F940DF20F94DCF14B
:10F2A000CC5DDE4FE881F981C452D140F99709F471
:10F2B0004DCBF4E0EF2EF12C012D112D6E0C7F1CA7
:10F2C000801E911EF2CD83E093EE62E00F94F5F183
:10F2D0008AE192EE60E00F94C2F18091C00087FF56
:10F2E000FCCF1091C6001F751093C6008091C0001E
:10F2F00086FFFCCF8091C00080648093C0000F9493
:10F30000DCF1812F81548A3108F036C1163409F4BA
:10F3100095C0173490F4133409F44EC0143430F40B
:10F320001134F1F0123409F01DC130C0143409F465
:10F3300059C0153409F016C16BC01A3409F4C4C0A1
:10F340001B3438F4173409F48FC0183409F00AC19B
:10F35000A1C01B3409F4D2C01C3409F003C1E8C0B9
:10F360008FEF81B90DC082B1809582B980E090E0C5
:10F37000E0EDF7E03197F1F70196883C9105C1F790
:10F380008091C00087FFEFCF12B8EFC08FEF84B934
:10F390000DC085B1809585B980E090E0E0EDF7E0A3
:10F3A0003197F1F70196883C9105C1F78091C00033
:10F3B00087FFEFCF15B8D9C08FEF87B90DC088B1DF
:10F3C000809588B980E090E0E0EDF7E03197F1F7C3
:10F3D0000196883C9105C1F78091C00087FFEFCF6F
:10F3E00018B8C3C08FEF8AB90DC08BB180958BB9A7
:10F3F00080E090E0E0EDF7E03197F1F70196883C8E
:10F400009105C1F78091C00087FFEFCF1BB8ADC059
:10F410008FEF8DB90DC08EB180958EB980E090E0F0
:10F42000E0EDF7E03197F1F70196883C9105C1F7DF
:10F430008091C00087FFEFCF1EB897C08FEF80BBD1
:10F440000DC081B3809581BB80E090E0E0EDF7E0F6
:10F450003197F1F70196883C9105C1F78091C00082
:10F4600087FFEFCF11BA81C08FEF83BB0DC084B38C
:10F47000809584BB80E090E0E0EDF7E03197F1F714
:10F480000196883C9105C1F78091C00087FFEFCFBE
:10F4900014BA6BC08FEF809301010FC080910201FD
:10F4A00080958093020180E090E0E0EDF7E03197F5
:10F4B000F1F70196883C9105C1F78091C00087FF64
:10F4C000EDCF1092020151C08FEF809304010FC065
:10F4D0008091050180958093050180E090E0E0ED4A
:10F4E000F7E03197F1F70196883C9105C1F78091DB
:10F4F000C00087FFEDCF1092050137C08FEF8093DA
:10F5000007010FC08091080180958093080180E079
:10F5100090E0E0EDF7E03197F1F70196883C910536
:10F52000C1F78091C00087FFEDCF109208011DC088
:10F530008FEF80930A010FC080910B01809580931B
:10F540000B0180E090E0E0EDF7E03197F1F70196F4
:10F55000883C9105C1F78091C00087FFEDCF1092E4
:10F560000B0103C085E292EEEEC98091C00087FFD7
:10F57000FCCF8091C600EAC988E392EEE4C98CE131
:10F5800091EEE1C988249924933011F1943028F444
:10F59000913089F09230B8F408C0953061F195301F
:10F5A000F0F0963009F048C043C02B3109F042C951
:10F5B00091E06BE13FC96227C15DDE4F2883CF52E6
:10F5C000D14092E037C9B22FA0E0622793E032C960
:10F5D000822F90E0A82BB92B622794E02BC92E3004
:10F5E00009F039C3622795E0C05DDE4F19821882A9
:10F5F000C053D1401FC9E1E0F0E0EC0FFD1FC05D3A
:10F60000DE4F08811981C053D140E00FF11F2083E4
:10F610000F5F1F4FC05DDE4F19830883C053D14079
:10F6200062270A171B0709F005C9D80196E002C92D
:10F63000261709F010C303C0973009F0FBC87724E0
:10F640009981933109F412C19431C8F4963009F4C8
:10F65000D8C0973050F4923009F406C1933009F4C1
:10F660006DC0913009F059C253C0913109F477C08F
:10F67000923108F0BBC0903109F04FC2F5C098310B
:10F6800009F487C0993150F4953109F4EFC09531F0
:10F6900008F4C6C1963109F040C2C2C19A3109F4DA
:10F6A0006CC09A3108F491C09B3109F45BC09D3164
:10F6B00009F033C29D81903359F48F81882311F46E
:10F6C0009EE11CC0813011F091E018C098E916C08D
:10F6D000892F807591F0903539F4E0E0F0E089E011
:10F6E0008093570094910AC0983539F4E3E0F0E034
:10F6F00089E080935700949101C090E01A821B82A8
:10F700008D818C831D829E831F8227E030E009C299
:10F710001A8288E08B8381E48C8386E58D8382E581
:10F720008E8389E48F8383E5888780E589878FE5E9
:10F730008A8782E38B872BE030E0F3C18A818139AD
:10F7400041F0823941F0803911F48FE005C080E04A
:10F7500003C082E001C08AE01A828B8344C0772410
:10F76000739482C08D81882311F48EE12CC0813086
:10F7700011F081E028C088E926C01A82E1E0F0E0BB
:10F7800089E08093570084918B831C8224E030E0D1
:10F79000C8C18B81803589F48C81883039F4E2E0EE
:10F7A000F0E089E08093570084910DC0E0E0F0E044
:10F7B00089E080935700849106C0E3E0F0E089E09F
:10F7C0008093570084911A82DFCF8D81836C99E0FA
:10F7D000E1E0F0E0082E90935700E89507B600FCB2
:10F7E000FDCF1A821B8223E030E09BC180EC8A832C
:10F7F000CE5CDE4F188219821A821B82C253D1401E
:10F800008EC18A8190E0A0E0B0E0582F44273327D2
:10F8100022278B8190E0A0E0B0E0DC0199278827C7
:10F82000282B392B4A2B5B2B8D8190E0A0E0B0E098
:10F83000282B392B4A2B5B2B8C8190E0A0E0B0E089
:10F84000BA2FA92F982F8827282B392B4A2B5B2BCF
:10F85000220F331F441F551FC05EDE4F288339839C
:10F860004A835B83C052D1401A8259C13A81C95C34
:10F87000DE4F3883C753D140CA5CDE4F1882C6536F
:10F88000D1408B81C82EDD24CA5CDE4F488159816E
:10F89000C653D140C42AD52A933109F082C0CE5C28
:10F8A000DE4F88819981AA81BB81C253D1408050AB
:10F8B000904CA340B04030F583E0CE5CDE4FE88052
:10F8C000F9800A811B81C253D140F70100935B008C
:10F8D00080935700E89507B600FCFDCFCE5CDE4F65
:10F8E000088119812A813B81C253D14000501F4FAA
:10F8F0002F4F3F4FCE5CDE4F088319832A833B8313
:10F90000C253D140C05EDE4F488159816A817B81FC
:10F91000C052D140DE011B9631E08C9111962C91A2
:10F9200011971296C75CDE4F2883C953D140C85C3B
:10F93000DE4F1882C853D14090E0C85CDE4FE881AA
:10F94000F981C853D1408E2B9F2B0C01FA01609393
:10F950005B0030935700E89511244E5F5F4F6F4F67
:10F960007F4F0EEFE02E0FEFF02ECE0CDF1CC114F8
:10F97000D10499F685E0C05EDE4F088119812A81A5
:10F980003B81C052D140F80120935B008093570027
:10F99000E89507B600FCFDCF81E180935700E8951C
:10F9A00035C0C05EDE4F88819981AA81BB81C0527B
:10F9B000D140B695A795979587957C018601ABE0D8
:10F9C000AA2EB12CAC0EBD1E0BC0D5016D915D01F0
:10F9D000C7010F947FFE0894E11CF11C01501040F8
:10F9E0000115110591F7A60160E070E0440F551F65
:10F9F000661F771FC05EDE4FE880F9800A811B8199
:10FA0000C052D1404E0D5F1D601F711F1A82C05E33
:10FA1000DE4F488359836A837B83C052D1407FC0C5
:10FA2000FA80C55CDE4FF882CB53D140C65CDE4F16
:10FA30001882CA53D1408B81C82EDD24C65CDE4FAC
:10FA400008811981CA53D140C02AD12A1A828981DA
:10FA5000BE016D5F7F4F843121F59601C05EDE4FA0
:10FA6000E880F9800A811B81C052D1400BBFF701A9
:10FA700087919691DB018C9311969C936E5F7F4FDB
:10FA8000D801C7010296A11DB11DC05EDE4F88835B
:10FA90009983AA83BB83C052D14022503040F1F6F3
:10FAA00036C0C05EDE4F288139814A815B81C052F9
:10FAB000D1400894C108D108760100E010E0089414
:10FAC000C11CD11C0894E11CF11C011D111DE20E8A
:10FAD000F31E041F151F21BDBB27A52F942F832FB5
:10FAE00082BD2F5F3F4F4F4F5F4FF89A80B5DB01CC
:10FAF0008D93BD012E153F054007510761F7C05E8C
:10FB0000DE4F288339834A835B83C052D1409601FC
:10FB10002D5F3F4FFB01108204C080EC8A8322E0FE
:10FB200030E08BE18093C6008091C00086FFFCCF5F
:10FB30008091C00080648093C000C15DDE4FF88179
:10FB4000CF52D140F093C6008091C00086FFFCCF19
:10FB50008091C00080648093C000432F3093C60022
:10FB60008091C00086FFFCCF8091C00080648093AC
:10FB7000C000922F2093C6008091C00086FFFCCF6A
:10FB80008091C00080648093C0008EE08093C600A6
:10FB90008091C00086FFFCCF8091C000806480937C
:10FBA000C00065E1C15DDE4FE880CF52D1406E25D7
:10FBB00069276427FE01319610C090819093C6009A
:10FBC0008091C00086FFFCCF31968091C000806498
:10FBD0008093C0006927215030402115310569F715
:10FBE0006093C6008091C00086FFFCCF8091C0006A
:10FBF00080648093C00085B1805885B9772081F4F6
:10FC0000C15DDE4F0881CF52D1400F5FC15DDE4F35
:10FC10000883CF52D14090E0A0E0B0E00D941AF4F8
:10FC200027982F9880E090E020ED37E0F901319798
:10FC3000F1F7019684369105C9F700008091C00064
:10FC40008D7F8093C00081E180935700E895EE2777
:10FC5000FF270994FFCF90E00D941AF497FB092E2B
:10FC600007260AD077FD04D02ED006D000201AF443
:10FC7000709561957F4F0895F6F7909581959F4F08
:10FC80000895A1E21A2EAA1BBB1BFD010DC0AA1FDD
:10FC9000BB1FEE1FFF1FA217B307E407F50720F0F5
:10FCA000A21BB30BE40BF50B661F771F881F991F70
:10FCB0001A9469F760957095809590959B01AC01B9
:10FCC000BD01CF010895AA1BBB1B51E107C0AA1FAC
:10FCD000BB1FA617B70710F0A61BB70B881F991FED
:10FCE0005A95A9F780959095BC01CD010895F99991
:10FCF000FECF92BD81BDF89A992780B50895262F31
:10FD0000F999FECF1FBA92BD81BD20BD0FB6F89400
:0EFD1000FA9AF99A0FBE01960895F894FFCF63
:00000001FF
